{
  "_format": "hh-sol-artifact-1",
  "contractName": "BorderlessAccessControl",
  "sourceName": "contracts/core/BorderlessAccessControl/functions/BorderlessAccessControl.sol",
  "abi": [
    {
      "inputs": [],
      "name": "AccessControlBadConfirmation",
      "type": "error"
    },
    {
      "inputs": [
        {
          "internalType": "address",
          "name": "account",
          "type": "address"
        },
        {
          "internalType": "bytes32",
          "name": "neededRole",
          "type": "bytes32"
        }
      ],
      "name": "AccessControlUnauthorizedAccount",
      "type": "error"
    },
    {
      "inputs": [],
      "name": "AlreadyInitialized",
      "type": "error"
    },
    {
      "anonymous": false,
      "inputs": [
        {
          "indexed": true,
          "internalType": "address",
          "name": "initializer",
          "type": "address"
        }
      ],
      "name": "BorderlessAccessControlInitialized",
      "type": "event"
    },
    {
      "anonymous": false,
      "inputs": [
        {
          "indexed": true,
          "internalType": "bytes32",
          "name": "role",
          "type": "bytes32"
        },
        {
          "indexed": true,
          "internalType": "bytes32",
          "name": "previousAdminRole",
          "type": "bytes32"
        },
        {
          "indexed": true,
          "internalType": "bytes32",
          "name": "newAdminRole",
          "type": "bytes32"
        }
      ],
      "name": "RoleAdminChanged",
      "type": "event"
    },
    {
      "anonymous": false,
      "inputs": [
        {
          "indexed": true,
          "internalType": "bytes32",
          "name": "role",
          "type": "bytes32"
        },
        {
          "indexed": true,
          "internalType": "address",
          "name": "account",
          "type": "address"
        },
        {
          "indexed": true,
          "internalType": "address",
          "name": "sender",
          "type": "address"
        }
      ],
      "name": "RoleGranted",
      "type": "event"
    },
    {
      "anonymous": false,
      "inputs": [
        {
          "indexed": true,
          "internalType": "bytes32",
          "name": "role",
          "type": "bytes32"
        },
        {
          "indexed": true,
          "internalType": "address",
          "name": "account",
          "type": "address"
        },
        {
          "indexed": true,
          "internalType": "address",
          "name": "sender",
          "type": "address"
        }
      ],
      "name": "RoleRevoked",
      "type": "event"
    },
    {
      "inputs": [],
      "name": "DEFAULT_ADMIN_ROLE",
      "outputs": [
        {
          "internalType": "bytes32",
          "name": "",
          "type": "bytes32"
        }
      ],
      "stateMutability": "pure",
      "type": "function"
    },
    {
      "inputs": [],
      "name": "FOUNDER_ROLE",
      "outputs": [
        {
          "internalType": "bytes32",
          "name": "",
          "type": "bytes32"
        }
      ],
      "stateMutability": "pure",
      "type": "function"
    },
    {
      "inputs": [
        {
          "internalType": "bytes32",
          "name": "role",
          "type": "bytes32"
        }
      ],
      "name": "getRoleAdmin",
      "outputs": [
        {
          "internalType": "bytes32",
          "name": "",
          "type": "bytes32"
        }
      ],
      "stateMutability": "view",
      "type": "function"
    },
    {
      "inputs": [
        {
          "internalType": "bytes32",
          "name": "role",
          "type": "bytes32"
        },
        {
          "internalType": "address",
          "name": "account",
          "type": "address"
        }
      ],
      "name": "grantRole",
      "outputs": [],
      "stateMutability": "nonpayable",
      "type": "function"
    },
    {
      "inputs": [
        {
          "internalType": "bytes32",
          "name": "role",
          "type": "bytes32"
        },
        {
          "internalType": "address",
          "name": "account",
          "type": "address"
        }
      ],
      "name": "hasRole",
      "outputs": [
        {
          "internalType": "bool",
          "name": "",
          "type": "bool"
        }
      ],
      "stateMutability": "view",
      "type": "function"
    },
    {
      "inputs": [
        {
          "internalType": "address",
          "name": "dictionary",
          "type": "address"
        }
      ],
      "name": "initialize",
      "outputs": [],
      "stateMutability": "nonpayable",
      "type": "function"
    },
    {
      "inputs": [
        {
          "internalType": "bytes32",
          "name": "role",
          "type": "bytes32"
        },
        {
          "internalType": "address",
          "name": "callerConfirmation",
          "type": "address"
        }
      ],
      "name": "renounceRole",
      "outputs": [],
      "stateMutability": "nonpayable",
      "type": "function"
    },
    {
      "inputs": [
        {
          "internalType": "bytes32",
          "name": "role",
          "type": "bytes32"
        },
        {
          "internalType": "address",
          "name": "account",
          "type": "address"
        }
      ],
      "name": "revokeRole",
      "outputs": [],
      "stateMutability": "nonpayable",
      "type": "function"
    },
    {
      "inputs": [
        {
          "internalType": "bytes32",
          "name": "role",
          "type": "bytes32"
        },
        {
          "internalType": "bytes32",
          "name": "adminRole",
          "type": "bytes32"
        }
      ],
      "name": "setAdminRole",
      "outputs": [],
      "stateMutability": "nonpayable",
      "type": "function"
    },
    {
      "inputs": [
        {
          "internalType": "bytes4",
          "name": "interfaceId",
          "type": "bytes4"
        }
      ],
      "name": "supportsInterface",
      "outputs": [
        {
          "internalType": "bool",
          "name": "",
          "type": "bool"
        }
      ],
      "stateMutability": "view",
      "type": "function"
    }
  ],
  "bytecode": "0x60808060405234601557610745908161001b8239f35b600080fdfe608080604052600436101561001357600080fd5b60003560e01c90816301ffc9a7146104a057508063248a9ca31461047a5780632f2ff15d1461044957806336568abe1461040357806391d14854146103b0578063a217fddf14610394578063c1e6f30414610359578063c4d66de81461012b578063d547741f146100f35763dfde5e581461008d57600080fd5b346100ee5760403660031901126100ee576024356004356100ad81610509565b906100b66106cb565b81600052602052826001604060002001557fbd79b86ffe0ab8e8776151514217cd7cacd52c909f66475c3af44e129f0b00ff600080a4005b600080fd5b346100ee5760403660031901126100ee576101296004356101126104f3565b9061012461011f82610509565b610524565b610601565b005b346100ee5760203660031901126100ee576004356001600160a01b038116908190036100ee5760ff604051602081017ff158cb8b47a14bda3b2c4affcc0d960e9ed23f5a516e4779510b08a6e823c02581526020825261018c604083610693565b821991519020165416610349576040516101206101a98183610693565b600882526020820190601f190136823781511561033357632f2ff15d60e01b90528051600110156103335763d547741f60e01b604082015280516002101561033357631b2b455f60e11b60608201528051600310156103335763a217fddf60e01b608082015280516004101561033357633079bcc160e21b60a0820152805160051015610333576301ffc9a760e01b60c08201528051600610156103335763248a9ca360e01b60e082015280516007101561033357632474521560e21b61010082015260005b815181101561030b57600082518210156102f75750600581901b8201602001516001600160e01b03191690833b156100ee5760405191630815f6fd60e01b8352600483015230602483015260008260448183885af19182156102eb576001926102da575b500161026f565b60006102e591610693565b846102d3565b6040513d6000823e3d90fd5b634e487b7160e01b81526032600452602490fd5b337f766a6be0db21517b2b423a513c14e61451e05bf62e25a0fe2ed3e444d19d9aa9600080a2005b634e487b7160e01b600052603260045260246000fd5b62dc149f60e41b60005260046000fd5b346100ee5760003660031901126100ee5760206040517f7ed687a8f2955bd2ba7ca08227e1e364d132be747f42fb733165f923021b02258152f35b346100ee5760003660031901126100ee57602060405160008152f35b346100ee5760403660031901126100ee576103c96104f3565b6103d16106cb565b60043560005260205260406000209060018060a01b0316600052602052602060ff604060002054166040519015158152f35b346100ee5760403660031901126100ee5761041c6104f3565b336001600160a01b038216036104385761012990600435610601565b63334bd91960e11b60005260046000fd5b346100ee5760403660031901126100ee576101296004356104686104f3565b9061047561011f82610509565b610566565b346100ee5760203660031901126100ee576020610498600435610509565b604051908152f35b346100ee5760203660031901126100ee576004359063ffffffff60e01b82168092036100ee57602091637965db0b60e01b81149081156104e2575b5015158152f35b6301ffc9a760e01b149050836104db565b602435906001600160a01b03821682036100ee57565b6105116106cb565b9060005260205260016040600020015490565b61052c6106cb565b600082815260209182526040808220338352909252205460ff161561054e5750565b63e2517d3f60e01b6000523360045260245260446000fd5b61056e6106cb565b6000828152602091825260408082206001600160a01b0386168352909252205460ff166105fa5761059d6106cb565b6000828152602091825260408082206001600160a01b039590951680835294909252908120805460ff19166001179055339291907f2f8788117e7eff1d82e926ec794901d17c78024a50270940304540a733656f0d9080a4600190565b5050600090565b6106096106cb565b6000828152602091825260408082206001600160a01b0386168352909252205460ff16156105fa576106396106cb565b6000828152602091825260408082206001600160a01b039590951680835294909252908120805460ff19169055339291907ff6391f5c32d9c69d2a47ea670b442974b53935d1edc7fd64eb21e047a839171b9080a4600190565b90601f8019910116810190811067ffffffffffffffff8211176106b557604052565b634e487b7160e01b600052604160045260246000fd5b604051602081017fcf377bf0da9cb35454543c63ad54bf2c5a0466b629ac7517e61f8857cae0fa25815260208252610704604083610693565b9051902060ff19169056fea2646970667358221220d82973ed94af2d12641f9d6be900187e3e8c0a1e4820774c5e7df38ba3edd6be64736f6c634300081c0033",
  "linkReferences": {},
  "deployedLinkReferences": {}
}