{
  "_format": "hh-sol-artifact-1",
  "contractName": "LETS_JP_LLC_EXE",
  "sourceName": "contracts/sc/Services/LETS/functions/extentions/LETS_JP_LLC/LETS_JP_LLC_EXE.sol",
  "abi": [
    {
      "inputs": [],
      "name": "AlreadyInitialized",
      "type": "error"
    },
    {
      "inputs": [
        {
          "internalType": "address",
          "name": "sender",
          "type": "address"
        },
        {
          "internalType": "uint256",
          "name": "tokenId",
          "type": "uint256"
        },
        {
          "internalType": "address",
          "name": "owner",
          "type": "address"
        }
      ],
      "name": "ERC721IncorrectOwner",
      "type": "error"
    },
    {
      "inputs": [
        {
          "internalType": "address",
          "name": "operator",
          "type": "address"
        },
        {
          "internalType": "uint256",
          "name": "tokenId",
          "type": "uint256"
        }
      ],
      "name": "ERC721InsufficientApproval",
      "type": "error"
    },
    {
      "inputs": [
        {
          "internalType": "address",
          "name": "approver",
          "type": "address"
        }
      ],
      "name": "ERC721InvalidApprover",
      "type": "error"
    },
    {
      "inputs": [
        {
          "internalType": "address",
          "name": "operator",
          "type": "address"
        }
      ],
      "name": "ERC721InvalidOperator",
      "type": "error"
    },
    {
      "inputs": [
        {
          "internalType": "address",
          "name": "owner",
          "type": "address"
        }
      ],
      "name": "ERC721InvalidOwner",
      "type": "error"
    },
    {
      "inputs": [
        {
          "internalType": "address",
          "name": "receiver",
          "type": "address"
        }
      ],
      "name": "ERC721InvalidReceiver",
      "type": "error"
    },
    {
      "inputs": [
        {
          "internalType": "address",
          "name": "sender",
          "type": "address"
        }
      ],
      "name": "ERC721InvalidSender",
      "type": "error"
    },
    {
      "inputs": [
        {
          "internalType": "uint256",
          "name": "tokenId",
          "type": "uint256"
        }
      ],
      "name": "ERC721NonexistentToken",
      "type": "error"
    },
    {
      "inputs": [
        {
          "internalType": "address",
          "name": "owner",
          "type": "address"
        },
        {
          "internalType": "uint256",
          "name": "index",
          "type": "uint256"
        }
      ],
      "name": "ERC721OutOfBoundsIndex",
      "type": "error"
    },
    {
      "inputs": [
        {
          "internalType": "address",
          "name": "sender",
          "type": "address"
        }
      ],
      "name": "NotFounder",
      "type": "error"
    },
    {
      "inputs": [
        {
          "internalType": "address",
          "name": "caller",
          "type": "address"
        }
      ],
      "name": "NotGovernance",
      "type": "error"
    },
    {
      "inputs": [
        {
          "internalType": "address",
          "name": "caller",
          "type": "address"
        }
      ],
      "name": "NotLetsSale",
      "type": "error"
    },
    {
      "inputs": [],
      "name": "NotTransferable",
      "type": "error"
    },
    {
      "inputs": [
        {
          "internalType": "address",
          "name": "owner",
          "type": "address"
        }
      ],
      "name": "OwnableInvalidOwner",
      "type": "error"
    },
    {
      "inputs": [
        {
          "internalType": "address",
          "name": "account",
          "type": "address"
        }
      ],
      "name": "OwnableUnauthorizedAccount",
      "type": "error"
    },
    {
      "anonymous": false,
      "inputs": [
        {
          "indexed": true,
          "internalType": "address",
          "name": "owner",
          "type": "address"
        },
        {
          "indexed": true,
          "internalType": "address",
          "name": "approved",
          "type": "address"
        },
        {
          "indexed": true,
          "internalType": "uint256",
          "name": "tokenId",
          "type": "uint256"
        }
      ],
      "name": "Approval",
      "type": "event"
    },
    {
      "anonymous": false,
      "inputs": [
        {
          "indexed": true,
          "internalType": "address",
          "name": "owner",
          "type": "address"
        },
        {
          "indexed": true,
          "internalType": "address",
          "name": "operator",
          "type": "address"
        },
        {
          "indexed": false,
          "internalType": "bool",
          "name": "approved",
          "type": "bool"
        }
      ],
      "name": "ApprovalForAll",
      "type": "event"
    },
    {
      "anonymous": false,
      "inputs": [
        {
          "indexed": false,
          "internalType": "uint256",
          "name": "_fromTokenId",
          "type": "uint256"
        },
        {
          "indexed": false,
          "internalType": "uint256",
          "name": "_toTokenId",
          "type": "uint256"
        }
      ],
      "name": "BatchMetadataUpdate",
      "type": "event"
    },
    {
      "anonymous": false,
      "inputs": [
        {
          "indexed": true,
          "internalType": "address",
          "name": "scr",
          "type": "address"
        },
        {
          "indexed": false,
          "internalType": "address[]",
          "name": "tos",
          "type": "address[]"
        }
      ],
      "name": "InitialMint",
      "type": "event"
    },
    {
      "anonymous": false,
      "inputs": [
        {
          "indexed": true,
          "internalType": "address",
          "name": "initializer",
          "type": "address"
        }
      ],
      "name": "LETSBaseInitialized",
      "type": "event"
    },
    {
      "anonymous": false,
      "inputs": [
        {
          "indexed": false,
          "internalType": "uint256",
          "name": "_tokenId",
          "type": "uint256"
        }
      ],
      "name": "MetadataUpdate",
      "type": "event"
    },
    {
      "anonymous": false,
      "inputs": [
        {
          "indexed": true,
          "internalType": "address",
          "name": "previousOwner",
          "type": "address"
        },
        {
          "indexed": true,
          "internalType": "address",
          "name": "newOwner",
          "type": "address"
        }
      ],
      "name": "OwnershipTransferred",
      "type": "event"
    },
    {
      "anonymous": false,
      "inputs": [
        {
          "indexed": false,
          "internalType": "uint256",
          "name": "tokenId",
          "type": "uint256"
        }
      ],
      "name": "TokenFrozen",
      "type": "event"
    },
    {
      "anonymous": false,
      "inputs": [
        {
          "indexed": false,
          "internalType": "uint256",
          "name": "tokenId",
          "type": "uint256"
        }
      ],
      "name": "TokenUnfrozen",
      "type": "event"
    },
    {
      "anonymous": false,
      "inputs": [
        {
          "indexed": true,
          "internalType": "address",
          "name": "from",
          "type": "address"
        },
        {
          "indexed": true,
          "internalType": "address",
          "name": "to",
          "type": "address"
        },
        {
          "indexed": true,
          "internalType": "uint256",
          "name": "tokenId",
          "type": "uint256"
        }
      ],
      "name": "Transfer",
      "type": "event"
    },
    {
      "inputs": [
        {
          "internalType": "address",
          "name": "to",
          "type": "address"
        },
        {
          "internalType": "uint256",
          "name": "tokenId",
          "type": "uint256"
        }
      ],
      "name": "approve",
      "outputs": [],
      "stateMutability": "nonpayable",
      "type": "function"
    },
    {
      "inputs": [
        {
          "internalType": "address",
          "name": "owner",
          "type": "address"
        }
      ],
      "name": "balanceOf",
      "outputs": [
        {
          "internalType": "uint256",
          "name": "",
          "type": "uint256"
        }
      ],
      "stateMutability": "view",
      "type": "function"
    },
    {
      "inputs": [
        {
          "internalType": "uint256",
          "name": "tokenId",
          "type": "uint256"
        }
      ],
      "name": "freezeToken",
      "outputs": [],
      "stateMutability": "nonpayable",
      "type": "function"
    },
    {
      "inputs": [
        {
          "internalType": "uint256",
          "name": "tokenId",
          "type": "uint256"
        }
      ],
      "name": "getApproved",
      "outputs": [
        {
          "internalType": "address",
          "name": "",
          "type": "address"
        }
      ],
      "stateMutability": "view",
      "type": "function"
    },
    {
      "inputs": [],
      "name": "getInitialMintExecuteMemberCompleted",
      "outputs": [
        {
          "internalType": "bool",
          "name": "initialMintExecuteMemberCompleted",
          "type": "bool"
        }
      ],
      "stateMutability": "view",
      "type": "function"
    },
    {
      "inputs": [
        {
          "internalType": "address",
          "name": "owner",
          "type": "address"
        }
      ],
      "name": "getTokensOfOwner",
      "outputs": [
        {
          "internalType": "uint256[]",
          "name": "",
          "type": "uint256[]"
        }
      ],
      "stateMutability": "view",
      "type": "function"
    },
    {
      "inputs": [
        {
          "internalType": "uint256",
          "name": "tokenId",
          "type": "uint256"
        }
      ],
      "name": "getUpdatedToken",
      "outputs": [
        {
          "internalType": "uint256",
          "name": "",
          "type": "uint256"
        }
      ],
      "stateMutability": "view",
      "type": "function"
    },
    {
      "inputs": [
        {
          "internalType": "address[]",
          "name": "tos",
          "type": "address[]"
        },
        {
          "internalType": "uint256",
          "name": "tokenId",
          "type": "uint256"
        }
      ],
      "name": "initialMint",
      "outputs": [],
      "stateMutability": "nonpayable",
      "type": "function"
    },
    {
      "inputs": [
        {
          "internalType": "address",
          "name": "dictionary",
          "type": "address"
        }
      ],
      "name": "initialize",
      "outputs": [],
      "stateMutability": "nonpayable",
      "type": "function"
    },
    {
      "inputs": [
        {
          "internalType": "address",
          "name": "owner",
          "type": "address"
        },
        {
          "internalType": "address",
          "name": "operator",
          "type": "address"
        }
      ],
      "name": "isApprovedForAll",
      "outputs": [
        {
          "internalType": "bool",
          "name": "",
          "type": "bool"
        }
      ],
      "stateMutability": "view",
      "type": "function"
    },
    {
      "inputs": [
        {
          "internalType": "address",
          "name": "to",
          "type": "address"
        }
      ],
      "name": "mint",
      "outputs": [
        {
          "internalType": "uint256",
          "name": "tokenId",
          "type": "uint256"
        }
      ],
      "stateMutability": "nonpayable",
      "type": "function"
    },
    {
      "inputs": [],
      "name": "name",
      "outputs": [
        {
          "internalType": "string",
          "name": "",
          "type": "string"
        }
      ],
      "stateMutability": "view",
      "type": "function"
    },
    {
      "inputs": [],
      "name": "owner",
      "outputs": [
        {
          "internalType": "address",
          "name": "",
          "type": "address"
        }
      ],
      "stateMutability": "view",
      "type": "function"
    },
    {
      "inputs": [
        {
          "internalType": "uint256",
          "name": "tokenId",
          "type": "uint256"
        }
      ],
      "name": "ownerOf",
      "outputs": [
        {
          "internalType": "address",
          "name": "",
          "type": "address"
        }
      ],
      "stateMutability": "view",
      "type": "function"
    },
    {
      "inputs": [],
      "name": "renounceOwnership",
      "outputs": [],
      "stateMutability": "nonpayable",
      "type": "function"
    },
    {
      "inputs": [
        {
          "internalType": "address",
          "name": "from",
          "type": "address"
        },
        {
          "internalType": "address",
          "name": "to",
          "type": "address"
        },
        {
          "internalType": "uint256",
          "name": "tokenId",
          "type": "uint256"
        }
      ],
      "name": "safeTransferFrom",
      "outputs": [],
      "stateMutability": "nonpayable",
      "type": "function"
    },
    {
      "inputs": [
        {
          "internalType": "address",
          "name": "from",
          "type": "address"
        },
        {
          "internalType": "address",
          "name": "to",
          "type": "address"
        },
        {
          "internalType": "uint256",
          "name": "tokenId",
          "type": "uint256"
        },
        {
          "internalType": "bytes",
          "name": "data",
          "type": "bytes"
        }
      ],
      "name": "safeTransferFrom",
      "outputs": [],
      "stateMutability": "nonpayable",
      "type": "function"
    },
    {
      "inputs": [
        {
          "internalType": "address",
          "name": "operator",
          "type": "address"
        },
        {
          "internalType": "bool",
          "name": "approved",
          "type": "bool"
        }
      ],
      "name": "setApprovalForAll",
      "outputs": [],
      "stateMutability": "nonpayable",
      "type": "function"
    },
    {
      "inputs": [
        {
          "internalType": "bytes4",
          "name": "interfaceId",
          "type": "bytes4"
        }
      ],
      "name": "supportsInterface",
      "outputs": [
        {
          "internalType": "bool",
          "name": "",
          "type": "bool"
        }
      ],
      "stateMutability": "pure",
      "type": "function"
    },
    {
      "inputs": [],
      "name": "symbol",
      "outputs": [
        {
          "internalType": "string",
          "name": "",
          "type": "string"
        }
      ],
      "stateMutability": "view",
      "type": "function"
    },
    {
      "inputs": [
        {
          "internalType": "uint256",
          "name": "index",
          "type": "uint256"
        }
      ],
      "name": "tokenByIndex",
      "outputs": [
        {
          "internalType": "uint256",
          "name": "",
          "type": "uint256"
        }
      ],
      "stateMutability": "view",
      "type": "function"
    },
    {
      "inputs": [
        {
          "internalType": "address",
          "name": "owner",
          "type": "address"
        },
        {
          "internalType": "uint256",
          "name": "index",
          "type": "uint256"
        }
      ],
      "name": "tokenOfOwnerByIndex",
      "outputs": [
        {
          "internalType": "uint256",
          "name": "",
          "type": "uint256"
        }
      ],
      "stateMutability": "view",
      "type": "function"
    },
    {
      "inputs": [
        {
          "internalType": "uint256",
          "name": "tokenId",
          "type": "uint256"
        }
      ],
      "name": "tokenURI",
      "outputs": [
        {
          "internalType": "string",
          "name": "",
          "type": "string"
        }
      ],
      "stateMutability": "view",
      "type": "function"
    },
    {
      "inputs": [],
      "name": "totalSupply",
      "outputs": [
        {
          "internalType": "uint256",
          "name": "",
          "type": "uint256"
        }
      ],
      "stateMutability": "view",
      "type": "function"
    },
    {
      "inputs": [
        {
          "internalType": "address",
          "name": "from",
          "type": "address"
        },
        {
          "internalType": "address",
          "name": "to",
          "type": "address"
        },
        {
          "internalType": "uint256",
          "name": "tokenId",
          "type": "uint256"
        }
      ],
      "name": "transferFrom",
      "outputs": [],
      "stateMutability": "nonpayable",
      "type": "function"
    },
    {
      "inputs": [
        {
          "internalType": "address",
          "name": "newOwner",
          "type": "address"
        }
      ],
      "name": "transferOwnership",
      "outputs": [],
      "stateMutability": "nonpayable",
      "type": "function"
    },
    {
      "inputs": [
        {
          "internalType": "uint256",
          "name": "tokenId",
          "type": "uint256"
        }
      ],
      "name": "unfreezeToken",
      "outputs": [],
      "stateMutability": "nonpayable",
      "type": "function"
    }
  ],
  "bytecode": "0x60808060405234601557611df9908161001b8239f35b600080fdfe608080604052600436101561001357600080fd5b60003560e01c90816301ffc9a7146110ba5750806306fdde0314611096578063081812fc1461106e578063095ea7b314610f9357806318160ddd14610f6c57806323b872dd14610f555780632f745c5914610f2e5780633a167dd414610acf57806342842e0e14610aa55780634d787ea914610a475780634f6ccce7146109e25780635de6dc55146109225780636352211e146108f25780636a6278421461088b57806370a0823114610860578063715018a6146107f75780638da5cb5b146107ca57806395d89b41146107a357806397294fea1461076e578063a22cb465146106bc578063b6854f961461065b578063b88d4fde146105d0578063c4d66de814610274578063c87b56dd1461023d578063e12a8b7c1461021a578063e985e9c5146101e45763f2fde38b1461014857600080fd5b346101df5760203660031901126101df57610161611185565b6101696118d8565b6001600160a01b031680156101c9576001600160a01b03610188611907565b5416610192611907565b80546001600160a01b031916831790557f8be0079c531659141344cd1fd0a4f28419497f9722a3daafe3b4186f6b6457e0600080a3005b631e4fbdf760e01b600052600060045260246000fd5b600080fd5b346101df5760403660031901126101df576020610210610202611185565b61020a61119b565b9061197a565b6040519015158152f35b346101df5760003660031901126101df57602060ff600054166040519015158152f35b346101df5760203660031901126101df5761027061025c600435611940565b604051918291602083526020830190611160565b0390f35b346101df5760203660031901126101df5761028d611185565b60ff604051602081017ff158cb8b47a14bda3b2c4affcc0d960e9ed23f5a516e4779510b08a6e823c0258152602082526102c86040836111eb565b8219915190201654166105c057604051906102e06102e681846111eb565b601683526020830190601f19013682378251156105aa57634b94a7f560e11b90528151600110156105aa5763c87b56dd60e01b60408301528151600210156105aa576318160ddd60e01b60608301528151600310156105aa576301ffc9a760e01b60808301528151600410156105aa576370a0823160e01b60a08301528151600510156105aa576331a9108f60e11b60c08301528151600610156105aa5763095ea7b360e01b60e08301528151600710156105aa5763020604bf60e21b6101008301528151600810156105aa5763a22cb46560e01b6101208301528151600910156105aa5763e985e9c560e01b6101408301528151600a10156105aa576323b872dd60e01b6101608301528151600b10156105aa57632142170760e11b6101808301528151600c10156105aa57635c46a7ef60e11b6101a08301528151600d10156105aa576306fdde0360e01b6101c08301528151600e10156105aa576395d89b4160e01b6101e08301528151600f10156105aa57634f6ccce760e01b6102008301528151601010156105aa57632f745c5960e01b6102208301528151601110156105aa57635de6dc5560e01b6102408301528151601210156105aa576335313c2160e11b6102608301528151601310156105aa57635b42a7cb60e11b6102808301528151601410156105aa57634d787ea960e01b6102a08301528151601510156105aa57634b94a7f560e11b6102c08301526001600160a01b03169060005b8151811015610582576001600160e01b0319610522828461187c565b511690833b156101df5760405191630815f6fd60e01b8352600483015230602483015260008260448183885af191821561057657600192610565575b5001610506565b6000610570916111eb565b8461055e565b6040513d6000823e3d90fd5b337f171a7dc80b6dc11005bc264b86aca451619865e5e8dad90855002dd8814b3362600080a2005b634e487b7160e01b600052603260045260246000fd5b62dc149f60e41b60005260046000fd5b346101df5760803660031901126101df576105e9611185565b6105f161119b565b6064359167ffffffffffffffff83116101df57366023840112156101df5782600401359161061e83611223565b9261062c60405194856111eb565b80845236602482870101116101df5760208160009260246106599801838801378501015260443591611669565b005b346101df5760203660031901126101df577f74308730007d8ee5b3c18fad784efa3555f62695e36960f803f475eeb663d10e6020600435600361069c611907565b018160005282526040600020600160ff19825416179055604051908152a1005b346101df5760403660031901126101df576106d5611185565b602435908115158092036101df576001600160a01b03169081156107595760056106fd6117b3565b0160018060a01b033316600052602052604060002082600052602052604060002060ff1981541660ff83161790556040519081527f17307eab39ab6107e8899845ad3d59bd9653f200f220920489ca2b5937696c3160203392a3005b50630b61174360e31b60005260045260246000fd5b346101df5760203660031901126101df576004610789611907565b016004356000526020526020604060002054604051908152f35b346101df5760003660031901126101df5761027061025c60016107c46117b3565b01611279565b346101df5760003660031901126101df5760206001600160a01b036107ed611907565b5416604051908152f35b346101df5760003660031901126101df576108106118d8565b60006001600160a01b03610822611907565b541661082c611907565b80546001600160a01b03191690557f8be0079c531659141344cd1fd0a4f28419497f9722a3daafe3b4186f6b6457e08280a3005b346101df5760203660031901126101df57602061088361087e611185565b611890565b604051908152f35b346101df5760203660031901126101df576108a4611185565b6108ac611907565b805460001981146108dc576020926001610883920180935582604051916108d386846111eb565b60008352611ab2565b634e487b7160e01b600052601160045260246000fd5b346101df5760203660031901126101df5760206109106004356117f7565b6040516001600160a01b039091168152f35b346101df5760203660031901126101df5761093b611185565b61094481611890565b9061094e82611864565b9161095c60405193846111eb565b80835261096881611864565b602084019290601f190136843760005b8281106109c45783856040519182916020830190602084525180915260408301919060005b8181106109ab575050500390f35b825184528594506020938401939092019160010161099d565b806109d160019284611a1e565b6109db828861187c565b5201610978565b346101df5760203660031901126101df576004356002610a006119e5565b0154811015610a2e57610a1f6020916002610a196119e5565b0161184c565b90549060031b1c604051908152f35b63295f44f760e21b600052600060045260245260446000fd5b346101df5760203660031901126101df577fdad54db74d8c1152c7cb496a900d181b8e9b69b70e55db2362bd100897a4f7a160206004356003610a88611907565b01816000528252604060002060ff198154169055604051908152a1005b346101df57610659610ab6366111b1565b9060405192610ac66020856111eb565b60008452611669565b346101df5760403660031901126101df5760043567ffffffffffffffff81116101df57366023820112156101df5780600401359067ffffffffffffffff82116101df573660248360051b830101116101df5760243590604051602081017fcf377bf0da9cb35454543c63ad54bf2c5a0466b629ac7517e61f8857cae0fa25815260208252610b5e6040836111eb565b60ff1991519020167f7ed687a8f2955bd2ba7ca08227e1e364d132be747f42fb733165f923021b0225600052602052604060002060018060a01b03331660005260205260ff6040600020541615610f19576000916020935b80841015610e8a57600584901b830160240135906000906001600160a01b0383168303610e865760405194610beb88876111eb565b82865260405191608083019060a08401604052848252600a87925b6000190192603082820601845304918a8315610c255750600a90610c06565b9199969490610c5e935098959398608081601f19810193030182526002610c4a611907565b01906040519485935180928686019061113d565b8201908591815491610c6f8361123f565b9260018116908115610e635750600114610e2a575b505050610c9a925003601f1981018352826111eb565b610ca2611a79565b8683528952604082209181519167ffffffffffffffff8311610e165790839291610cce8996955461123f565b601f8111610dc0575b508b91601f8411600114610d4e5792610d3c969492819260019a99979592610d43575b5050600019600383901b1c191690881b1790555b7ff8e1a15aba9398e019f0b49df1a4fde98ee17ae345cb5f6b5e2c27f5033e8ce78a604051848152a1611ab2565b0192610bb6565b015190508d80610cfa565b8481528c8120929190601f198516908e5b828210610da65750509260019998969491928a9383610d3c9a989610610d8d575b505050811b019055610d0e565b015160001960f88460031b161c191690558d8080610d80565b8484015186558c995060019095019493840193018e610d5f565b909192938095965083528b8320601f850160051c8101918d8610610e0c575b90601f8b989796959493920160051c01905b818110610dfe5750610cd7565b8381558a9750600101610df1565b9091508190610ddf565b634e487b7160e01b82526041600452602482fd5b8752848720949250865b828110610e4b57508d94500101610c9a8d80610c84565b85548183018501526001909501948694508301610e34565b915050610c9a95935060ff9291921916838301528015150201018b928d80610c84565b5080fd5b84929150600160ff19600054161760005560405190808483018584525260246040830193019360005b828110610ee357307f1a011b8e3ac2481c2b87e374ace0f8bb1128f6a80697d6b4fd0817d950d4837b85870386a2005b91939091908535906001600160a01b03821682036101df576001600160a01b039091168152948201948201939190600101610eb3565b639c2f8ac360e01b6000523360045260246000fd5b346101df5760403660031901126101df576020610883610f4c611185565b60243590611a1e565b346101df57610659610f66366111b1565b9161131d565b346101df5760003660031901126101df5760206002610f896119e5565b0154604051908152f35b346101df5760403660031901126101df57610fac611185565b602435610fb8816117f7565b3315158061105b575b8061104a575b6110355781906001600160a01b0384811691167f8c5be1e5ebec7d5bd14f71427d1e84f3dd0314c0f7b2291e5b200ac8c7c3b925600080a460046110096117b3565b6000928352016020526040902080546001600160a01b0319166001600160a01b03909216919091179055005b63a9fbf51f60e01b6000523360045260246000fd5b50611055338261197a565b15610fc7565b506001600160a01b038116331415610fc1565b346101df5760203660031901126101df576020610910600435611090816117f7565b50611828565b346101df5760003660031901126101df5761027061025c6110b56117b3565b611279565b346101df5760203660031901126101df576004359063ffffffff60e01b82168092036101df576020916380ac58cd60e01b811490811561112c575b811561111b575b811561110a575b5015158152f35b632483248360e11b14905083611103565b63780e9d6360e01b811491506110fc565b635b5e139f60e01b811491506110f5565b60005b8381106111505750506000910152565b8181015183820152602001611140565b906020916111798151809281855285808601910161113d565b601f01601f1916010190565b600435906001600160a01b03821682036101df57565b602435906001600160a01b03821682036101df57565b60609060031901126101df576004356001600160a01b03811681036101df57906024356001600160a01b03811681036101df579060443590565b90601f8019910116810190811067ffffffffffffffff82111761120d57604052565b634e487b7160e01b600052604160045260246000fd5b67ffffffffffffffff811161120d57601f01601f191660200190565b90600182811c9216801561126f575b602083101461125957565b634e487b7160e01b600052602260045260246000fd5b91607f169161124e565b906040519182600082549261128d8461123f565b80845293600181169081156112fb57506001146112b4575b506112b2925003836111eb565b565b90506000929192526020600020906000915b8183106112df5750509060206112b292820101386112a5565b60209193508060019154838589010152019101909184926112c6565b9050602092506112b294915060ff191682840152151560051b820101386112a5565b9091906001600160a01b038316801561165357600461133a611907565b018360005260205242604060002055600090611355846119b4565b91331515806115c7575b506001600160a01b038316958615801561159c575b600361137e6117b3565b018484526020526040832060018154019055600261139a6117b3565b888552016020526040832080546001600160a01b031916851790558684897fddf252ad1be2c89b69c2b068fc378daa952ba7f163c4a11628f55a4df523b3ef8680a4156114fd5760026113eb6119e5565b015460036113f76119e5565b018784526020526040832055600261140d6119e5565b01805490600160401b8210156114e957611431828992600161144a9501815561184c565b90919082549060031b91821b91600019901b1916179055565b828703611484575b5050505060018060a01b031680830361146a57505050565b6364283d7b60e01b60005260045260245260445260646000fd5b61148d90611890565b6000198101929083116114d557906040916114a66119e5565b908252602052818120838252602052858282205560016114c46119e5565b018682526020522055388080611452565b634e487b7160e01b82526011600452602482fd5b634e487b7160e01b84526041600452602484fd5b86831461144a5761150d84611890565b60016115176119e5565b0187845260205260408320549061152c6119e5565b8985526020526040842091818103611567575b50600161154a6119e5565b01888552602052836040812055835260205281604081205561144a565b81855282602052604085205481865283602052806040872055600161158a6119e5565b0190865260205260408520553861153f565b6115a5876119be565b60036115af6117b3565b89855201602052604083208054600019019055611374565b80611610575b156115d8573861135f565b9250506001600160a01b03166115fa57602491637e27328960e01b8252600452fd5b60449163177e802f60e01b825233600452602452fd5b506001600160a01b03831633148015611643575b806115cd5750336001600160a01b0361163c87611828565b16146115cd565b5061164e338461197a565b611624565b633250574960e11b600052600060045260246000fd5b929161167681838661131d565b813b611683575b50505050565b604051630a85bd0160e11b81523360048201526001600160a01b03948516602482015260448101919091526080606482015292169190602090829081906116ce906084830190611160565b03816000865af1809160009161176d575b509061173857503d15611731573d6116f681611223565b9061170460405192836111eb565b81523d6000602083013e5b8051908161172c5782633250574960e11b60005260045260246000fd5b602001fd5b606061170f565b6001600160e01b03191663757a42ff60e11b0161175957503880808061167d565b633250574960e11b60005260045260246000fd5b6020813d6020116117ab575b81611786602093836111eb565b81010312610e865751906001600160e01b0319821682036117a85750386116df565b80fd5b3d9150611779565b604051602081017fb7b8777dfce3c027b9b4ab96baa886d0c5d5e8c8632429d2b4be0ba869cd905f8152602082526117ec6040836111eb565b9051902060ff191690565b611800816119b4565b906001600160a01b03821615611814575090565b637e27328960e01b60005260045260246000fd5b60046118326117b3565b60009283520160205260409020546001600160a01b031690565b80548210156105aa5760005260206000200190600090565b67ffffffffffffffff811161120d5760051b60200190565b80518210156105aa5760209160051b010190565b6001600160a01b038116156118c25760036118a96117b3565b019060018060a01b031660005260205260406000205490565b6322718ad960e21b600052600060045260246000fd5b6001600160a01b036118e8611907565b541633036118f257565b63118cdaa760e01b6000523360045260246000fd5b604051602081017f0cee7785c9739c2abcb4ce591dada6e864d6d906251746912d12a62bb828bf688152602082526117ec6040836111eb565b611949816117f7565b50611952611a79565b906000526020526119666040600020611279565b60006040516119766020826111eb565b5290565b60056119846117b3565b019060018060a01b031660005260205260406000209060018060a01b031660005260205260ff6040600020541690565b60026118326117b3565b60046119c86117b3565b6000928352016020526040902080546001600160a01b0319169055565b604051602081017f2070bae6b675801f0932481e70ab724699e22000dcf2efe36a44b6070d9ee8f18152602082526117ec6040836111eb565b611a2781611890565b821015611a5a57611a366119e5565b9060018060a01b031660005260205260406000209060005260205260406000205490565b63295f44f760e21b60005260018060a01b031660045260245260446000fd5b604051602081017f83126a7e0b3d5a7bd433798795b790de3287f4b1cb3d1042e8a9e2a4e5391b408152602082526117ec6040836111eb565b6001600160a01b0381169291908315611653576000611ad0836119b4565b6001600160a01b03811680158015939190889085611d98575b6003611af36117b3565b0182855260205260408420600181540190556002611b0f6117b3565b898652016020526040842080546001600160a01b031916831790558782847fddf252ad1be2c89b69c2b068fc378daa952ba7f163c4a11628f55a4df523b3ef8780a415611cf857506002611b616119e5565b01546003611b6d6119e5565b0187845260205260408320556002611b836119e5565b01805490600160401b8210156114e9578761143183611ba99360018e979601815561184c565b03611c96575b5050611c80573b611bbf57505050565b611bfb916020916040519384928392630a85bd0160e11b8452336004850152600060248501526044840152608060648401526084830190611160565b03816000865af18091600091611c3d575b5090611c2357503d15611731573d6116f681611223565b6001600160e01b03191663757a42ff60e11b016117595750565b6020813d602011611c78575b81611c56602093836111eb565b81010312610e865751906001600160e01b0319821682036117a8575038611c0c565b3d9150611c49565b6339e3563760e11b600052600060045260246000fd5b611c9f84611890565b600019810191908211611ce457604090611cb76119e5565b89825260205281812083825260205286828220556001611cd56119e5565b01878252602052205538611baf565b634e487b7160e01b81526011600452602490fd5b90808214611ba957611d0984611890565b6001611d136119e5565b01888552602052604084205490611d286119e5565b8386526020526040852091818103611d63575b506001611d466119e5565b018986526020528460408120558452602052826040812055611ba9565b818652826020526040862054818752836020528060408820556001611d866119e5565b01908752602052604086205538611d3b565b611da1886119be565b6003611dab6117b3565b84865201602052604084208054600019019055611ae956fea2646970667358221220a4ce810fb52373cf0be9ee8b071642ab66467b30fd422ec3acae7e245b5a895a64736f6c634300081c0033",
  "linkReferences": {},
  "deployedLinkReferences": {}
}