{
  "_format": "hh-sol-artifact-1",
  "contractName": "LETS_JP_LLC_NON_EXE",
  "sourceName": "contracts/sc/Services/LETS/functions/extensions/LETS_JP_LLC/LETS_JP_LLC_NON_EXE.sol",
  "abi": [
    {
      "inputs": [
        {
          "internalType": "address",
          "name": "account",
          "type": "address"
        },
        {
          "internalType": "bytes32",
          "name": "neededRole",
          "type": "bytes32"
        }
      ],
      "name": "AccessControlUnauthorizedAccount",
      "type": "error"
    },
    {
      "inputs": [],
      "name": "AlreadyInitialized",
      "type": "error"
    },
    {
      "inputs": [
        {
          "internalType": "address",
          "name": "sender",
          "type": "address"
        },
        {
          "internalType": "uint256",
          "name": "tokenId",
          "type": "uint256"
        },
        {
          "internalType": "address",
          "name": "owner",
          "type": "address"
        }
      ],
      "name": "ERC721IncorrectOwner",
      "type": "error"
    },
    {
      "inputs": [
        {
          "internalType": "address",
          "name": "operator",
          "type": "address"
        },
        {
          "internalType": "uint256",
          "name": "tokenId",
          "type": "uint256"
        }
      ],
      "name": "ERC721InsufficientApproval",
      "type": "error"
    },
    {
      "inputs": [
        {
          "internalType": "address",
          "name": "approver",
          "type": "address"
        }
      ],
      "name": "ERC721InvalidApprover",
      "type": "error"
    },
    {
      "inputs": [
        {
          "internalType": "address",
          "name": "operator",
          "type": "address"
        }
      ],
      "name": "ERC721InvalidOperator",
      "type": "error"
    },
    {
      "inputs": [
        {
          "internalType": "address",
          "name": "owner",
          "type": "address"
        }
      ],
      "name": "ERC721InvalidOwner",
      "type": "error"
    },
    {
      "inputs": [
        {
          "internalType": "address",
          "name": "receiver",
          "type": "address"
        }
      ],
      "name": "ERC721InvalidReceiver",
      "type": "error"
    },
    {
      "inputs": [
        {
          "internalType": "address",
          "name": "sender",
          "type": "address"
        }
      ],
      "name": "ERC721InvalidSender",
      "type": "error"
    },
    {
      "inputs": [
        {
          "internalType": "uint256",
          "name": "tokenId",
          "type": "uint256"
        }
      ],
      "name": "ERC721NonexistentToken",
      "type": "error"
    },
    {
      "inputs": [
        {
          "internalType": "address",
          "name": "owner",
          "type": "address"
        },
        {
          "internalType": "uint256",
          "name": "index",
          "type": "uint256"
        }
      ],
      "name": "ERC721OutOfBoundsIndex",
      "type": "error"
    },
    {
      "inputs": [
        {
          "internalType": "bytes32",
          "name": "param",
          "type": "bytes32"
        }
      ],
      "name": "InvalidParam",
      "type": "error"
    },
    {
      "inputs": [
        {
          "internalType": "address",
          "name": "caller",
          "type": "address"
        }
      ],
      "name": "NotGovernance",
      "type": "error"
    },
    {
      "inputs": [
        {
          "internalType": "address",
          "name": "caller",
          "type": "address"
        }
      ],
      "name": "NotLetsSale",
      "type": "error"
    },
    {
      "inputs": [],
      "name": "NotTransferable",
      "type": "error"
    },
    {
      "inputs": [
        {
          "internalType": "address",
          "name": "owner",
          "type": "address"
        }
      ],
      "name": "OwnableInvalidOwner",
      "type": "error"
    },
    {
      "inputs": [
        {
          "internalType": "address",
          "name": "account",
          "type": "address"
        }
      ],
      "name": "OwnableUnauthorizedAccount",
      "type": "error"
    },
    {
      "anonymous": false,
      "inputs": [
        {
          "indexed": true,
          "internalType": "address",
          "name": "owner",
          "type": "address"
        },
        {
          "indexed": true,
          "internalType": "address",
          "name": "approved",
          "type": "address"
        },
        {
          "indexed": true,
          "internalType": "uint256",
          "name": "tokenId",
          "type": "uint256"
        }
      ],
      "name": "Approval",
      "type": "event"
    },
    {
      "anonymous": false,
      "inputs": [
        {
          "indexed": true,
          "internalType": "address",
          "name": "owner",
          "type": "address"
        },
        {
          "indexed": true,
          "internalType": "address",
          "name": "operator",
          "type": "address"
        },
        {
          "indexed": false,
          "internalType": "bool",
          "name": "approved",
          "type": "bool"
        }
      ],
      "name": "ApprovalForAll",
      "type": "event"
    },
    {
      "anonymous": false,
      "inputs": [
        {
          "indexed": false,
          "internalType": "uint256",
          "name": "_fromTokenId",
          "type": "uint256"
        },
        {
          "indexed": false,
          "internalType": "uint256",
          "name": "_toTokenId",
          "type": "uint256"
        }
      ],
      "name": "BatchMetadataUpdate",
      "type": "event"
    },
    {
      "anonymous": false,
      "inputs": [
        {
          "indexed": true,
          "internalType": "address",
          "name": "initializer",
          "type": "address"
        }
      ],
      "name": "LETSBaseInitialized",
      "type": "event"
    },
    {
      "anonymous": false,
      "inputs": [
        {
          "indexed": true,
          "internalType": "address",
          "name": "initializer",
          "type": "address"
        }
      ],
      "name": "LETS_JP_LLC_NON_EXEInitialized",
      "type": "event"
    },
    {
      "anonymous": false,
      "inputs": [
        {
          "indexed": false,
          "internalType": "uint256",
          "name": "_tokenId",
          "type": "uint256"
        }
      ],
      "name": "MetadataUpdate",
      "type": "event"
    },
    {
      "anonymous": false,
      "inputs": [
        {
          "indexed": true,
          "internalType": "address",
          "name": "previousOwner",
          "type": "address"
        },
        {
          "indexed": true,
          "internalType": "address",
          "name": "newOwner",
          "type": "address"
        }
      ],
      "name": "OwnershipTransferred",
      "type": "event"
    },
    {
      "anonymous": false,
      "inputs": [
        {
          "indexed": false,
          "internalType": "uint256",
          "name": "tokenId",
          "type": "uint256"
        }
      ],
      "name": "TokenFrozen",
      "type": "event"
    },
    {
      "anonymous": false,
      "inputs": [
        {
          "indexed": false,
          "internalType": "uint256",
          "name": "tokenId",
          "type": "uint256"
        }
      ],
      "name": "TokenUnfrozen",
      "type": "event"
    },
    {
      "anonymous": false,
      "inputs": [
        {
          "indexed": true,
          "internalType": "address",
          "name": "from",
          "type": "address"
        },
        {
          "indexed": true,
          "internalType": "address",
          "name": "to",
          "type": "address"
        },
        {
          "indexed": true,
          "internalType": "uint256",
          "name": "tokenId",
          "type": "uint256"
        }
      ],
      "name": "Transfer",
      "type": "event"
    },
    {
      "inputs": [
        {
          "internalType": "address",
          "name": "to",
          "type": "address"
        },
        {
          "internalType": "uint256",
          "name": "tokenId",
          "type": "uint256"
        }
      ],
      "name": "approve",
      "outputs": [],
      "stateMutability": "nonpayable",
      "type": "function"
    },
    {
      "inputs": [
        {
          "internalType": "address",
          "name": "owner",
          "type": "address"
        }
      ],
      "name": "balanceOf",
      "outputs": [
        {
          "internalType": "uint256",
          "name": "",
          "type": "uint256"
        }
      ],
      "stateMutability": "view",
      "type": "function"
    },
    {
      "inputs": [
        {
          "internalType": "uint256",
          "name": "tokenId",
          "type": "uint256"
        }
      ],
      "name": "freezeToken",
      "outputs": [],
      "stateMutability": "nonpayable",
      "type": "function"
    },
    {
      "inputs": [
        {
          "internalType": "uint256",
          "name": "tokenId",
          "type": "uint256"
        }
      ],
      "name": "getApproved",
      "outputs": [
        {
          "internalType": "address",
          "name": "",
          "type": "address"
        }
      ],
      "stateMutability": "view",
      "type": "function"
    },
    {
      "inputs": [
        {
          "internalType": "address",
          "name": "owner",
          "type": "address"
        }
      ],
      "name": "getTokensOfOwner",
      "outputs": [
        {
          "internalType": "uint256[]",
          "name": "",
          "type": "uint256[]"
        }
      ],
      "stateMutability": "view",
      "type": "function"
    },
    {
      "inputs": [
        {
          "internalType": "uint256",
          "name": "tokenId",
          "type": "uint256"
        }
      ],
      "name": "getUpdatedToken",
      "outputs": [
        {
          "internalType": "uint256",
          "name": "",
          "type": "uint256"
        }
      ],
      "stateMutability": "view",
      "type": "function"
    },
    {
      "inputs": [
        {
          "internalType": "address",
          "name": "dictionary",
          "type": "address"
        },
        {
          "internalType": "address",
          "name": "implementation",
          "type": "address"
        },
        {
          "internalType": "address",
          "name": "sc",
          "type": "address"
        },
        {
          "internalType": "bytes",
          "name": "params",
          "type": "bytes"
        }
      ],
      "name": "initialize",
      "outputs": [
        {
          "internalType": "bytes4[]",
          "name": "selectors",
          "type": "bytes4[]"
        }
      ],
      "stateMutability": "nonpayable",
      "type": "function"
    },
    {
      "inputs": [
        {
          "internalType": "address",
          "name": "owner_",
          "type": "address"
        }
      ],
      "name": "initialize",
      "outputs": [],
      "stateMutability": "nonpayable",
      "type": "function"
    },
    {
      "inputs": [
        {
          "internalType": "address",
          "name": "owner",
          "type": "address"
        },
        {
          "internalType": "address",
          "name": "operator",
          "type": "address"
        }
      ],
      "name": "isApprovedForAll",
      "outputs": [
        {
          "internalType": "bool",
          "name": "",
          "type": "bool"
        }
      ],
      "stateMutability": "view",
      "type": "function"
    },
    {
      "inputs": [
        {
          "internalType": "address",
          "name": "to",
          "type": "address"
        }
      ],
      "name": "mint",
      "outputs": [],
      "stateMutability": "nonpayable",
      "type": "function"
    },
    {
      "inputs": [],
      "name": "name",
      "outputs": [
        {
          "internalType": "string",
          "name": "",
          "type": "string"
        }
      ],
      "stateMutability": "view",
      "type": "function"
    },
    {
      "inputs": [],
      "name": "owner",
      "outputs": [
        {
          "internalType": "address",
          "name": "",
          "type": "address"
        }
      ],
      "stateMutability": "view",
      "type": "function"
    },
    {
      "inputs": [
        {
          "internalType": "uint256",
          "name": "tokenId",
          "type": "uint256"
        }
      ],
      "name": "ownerOf",
      "outputs": [
        {
          "internalType": "address",
          "name": "",
          "type": "address"
        }
      ],
      "stateMutability": "view",
      "type": "function"
    },
    {
      "inputs": [],
      "name": "renounceOwnership",
      "outputs": [],
      "stateMutability": "nonpayable",
      "type": "function"
    },
    {
      "inputs": [
        {
          "internalType": "address",
          "name": "from",
          "type": "address"
        },
        {
          "internalType": "address",
          "name": "to",
          "type": "address"
        },
        {
          "internalType": "uint256",
          "name": "tokenId",
          "type": "uint256"
        }
      ],
      "name": "safeTransferFrom",
      "outputs": [],
      "stateMutability": "nonpayable",
      "type": "function"
    },
    {
      "inputs": [
        {
          "internalType": "address",
          "name": "from",
          "type": "address"
        },
        {
          "internalType": "address",
          "name": "to",
          "type": "address"
        },
        {
          "internalType": "uint256",
          "name": "tokenId",
          "type": "uint256"
        },
        {
          "internalType": "bytes",
          "name": "data",
          "type": "bytes"
        }
      ],
      "name": "safeTransferFrom",
      "outputs": [],
      "stateMutability": "nonpayable",
      "type": "function"
    },
    {
      "inputs": [
        {
          "internalType": "address",
          "name": "operator",
          "type": "address"
        },
        {
          "internalType": "bool",
          "name": "approved",
          "type": "bool"
        }
      ],
      "name": "setApprovalForAll",
      "outputs": [],
      "stateMutability": "nonpayable",
      "type": "function"
    },
    {
      "inputs": [
        {
          "internalType": "bytes4",
          "name": "interfaceId",
          "type": "bytes4"
        }
      ],
      "name": "supportsInterface",
      "outputs": [
        {
          "internalType": "bool",
          "name": "",
          "type": "bool"
        }
      ],
      "stateMutability": "pure",
      "type": "function"
    },
    {
      "inputs": [],
      "name": "symbol",
      "outputs": [
        {
          "internalType": "string",
          "name": "",
          "type": "string"
        }
      ],
      "stateMutability": "view",
      "type": "function"
    },
    {
      "inputs": [
        {
          "internalType": "uint256",
          "name": "index",
          "type": "uint256"
        }
      ],
      "name": "tokenByIndex",
      "outputs": [
        {
          "internalType": "uint256",
          "name": "",
          "type": "uint256"
        }
      ],
      "stateMutability": "view",
      "type": "function"
    },
    {
      "inputs": [
        {
          "internalType": "address",
          "name": "owner",
          "type": "address"
        },
        {
          "internalType": "uint256",
          "name": "index",
          "type": "uint256"
        }
      ],
      "name": "tokenOfOwnerByIndex",
      "outputs": [
        {
          "internalType": "uint256",
          "name": "",
          "type": "uint256"
        }
      ],
      "stateMutability": "view",
      "type": "function"
    },
    {
      "inputs": [
        {
          "internalType": "uint256",
          "name": "tokenId",
          "type": "uint256"
        }
      ],
      "name": "tokenURI",
      "outputs": [
        {
          "internalType": "string",
          "name": "",
          "type": "string"
        }
      ],
      "stateMutability": "view",
      "type": "function"
    },
    {
      "inputs": [],
      "name": "totalSupply",
      "outputs": [
        {
          "internalType": "uint256",
          "name": "",
          "type": "uint256"
        }
      ],
      "stateMutability": "view",
      "type": "function"
    },
    {
      "inputs": [
        {
          "internalType": "address",
          "name": "from",
          "type": "address"
        },
        {
          "internalType": "address",
          "name": "to",
          "type": "address"
        },
        {
          "internalType": "uint256",
          "name": "tokenId",
          "type": "uint256"
        }
      ],
      "name": "transferFrom",
      "outputs": [],
      "stateMutability": "nonpayable",
      "type": "function"
    },
    {
      "inputs": [
        {
          "internalType": "address",
          "name": "newOwner",
          "type": "address"
        }
      ],
      "name": "transferOwnership",
      "outputs": [],
      "stateMutability": "nonpayable",
      "type": "function"
    },
    {
      "inputs": [
        {
          "internalType": "uint256",
          "name": "tokenId",
          "type": "uint256"
        }
      ],
      "name": "unfreezeToken",
      "outputs": [],
      "stateMutability": "nonpayable",
      "type": "function"
    }
  ],
  "bytecode": "0x608080604052346015576122f3908161001b8239f35b600080fdfe608080604052600436101561001357600080fd5b600090813560e01c90816301ffc9a7146118185750806306fdde03146117f4578063081812fc146117cb578063095ea7b3146116f357806318160ddd146116cc57806323b872dd146116b4578063246581f714610c925780632f745c5914610c6a57806342842e0e14610c405780634d787ea914610be35780634f6ccce714610b7f5780635de6dc5514610ac05780636352211e14610a8f5780636a6278421461053157806370a0823114610505578063715018a61461049c5780638da5cb5b1461046f57806395d89b411461044857806397294fea14610415578063a22cb4651461035e578063b6854f96146102fe578063b88d4fde14610297578063c4d66de814610246578063c87b56dd1461020e578063e985e9c5146101d75763f2fde38b1461013f57600080fd5b346101d45760203660031901126101d4576101586118dc565b6101606120c5565b6001600160a01b031680156101c0576001600160a01b0361017f612044565b5416610189612044565b80546001600160a01b031916831790557f8be0079c531659141344cd1fd0a4f28419497f9722a3daafe3b4186f6b6457e08380a380f35b631e4fbdf760e01b82526004829052602482fd5b80fd5b50346101d45760403660031901126101d45760206102046101f66118dc565b6101fe6118f7565b90612167565b6040519015158152f35b50346101d45760203660031901126101d45761024261022e6004356120f4565b60405191829160208352602083019061189d565b0390f35b50346101d45760203660031901126101d4576102606118dc565b6001600160a01b038116156101c057610277612044565b80546001600160a01b0319166001600160a01b0390921691909117905580f35b50346101d45760803660031901126101d4576102b16118dc565b6102b96118f7565b606435916001600160401b0383116102fa57366023840112156102fa576102ed6102f79336906024816004013591016119d7565b9160443591611e0b565b80f35b8380fd5b50346101d45760203660031901126101d4577f74308730007d8ee5b3c18fad784efa3555f62695e36960f803f475eeb663d10e60206004356004610340612044565b8286520182526040808520805460ff1916600117905551908152a180f35b50346101d45760403660031901126101d4576103786118dc565b60243590811515809203610411576001600160a01b03169081156103fd5760056103a0611f52565b0160018060a01b033316600052602052604060002082600052602052604060002060ff1981541660ff83161790556040519081527f17307eab39ab6107e8899845ad3d59bd9653f200f220920489ca2b5937696c3160203392a380f35b630b61174360e31b83526004829052602483fd5b8280fd5b50346101d45760203660031901126101d45760406020916005610436612044565b01600435825283522054604051908152f35b50346101d457806003193601126101d45761024261022e6001610469611f52565b01611a48565b50346101d457806003193601126101d45760206001600160a01b03610492612044565b5416604051908152f35b50346101d457806003193601126101d4576104b56120c5565b806001600160a01b036104c6612044565b54166104d0612044565b80546001600160a01b03191690557f8be0079c531659141344cd1fd0a4f28419497f9722a3daafe3b4186f6b6457e08280a380f35b50346101d45760203660031901126101d45760206105296105246118dc565b61207d565b604051908152f35b50346101d45760203660031901126101d45761054b6118dc565b90600460206001600160a01b03610560612044565b541660405192838092631ba82e6360e31b82525afa908115610a41578291610a4c575b50604051632474521560e21b81527f9f2df0fed2c77648de5860a4cc508cd0818c85b8b8a1ab4ceeef8d981c8956a6600482015233602482015290602090829060449082906001600160a01b03165afa908115610a41578291610a02575b50156109cb5760016105f1612044565b0191825460001981146109b757600101809355602092604051906106158583611985565b8382526001600160a01b0383169283156109a357610632826121a1565b6001600160a01b03811680158015929190879084610977575b6003610655611f52565b01826000528b526040600020600181540190556002610672611f52565b888c52018b5260408a2080546001600160a01b031916831790558682847fddf252ad1be2c89b69c2b068fc378daa952ba7f163c4a11628f55a4df523b3ef8d80a4156108d4575060026106c36121d2565b015460036106cf6121d2565b01868a528a52604089205560026106e46121d2565b01805490600160401b8210156108c0578661070a836107239360018d979601815561202c565b90919082549060031b91821b91600019901b1916179055565b0361085f575b5061084b573b610737578380f35b6107719185916040519384928392630a85bd0160e11b8452336004850152886024850152604484015260806064840152608483019061189d565b038186865af183918161080b575b506107d557503d156107ce573d610795816119bc565b906107a36040519283611985565b81523d838583013e5b805193846107c857633250574960e11b84526004839052602484fd5b84925001fd5b60606107ac565b919250906001600160e01b03191663757a42ff60e11b016107f95750803880808380f35b633250574960e11b8252600452602490fd5b9091508481813d8311610844575b6108238183611985565b810103126102fa57516001600160e01b0319811681036102fa57903861077f565b503d610819565b6339e3563760e11b85526004859052602485fd5b6108688361207d565b60001981019081116108ac5761087c6121d2565b87600052895260406000208189528952846040892055600161089c6121d2565b0185895289526040882055610729565b634e487b7160e01b88526011600452602488fd5b634e487b7160e01b8a52604160045260248afd5b90808214610723576108e58361207d565b60016108ef6121d2565b01878b528b5260408a20549060408c6109066121d2565b600091868352522091828d8d848403610943575b5050505060016109286121d2565b01888c528c528a60408120558a528a52886040812055610723565b8085604092528383528181205493849386835252205560016109636121d2565b01908d528d5260408c205538828d8d61091a565b610980876121ab565b600361098a611f52565b01836000528b526040600020600019815401905561064b565b633250574960e11b85526004859052602485fd5b634e487b7160e01b83526011600452602483fd5b63e2517d3f60e01b8152336004527f9f2df0fed2c77648de5860a4cc508cd0818c85b8b8a1ab4ceeef8d981c8956a6602452604490fd5b90506020813d602011610a39575b81610a1d60209383611985565b81010312610a3557518015158103610a3557386105e1565b5080fd5b3d9150610a10565b6040513d84823e3d90fd5b90506020813d602011610a87575b81610a6760209383611985565b81010312610a3557516001600160a01b0381168103610a35576020610583565b3d9150610a5a565b50346101d45760203660031901126101d4576020610aae600435611f96565b6040516001600160a01b039091168152f35b50346101d45760203660031901126101d457610ada6118dc565b610ae38161207d565b610aec81611feb565b90610afa6040519283611985565b808252610b0681611feb565b602083019390601f1901368537845b828110610b615750505090604051928392602084019060208552518091526040840192915b818110610b48575050500390f35b8251845285945060209384019390920191600101610b3a565b80610b6e60019284612262565b610b788287612002565b5201610b15565b50346101d45760203660031901126101d457600435906002610b9f6121d2565b0154821015610bcd576020610bbe836002610bb86121d2565b0161202c565b90549060031b1c604051908152f35b60449163295f44f760e21b825281600452602452fd5b50346101d45760203660031901126101d4577fdad54db74d8c1152c7cb496a900d181b8e9b69b70e55db2362bd100897a4f7a160206004356004610c25612044565b8286520182526040808520805460ff1916905551908152a180f35b50346101d4576102f7610c523661190d565b9060405192610c62602085611985565b858452611e0b565b50346101d45760403660031901126101d4576020610529610c896118dc565b60243590612262565b50346101d45760803660031901126101d457610cac6118dc565b610cb46118f7565b6044356001600160a01b03811681036102fa57606435906001600160401b0382116116b057366023830112156116b0578160040135906001600160401b0382116116ac578183019060248201913683116116a457608090859003126116a8576024840135936001600160401b0385116116a457610d368360248784010161220b565b9360448201356001600160401b0381116116a057846024610d599285010161220b565b9160648101356001600160401b03811161169c57856024610d7c9284010161220b565b946084820135916001600160401b03831161169857610d9e920160240161220b565b9585511515908161168d575b81611682575b81611677575b809260208110611660575b50501561164e5750610dd1611f52565b610dd9612044565b948051906001600160401b03821161163a57610df58354611a0e565b601f81116115f5575b50602090601f831160011461158f5760019392918c9183611584575b5050600019600383901b1c191690831b1781555b01908051906001600160401b0382116108c0578190610e4d8454611a0e565b601f8111611534575b50602090601f83116001146114d1578b926114c6575b50508160011b916000199060031b1c19161790555b82546001600160a01b0319166001600160a01b0391909116178255805160028301916001600160401b0382116114b257610ebb8354611a0e565b601f811161146d575b50602090601f8311600114611407576003949392918991836113fc575b50508160011b9160001990861b1c19161790555b01908051906001600160401b0382116113e8578190610f148454611a0e565b601f8111611398575b50602090601f831160011461133557879261132a575b50508160011b916000199060031b1c19161790555b60ff610f52612229565b541661131c57604051926102e0610f698186611985565b601685526020850190601f190136823784511561130857634b94a7f560e11b90528351600110156112f45763c87b56dd60e01b60408501528351600210156112f4576318160ddd60e01b60608501528351600310156112f4576301ffc9a760e01b60808501528351600410156112f4576370a0823160e01b60a08501528351600510156112f4576331a9108f60e11b60c08501528351600610156112f45763095ea7b360e01b60e08501528351600710156112f45763020604bf60e21b6101008501528351600810156112f45763a22cb46560e01b6101208501528351600910156112f45763e985e9c560e01b6101408501528351600a10156112f4576323b872dd60e01b6101608501528351600b10156112f457632142170760e11b6101808501528351600c10156112f457635c46a7ef60e11b6101a08501528351600d10156112f4576306fdde0360e01b6101c08501528351600e10156112f4576395d89b4160e01b6101e08501528351600f10156112f457634f6ccce760e01b6102008501528351601010156112f457632f745c5960e01b6102208501528351601110156112f457635de6dc5560e01b6102408501528351601210156112f4576335313c2160e11b6102608501528351601310156112f457635b42a7cb60e11b6102808501528351601410156112f457634d787ea960e01b6102a08501528351601510156112f457634b94a7f560e11b6102c0850152337f171a7dc80b6dc11005bc264b86aca451619865e5e8dad90855002dd8814b33628280a260ff6111ab612229565b54166112e657835191600283018093116112d2576111c883611feb565b926111d66040519485611985565b8084526111e5601f1991611feb565b01366020850137815b8551811015611220576001906001600160e01b031961120d8289612002565b51166112198287612002565b52016111ee565b50909290916001600160a01b0390911690813b156102fa57839161126391836040518096819582946323c45f6760e01b8452604060048501526044840190611947565b6001600160a01b03909116602483015203925af18015610a415782906112c2575b50506102426040519283927f6620a457773671eb18e81617c051212b22210907655af4934f9e4915ceb5e2dd339180a2602083526020830190611947565b6112cb91611985565b3881611284565b634e487b7160e01b82526011600452602482fd5b62dc149f60e41b8152600490fd5b634e487b7160e01b81526032600452602490fd5b634e487b7160e01b82526032600452602482fd5b62dc149f60e41b8352600483fd5b015190503880610f33565b8488528188209250601f198416885b8181106113805750908460019594939210611367575b505050811b019055610f48565b015160001960f88460031b161c1916905538808061135a565b92936020600181928786015181550195019301611344565b90915083875260208720601f840160051c810191602085106113de575b90601f859493920160051c01905b8181106113d05750610f1d565b8881558493506001016113c3565b90915081906113b5565b634e487b7160e01b86526041600452602486fd5b015190503880610ee1565b8389528189209190601f1984168a5b81811061145557509160019391856003989796941061143d575b505050811b019055610ef5565b015160001983881b60f8161c19169055388080611430565b92936020600181928786015181550195019301611416565b83895260208920601f840160051c810191602085106114a8575b601f0160051c01905b81811061149d5750610ec4565b898155600101611490565b9091508190611487565b634e487b7160e01b88526041600452602488fd5b015190503880610e6c565b848c52818c209250601f1984168c5b81811061151c5750908460019594939210611503575b505050811b019055610e81565b015160001960f88460031b161c191690553880806114f6565b929360206001819287860151815501950193016114e0565b909150838b5260208b20601f840160051c8101916020851061157a575b90601f859493920160051c01905b81811061156c5750610e56565b8c815584935060010161155f565b9091508190611551565b015190503880610e1a565b838c52818c209190601f1984168d5b8181106115dd57509160019594929183879593106115c4575b505050811b018155610e2e565b015160001960f88460031b161c191690553880806115b7565b9293602060018192878601518155019501930161159e565b838c5260208c20601f840160051c81019160208510611630575b601f0160051c01905b8181106116255750610dfe565b8c8155600101611618565b909150819061160f565b634e487b7160e01b8b52604160045260248bfd5b6308d49be960e31b8952600452602488fd5b60001960209190910360031b1b1691503880610dc1565b875115159150610db6565b855115159150610db0565b835115159150610daa565b8b80fd5b8a80fd5b8980fd5b8780fd5b8680fd5b8580fd5b8480fd5b50346101d4576102f76116c63661190d565b91611aec565b50346101d457806003193601126101d457602060026116e96121d2565b0154604051908152f35b50346101d45760403660031901126101d45761170d6118dc565b60243561171981611f96565b331515806117b8575b806117a7575b6117945781906001600160a01b0384811691167f8c5be1e5ebec7d5bd14f71427d1e84f3dd0314c0f7b2291e5b200ac8c7c3b9258680a46004611769611f52565b918452016020526040822080546001600160a01b0319166001600160a01b0390921691909117905580f35b63a9fbf51f60e01b845233600452602484fd5b506117b23382612167565b15611728565b506001600160a01b038116331415611722565b50346101d45760203660031901126101d4576020610aae6004356117ee81611f96565b50611fc7565b50346101d457806003193601126101d45761024261022e611813611f52565b611a48565b905034610a35576020366003190112610a355760043563ffffffff60e01b811680910361041157602092506380ac58cd60e01b811490811561188c575b811561187b575b811561186a575b5015158152f35b632483248360e11b14905038611863565b63780e9d6360e01b8114915061185c565b635b5e139f60e01b81149150611855565b919082518082526020808301940160005b8281106118cc575050600081602094950152601f8019910116010190565b81810151868201526020016118ae565b600435906001600160a01b03821682036118f257565b600080fd5b602435906001600160a01b03821682036118f257565b60609060031901126118f2576004356001600160a01b03811681036118f257906024356001600160a01b03811681036118f2579060443590565b906020808351928381520192019060005b8181106119655750505090565b82516001600160e01b031916845260209384019390920191600101611958565b90601f801991011681019081106001600160401b038211176119a657604052565b634e487b7160e01b600052604160045260246000fd5b6001600160401b0381116119a657601f01601f191660200190565b9291926119e3826119bc565b916119f16040519384611985565b8294818452818301116118f2578281602093846000960137010152565b90600182811c92168015611a3e575b6020831014611a2857565b634e487b7160e01b600052602260045260246000fd5b91607f1691611a1d565b9060405191826000825492611a5c84611a0e565b8084529360018116908115611aca5750600114611a83575b50611a8192500383611985565b565b90506000929192526020600020906000915b818310611aae575050906020611a819282010138611a74565b6020919350806001915483858901015201910190918492611a95565b905060209250611a8194915060ff191682840152151560051b82010138611a74565b9091906001600160a01b0383168015611df5576005611b09612044565b018360005260205242604060002055600090611b24846121a1565b9133151580611d69575b506001600160a01b0383169586158015611d3e575b6003611b4d611f52565b0184845260205260408320600181540190556002611b69611f52565b888552016020526040832080546001600160a01b031916851790558684897fddf252ad1be2c89b69c2b068fc378daa952ba7f163c4a11628f55a4df523b3ef8680a415611c9f576002611bba6121d2565b01546003611bc66121d2565b0187845260205260408320556002611bdc6121d2565b01805490600160401b821015611c8b5761070a8289926001611c009501815561202c565b828703611c3a575b5050505060018060a01b0316808303611c2057505050565b6364283d7b60e01b60005260045260245260445260646000fd5b611c439061207d565b6000198101929083116112d25790604091611c5c6121d2565b90825260205281812083825260205285828220556001611c7a6121d2565b018682526020522055388080611c08565b634e487b7160e01b84526041600452602484fd5b868314611c0057611caf8461207d565b6001611cb96121d2565b01878452602052604083205490611cce6121d2565b8985526020526040842091818103611d09575b506001611cec6121d2565b018885526020528360408120558352602052816040812055611c00565b818552826020526040852054818652836020528060408720556001611d2c6121d2565b01908652602052604085205538611ce1565b611d47876121ab565b6003611d51611f52565b89855201602052604083208054600019019055611b43565b80611db2575b15611d7a5738611b2e565b9250506001600160a01b0316611d9c57602491637e27328960e01b8252600452fd5b60449163177e802f60e01b825233600452602452fd5b506001600160a01b03831633148015611de5575b80611d6f5750336001600160a01b03611dde87611fc7565b1614611d6f565b50611df03384612167565b611dc6565b633250574960e11b600052600060045260246000fd5b9291611e18818386611aec565b813b611e25575b50505050565b604051630a85bd0160e11b81523360048201526001600160a01b0394851660248201526044810191909152608060648201529216919060209082908190611e7090608483019061189d565b03816000865af18091600091611f0f575b5090611eda57503d15611ed3573d611e98816119bc565b90611ea66040519283611985565b81523d6000602083013e5b80519081611ece5782633250574960e11b60005260045260246000fd5b602001fd5b6060611eb1565b6001600160e01b03191663757a42ff60e11b01611efb575038808080611e1f565b633250574960e11b60005260045260246000fd5b6020813d602011611f4a575b81611f2860209383611985565b81010312610a355751906001600160e01b0319821682036101d4575038611e81565b3d9150611f1b565b604051602081017fb7b8777dfce3c027b9b4ab96baa886d0c5d5e8c8632429d2b4be0ba869cd905f815260208252611f8b604083611985565b9051902060ff191690565b611f9f816121a1565b906001600160a01b03821615611fb3575090565b637e27328960e01b60005260045260246000fd5b6004611fd1611f52565b60009283520160205260409020546001600160a01b031690565b6001600160401b0381116119a65760051b60200190565b80518210156120165760209160051b010190565b634e487b7160e01b600052603260045260246000fd5b80548210156120165760005260206000200190600090565b604051602081017f0cee7785c9739c2abcb4ce591dada6e864d6d906251746912d12a62bb828bf68815260208252611f8b604083611985565b6001600160a01b038116156120af576003612096611f52565b019060018060a01b031660005260205260406000205490565b6322718ad960e21b600052600060045260246000fd5b6001600160a01b036120d5612044565b541633036120df57565b63118cdaa760e01b6000523360045260246000fd5b6120fd81611f96565b50604051602081017f83126a7e0b3d5a7bd433798795b790de3287f4b1cb3d1042e8a9e2a4e5391b40815260208252612137604083611985565b60ff199151902016906000526020526121536040600020611a48565b6000604051612163602082611985565b5290565b6005612171611f52565b019060018060a01b031660005260205260406000209060018060a01b031660005260205260ff6040600020541690565b6002611fd1611f52565b60046121b5611f52565b6000928352016020526040902080546001600160a01b0319169055565b604051602081017f2070bae6b675801f0932481e70ab724699e22000dcf2efe36a44b6070d9ee8f1815260208252611f8b604083611985565b9080601f830112156118f257816020612226933591016119d7565b90565b604051602081017ff158cb8b47a14bda3b2c4affcc0d960e9ed23f5a516e4779510b08a6e823c025815260208252611f8b604083611985565b61226b8161207d565b82101561229e5761227a6121d2565b9060018060a01b031660005260205260406000209060005260205260406000205490565b63295f44f760e21b60005260018060a01b031660045260245260446000fdfea2646970667358221220388cbc3f7fed4bb026f3e7ccb98dc1f160ab1bebcf5249c55a44fe3214b7fe3164736f6c634300081c0033",
  "linkReferences": {},
  "deployedLinkReferences": {}
}