{
  "_format": "hh-sol-artifact-1",
  "contractName": "LETS_JP_LLC_EXE",
  "sourceName": "contracts/sc/Services/LETS/functions/extensions/LETS_JP_LLC/LETS_JP_LLC_EXE.sol",
  "abi": [
    {
      "inputs": [
        {
          "internalType": "address",
          "name": "account",
          "type": "address"
        },
        {
          "internalType": "bytes32",
          "name": "neededRole",
          "type": "bytes32"
        }
      ],
      "name": "AccessControlUnauthorizedAccount",
      "type": "error"
    },
    {
      "inputs": [],
      "name": "AlreadyInitialized",
      "type": "error"
    },
    {
      "inputs": [
        {
          "internalType": "address",
          "name": "sender",
          "type": "address"
        },
        {
          "internalType": "uint256",
          "name": "tokenId",
          "type": "uint256"
        },
        {
          "internalType": "address",
          "name": "owner",
          "type": "address"
        }
      ],
      "name": "ERC721IncorrectOwner",
      "type": "error"
    },
    {
      "inputs": [
        {
          "internalType": "address",
          "name": "operator",
          "type": "address"
        },
        {
          "internalType": "uint256",
          "name": "tokenId",
          "type": "uint256"
        }
      ],
      "name": "ERC721InsufficientApproval",
      "type": "error"
    },
    {
      "inputs": [
        {
          "internalType": "address",
          "name": "approver",
          "type": "address"
        }
      ],
      "name": "ERC721InvalidApprover",
      "type": "error"
    },
    {
      "inputs": [
        {
          "internalType": "address",
          "name": "operator",
          "type": "address"
        }
      ],
      "name": "ERC721InvalidOperator",
      "type": "error"
    },
    {
      "inputs": [
        {
          "internalType": "address",
          "name": "owner",
          "type": "address"
        }
      ],
      "name": "ERC721InvalidOwner",
      "type": "error"
    },
    {
      "inputs": [
        {
          "internalType": "address",
          "name": "receiver",
          "type": "address"
        }
      ],
      "name": "ERC721InvalidReceiver",
      "type": "error"
    },
    {
      "inputs": [
        {
          "internalType": "address",
          "name": "sender",
          "type": "address"
        }
      ],
      "name": "ERC721InvalidSender",
      "type": "error"
    },
    {
      "inputs": [
        {
          "internalType": "uint256",
          "name": "tokenId",
          "type": "uint256"
        }
      ],
      "name": "ERC721NonexistentToken",
      "type": "error"
    },
    {
      "inputs": [
        {
          "internalType": "address",
          "name": "owner",
          "type": "address"
        },
        {
          "internalType": "uint256",
          "name": "index",
          "type": "uint256"
        }
      ],
      "name": "ERC721OutOfBoundsIndex",
      "type": "error"
    },
    {
      "inputs": [
        {
          "internalType": "bytes32",
          "name": "param",
          "type": "bytes32"
        }
      ],
      "name": "InvalidParam",
      "type": "error"
    },
    {
      "inputs": [],
      "name": "MaxSupplyReached",
      "type": "error"
    },
    {
      "inputs": [
        {
          "internalType": "address",
          "name": "sender",
          "type": "address"
        }
      ],
      "name": "NotFounder",
      "type": "error"
    },
    {
      "inputs": [
        {
          "internalType": "address",
          "name": "caller",
          "type": "address"
        }
      ],
      "name": "NotGovernance",
      "type": "error"
    },
    {
      "inputs": [
        {
          "internalType": "address",
          "name": "caller",
          "type": "address"
        }
      ],
      "name": "NotLetsSale",
      "type": "error"
    },
    {
      "inputs": [],
      "name": "NotTransferable",
      "type": "error"
    },
    {
      "inputs": [
        {
          "internalType": "address",
          "name": "owner",
          "type": "address"
        }
      ],
      "name": "OwnableInvalidOwner",
      "type": "error"
    },
    {
      "inputs": [
        {
          "internalType": "address",
          "name": "account",
          "type": "address"
        }
      ],
      "name": "OwnableUnauthorizedAccount",
      "type": "error"
    },
    {
      "anonymous": false,
      "inputs": [
        {
          "indexed": true,
          "internalType": "address",
          "name": "owner",
          "type": "address"
        },
        {
          "indexed": true,
          "internalType": "address",
          "name": "approved",
          "type": "address"
        },
        {
          "indexed": true,
          "internalType": "uint256",
          "name": "tokenId",
          "type": "uint256"
        }
      ],
      "name": "Approval",
      "type": "event"
    },
    {
      "anonymous": false,
      "inputs": [
        {
          "indexed": true,
          "internalType": "address",
          "name": "owner",
          "type": "address"
        },
        {
          "indexed": true,
          "internalType": "address",
          "name": "operator",
          "type": "address"
        },
        {
          "indexed": false,
          "internalType": "bool",
          "name": "approved",
          "type": "bool"
        }
      ],
      "name": "ApprovalForAll",
      "type": "event"
    },
    {
      "anonymous": false,
      "inputs": [
        {
          "indexed": false,
          "internalType": "uint256",
          "name": "_fromTokenId",
          "type": "uint256"
        },
        {
          "indexed": false,
          "internalType": "uint256",
          "name": "_toTokenId",
          "type": "uint256"
        }
      ],
      "name": "BatchMetadataUpdate",
      "type": "event"
    },
    {
      "anonymous": false,
      "inputs": [
        {
          "indexed": true,
          "internalType": "address",
          "name": "scr",
          "type": "address"
        },
        {
          "indexed": false,
          "internalType": "address[]",
          "name": "tos",
          "type": "address[]"
        }
      ],
      "name": "InitialMint",
      "type": "event"
    },
    {
      "anonymous": false,
      "inputs": [
        {
          "indexed": true,
          "internalType": "address",
          "name": "initializer",
          "type": "address"
        }
      ],
      "name": "LETSBaseInitialized",
      "type": "event"
    },
    {
      "anonymous": false,
      "inputs": [
        {
          "indexed": true,
          "internalType": "address",
          "name": "initializer",
          "type": "address"
        }
      ],
      "name": "LETS_JP_LLC_EXEInitialized",
      "type": "event"
    },
    {
      "anonymous": false,
      "inputs": [
        {
          "indexed": false,
          "internalType": "uint256",
          "name": "_tokenId",
          "type": "uint256"
        }
      ],
      "name": "MetadataUpdate",
      "type": "event"
    },
    {
      "anonymous": false,
      "inputs": [
        {
          "indexed": true,
          "internalType": "address",
          "name": "previousOwner",
          "type": "address"
        },
        {
          "indexed": true,
          "internalType": "address",
          "name": "newOwner",
          "type": "address"
        }
      ],
      "name": "OwnershipTransferred",
      "type": "event"
    },
    {
      "anonymous": false,
      "inputs": [
        {
          "indexed": false,
          "internalType": "uint256",
          "name": "tokenId",
          "type": "uint256"
        }
      ],
      "name": "TokenFrozen",
      "type": "event"
    },
    {
      "anonymous": false,
      "inputs": [
        {
          "indexed": false,
          "internalType": "uint256",
          "name": "tokenId",
          "type": "uint256"
        }
      ],
      "name": "TokenUnfrozen",
      "type": "event"
    },
    {
      "anonymous": false,
      "inputs": [
        {
          "indexed": true,
          "internalType": "address",
          "name": "from",
          "type": "address"
        },
        {
          "indexed": true,
          "internalType": "address",
          "name": "to",
          "type": "address"
        },
        {
          "indexed": true,
          "internalType": "uint256",
          "name": "tokenId",
          "type": "uint256"
        }
      ],
      "name": "Transfer",
      "type": "event"
    },
    {
      "inputs": [
        {
          "internalType": "address",
          "name": "to",
          "type": "address"
        },
        {
          "internalType": "uint256",
          "name": "tokenId",
          "type": "uint256"
        }
      ],
      "name": "approve",
      "outputs": [],
      "stateMutability": "nonpayable",
      "type": "function"
    },
    {
      "inputs": [
        {
          "internalType": "address",
          "name": "owner",
          "type": "address"
        }
      ],
      "name": "balanceOf",
      "outputs": [
        {
          "internalType": "uint256",
          "name": "",
          "type": "uint256"
        }
      ],
      "stateMutability": "view",
      "type": "function"
    },
    {
      "inputs": [
        {
          "internalType": "uint256",
          "name": "tokenId",
          "type": "uint256"
        }
      ],
      "name": "freezeToken",
      "outputs": [],
      "stateMutability": "nonpayable",
      "type": "function"
    },
    {
      "inputs": [
        {
          "internalType": "uint256",
          "name": "tokenId",
          "type": "uint256"
        }
      ],
      "name": "getApproved",
      "outputs": [
        {
          "internalType": "address",
          "name": "",
          "type": "address"
        }
      ],
      "stateMutability": "view",
      "type": "function"
    },
    {
      "inputs": [],
      "name": "getInitialMintExecuteMemberCompleted",
      "outputs": [
        {
          "internalType": "bool",
          "name": "initialMintExecuteMemberCompleted",
          "type": "bool"
        }
      ],
      "stateMutability": "view",
      "type": "function"
    },
    {
      "inputs": [
        {
          "internalType": "address",
          "name": "owner",
          "type": "address"
        }
      ],
      "name": "getTokensOfOwner",
      "outputs": [
        {
          "internalType": "uint256[]",
          "name": "",
          "type": "uint256[]"
        }
      ],
      "stateMutability": "view",
      "type": "function"
    },
    {
      "inputs": [
        {
          "internalType": "uint256",
          "name": "tokenId",
          "type": "uint256"
        }
      ],
      "name": "getUpdatedToken",
      "outputs": [
        {
          "internalType": "uint256",
          "name": "",
          "type": "uint256"
        }
      ],
      "stateMutability": "view",
      "type": "function"
    },
    {
      "inputs": [
        {
          "internalType": "address[]",
          "name": "tos",
          "type": "address[]"
        }
      ],
      "name": "initialMint",
      "outputs": [],
      "stateMutability": "nonpayable",
      "type": "function"
    },
    {
      "inputs": [
        {
          "internalType": "address",
          "name": "dictionary",
          "type": "address"
        },
        {
          "internalType": "address",
          "name": "implementation",
          "type": "address"
        },
        {
          "internalType": "address",
          "name": "sc",
          "type": "address"
        },
        {
          "internalType": "bytes",
          "name": "params",
          "type": "bytes"
        }
      ],
      "name": "initialize",
      "outputs": [
        {
          "internalType": "bytes4[]",
          "name": "selectors",
          "type": "bytes4[]"
        }
      ],
      "stateMutability": "nonpayable",
      "type": "function"
    },
    {
      "inputs": [
        {
          "internalType": "address",
          "name": "owner_",
          "type": "address"
        }
      ],
      "name": "initialize",
      "outputs": [],
      "stateMutability": "nonpayable",
      "type": "function"
    },
    {
      "inputs": [
        {
          "internalType": "address",
          "name": "owner",
          "type": "address"
        },
        {
          "internalType": "address",
          "name": "operator",
          "type": "address"
        }
      ],
      "name": "isApprovedForAll",
      "outputs": [
        {
          "internalType": "bool",
          "name": "",
          "type": "bool"
        }
      ],
      "stateMutability": "view",
      "type": "function"
    },
    {
      "inputs": [
        {
          "internalType": "address",
          "name": "to",
          "type": "address"
        }
      ],
      "name": "mint",
      "outputs": [],
      "stateMutability": "nonpayable",
      "type": "function"
    },
    {
      "inputs": [],
      "name": "name",
      "outputs": [
        {
          "internalType": "string",
          "name": "",
          "type": "string"
        }
      ],
      "stateMutability": "view",
      "type": "function"
    },
    {
      "inputs": [],
      "name": "owner",
      "outputs": [
        {
          "internalType": "address",
          "name": "",
          "type": "address"
        }
      ],
      "stateMutability": "view",
      "type": "function"
    },
    {
      "inputs": [
        {
          "internalType": "uint256",
          "name": "tokenId",
          "type": "uint256"
        }
      ],
      "name": "ownerOf",
      "outputs": [
        {
          "internalType": "address",
          "name": "",
          "type": "address"
        }
      ],
      "stateMutability": "view",
      "type": "function"
    },
    {
      "inputs": [],
      "name": "renounceOwnership",
      "outputs": [],
      "stateMutability": "nonpayable",
      "type": "function"
    },
    {
      "inputs": [
        {
          "internalType": "address",
          "name": "from",
          "type": "address"
        },
        {
          "internalType": "address",
          "name": "to",
          "type": "address"
        },
        {
          "internalType": "uint256",
          "name": "tokenId",
          "type": "uint256"
        }
      ],
      "name": "safeTransferFrom",
      "outputs": [],
      "stateMutability": "nonpayable",
      "type": "function"
    },
    {
      "inputs": [
        {
          "internalType": "address",
          "name": "from",
          "type": "address"
        },
        {
          "internalType": "address",
          "name": "to",
          "type": "address"
        },
        {
          "internalType": "uint256",
          "name": "tokenId",
          "type": "uint256"
        },
        {
          "internalType": "bytes",
          "name": "data",
          "type": "bytes"
        }
      ],
      "name": "safeTransferFrom",
      "outputs": [],
      "stateMutability": "nonpayable",
      "type": "function"
    },
    {
      "inputs": [
        {
          "internalType": "address",
          "name": "operator",
          "type": "address"
        },
        {
          "internalType": "bool",
          "name": "approved",
          "type": "bool"
        }
      ],
      "name": "setApprovalForAll",
      "outputs": [],
      "stateMutability": "nonpayable",
      "type": "function"
    },
    {
      "inputs": [
        {
          "internalType": "bytes4",
          "name": "interfaceId",
          "type": "bytes4"
        }
      ],
      "name": "supportsInterface",
      "outputs": [
        {
          "internalType": "bool",
          "name": "",
          "type": "bool"
        }
      ],
      "stateMutability": "pure",
      "type": "function"
    },
    {
      "inputs": [],
      "name": "symbol",
      "outputs": [
        {
          "internalType": "string",
          "name": "",
          "type": "string"
        }
      ],
      "stateMutability": "view",
      "type": "function"
    },
    {
      "inputs": [
        {
          "internalType": "uint256",
          "name": "index",
          "type": "uint256"
        }
      ],
      "name": "tokenByIndex",
      "outputs": [
        {
          "internalType": "uint256",
          "name": "",
          "type": "uint256"
        }
      ],
      "stateMutability": "view",
      "type": "function"
    },
    {
      "inputs": [
        {
          "internalType": "address",
          "name": "owner",
          "type": "address"
        },
        {
          "internalType": "uint256",
          "name": "index",
          "type": "uint256"
        }
      ],
      "name": "tokenOfOwnerByIndex",
      "outputs": [
        {
          "internalType": "uint256",
          "name": "",
          "type": "uint256"
        }
      ],
      "stateMutability": "view",
      "type": "function"
    },
    {
      "inputs": [
        {
          "internalType": "uint256",
          "name": "tokenId",
          "type": "uint256"
        }
      ],
      "name": "tokenURI",
      "outputs": [
        {
          "internalType": "string",
          "name": "",
          "type": "string"
        }
      ],
      "stateMutability": "view",
      "type": "function"
    },
    {
      "inputs": [],
      "name": "totalSupply",
      "outputs": [
        {
          "internalType": "uint256",
          "name": "",
          "type": "uint256"
        }
      ],
      "stateMutability": "view",
      "type": "function"
    },
    {
      "inputs": [
        {
          "internalType": "address",
          "name": "from",
          "type": "address"
        },
        {
          "internalType": "address",
          "name": "to",
          "type": "address"
        },
        {
          "internalType": "uint256",
          "name": "tokenId",
          "type": "uint256"
        }
      ],
      "name": "transferFrom",
      "outputs": [],
      "stateMutability": "nonpayable",
      "type": "function"
    },
    {
      "inputs": [
        {
          "internalType": "address",
          "name": "newOwner",
          "type": "address"
        }
      ],
      "name": "transferOwnership",
      "outputs": [],
      "stateMutability": "nonpayable",
      "type": "function"
    },
    {
      "inputs": [
        {
          "internalType": "uint256",
          "name": "tokenId",
          "type": "uint256"
        }
      ],
      "name": "unfreezeToken",
      "outputs": [],
      "stateMutability": "nonpayable",
      "type": "function"
    }
  ],
  "bytecode": "0x60808060405234601557612959908161001b8239f35b600080fdfe608080604052600436101561001357600080fd5b600090813560e01c90816301ffc9a7146119a95750806306fdde0314611985578063081812fc1461195c578063095ea7b31461188457806318160ddd1461185d57806323b872dd14611845578063246581f714610b235780632f745c5914610afb57806342842e0e14610ad15780634d787ea914610a745780634f6ccce714610a105780635de6dc55146109515780636352211e146109205780636a627842146107ba57806370a082311461078e578063715018a6146107255780638da5cb5b146106f857806395d89b41146106d157806397294fea1461069e578063a22cb465146105eb578063b6854f961461058b578063b88d4fde14610524578063c3b0ce3b14610342578063c4d66de8146102dd578063c87b56dd14610244578063e12a8b7c14610222578063e985e9c5146101eb5763f2fde38b1461015557600080fd5b346101e85760203660031901126101e85761016e611a6d565b61017661269f565b6001600160a01b031680156101d6576001600160a01b03610195612283565b541661019f612283565b80546001600160a01b031916831790557f8be0079c531659141344cd1fd0a4f28419497f9722a3daafe3b4186f6b6457e08380a380f35b631e4fbdf760e01b8252600452602490fd5b80fd5b50346101e85760403660031901126101e857602061021861020a611a6d565b610212611a83565b906126ce565b6040519015158152f35b50346101e857806003193601126101e85760ff60209154166040519015158152f35b50346101e85760203660031901126101e85760ff610260612283565b5460a01c161590506102ca576102c661029e6102b2600361027f612283565b016102a4600461028d612283565b016040519485936020850190612123565b90612123565b03601f198101835282611b11565b604051918291602083526020830190611a2e565b0390f35b6102c66102d86004356128b0565b6102b2565b50346101e85760203660031901126101e8576102f7611a6d565b6001600160a01b0381161561032e5761030e612283565b80546001600160a01b0319166001600160a01b0390921691909117905580f35b631e4fbdf760e01b82526004829052602482fd5b50346101e85760203660031901126101e8576004356001600160401b0381116105205736602382011215610520578060040135906001600160401b03821161051c573660248360051b8301011161051c57604460206001600160a01b036103a7612283565b541660405192838092632474521560e21b82527f7ed687a8f2955bd2ba7ca08227e1e364d132be747f42fb733165f923021b022560048301523360248301525afa9081156105115784916104e2575b50156104cf57825b8281101561043857600581901b820160240135906001600160a01b03821682036104345761042d6001926122bc565b50016103fe565b8480fd5b5090600160ff19845416178355604051908060208301602084525260246040830193019084905b80821061049457505050807f1a011b8e3ac2481c2b87e374ace0f8bb1128f6a80697d6b4fd0817d950d4837b9130930390a280f35b91939091908435906001600160a01b03821682036104ca576001600160a01b03909116815260209081019401916001019061045f565b600080fd5b639c2f8ac360e01b835233600452602483fd5b610504915060203d60201161050a575b6104fc8183611b11565b810190611fc4565b386103f6565b503d6104f2565b6040513d86823e3d90fd5b8280fd5b5080fd5b50346101e85760803660031901126101e85761053e611a6d565b610546611a83565b606435916001600160401b03831161058757366023840112156105875761057a610584933690602481600401359101611b63565b9160443591611fdc565b80f35b8380fd5b50346101e85760203660031901126101e8577f74308730007d8ee5b3c18fad784efa3555f62695e36960f803f475eeb663d10e602060043560056105cd612283565b8286520182526040808520805460ff1916600117905551908152a180f35b50346101e85760403660031901126101e857610605611a6d565b6024359081151580920361051c576001600160a01b031690811561068a57600561062d612191565b0160018060a01b033316600052602052604060002082600052602052604060002060ff1981541660ff83161790556040519081527f17307eab39ab6107e8899845ad3d59bd9653f200f220920489ca2b5937696c3160203392a380f35b630b61174360e31b83526004829052602483fd5b50346101e85760203660031901126101e857604060209160066106bf612283565b01600435825283522054604051908152f35b50346101e857806003193601126101e8576102c66102b260016106f2612191565b01611bd4565b50346101e857806003193601126101e85760206001600160a01b0361071b612283565b5416604051908152f35b50346101e857806003193601126101e85761073e61269f565b806001600160a01b0361074f612283565b5416610759612283565b80546001600160a01b03191690557f8be0079c531659141344cd1fd0a4f28419497f9722a3daafe3b4186f6b6457e08280a380f35b50346101e85760203660031901126101e85760206107b26107ad611a6d565b612657565b604051908152f35b50346101e85760203660031901126101e8576107d4611a6d565b600460206001600160a01b036107e8612283565b541660405192838092631ba82e6360e31b82525afa9081156108d25783916108dd575b50604051632474521560e21b81527f9f2df0fed2c77648de5860a4cc508cd0818c85b8b8a1ab4ceeef8d981c8956a6600482015233602482015290602090829060449082906001600160a01b03165afa9081156108d25783916108b3575b501561087c57610878906122bc565b5080f35b63e2517d3f60e01b8252336004527f9f2df0fed2c77648de5860a4cc508cd0818c85b8b8a1ab4ceeef8d981c8956a6602452604482fd5b6108cc915060203d60201161050a576104fc8183611b11565b38610869565b6040513d85823e3d90fd5b90506020813d602011610918575b816108f860209383611b11565b8101031261051c57516001600160a01b038116810361051c57602061080b565b3d91506108eb565b50346101e85760203660031901126101e857602061093f6004356121d5565b6040516001600160a01b039091168152f35b50346101e85760203660031901126101e85761096b611a6d565b61097481612657565b61097d8161222a565b9061098b6040519283611b11565b8082526109978161222a565b602083019390601f1901368537845b8281106109f25750505090604051928392602084019060208552518091526040840192915b8181106109d9575050500390f35b82518452859450602093840193909201916001016109cb565b806109ff60019284612855565b610a098287612241565b52016109a6565b50346101e85760203660031901126101e857600435906002610a30612739565b0154821015610a5e576020610a4f836002610a49612739565b0161226b565b90549060031b1c604051908152f35b60449163295f44f760e21b825281600452602452fd5b50346101e85760203660031901126101e8577fdad54db74d8c1152c7cb496a900d181b8e9b69b70e55db2362bd100897a4f7a160206004356005610ab6612283565b8286520182526040808520805460ff1916905551908152a180f35b50346101e857610584610ae336611a99565b9060405192610af3602085611b11565b858452611fdc565b50346101e85760403660031901126101e85760206107b2610b1a611a6d565b60243590612855565b50346101e85760803660031901126101e857610b3d611a6d565b610b45611a83565b6044356001600160a01b0381168103610587576064356001600160401b03811161043457366023820112156104345780600401356001600160401b038111611841578082019060248201913683116118395760c0908490031261183d576024830135916001600160401b03831161183957610bc581602485870101612772565b9460448501356001600160401b03811161183557826024610be892880101612772565b60648601356001600160401b03811161183157836024610c0a92890101612772565b926084870135906001600160401b03821161182d576024610c2d92890101612772565b9360a48701359586151580970361182d57885115159081611822575b81611817575b8161180c575b8092602081106117f5575b5050156117e35750610c70612191565b96610c79612283565b9781516001600160401b0381116117cf57610c948254611b9a565b8d601f8211611786575b90505060208d601f831160011461171f579060019483611714575b5050600019600383901b1c191690831b1781555b01908051906001600160401b038211611700578190610cec8454611b9a565b601f81116116ad575b506020908d601f841160011461164a579261163f575b50508160011b916000199060031b1c19161790555b85546001600160a01b0319166001600160a01b0391909116178555805160038601916001600160401b03821161162b578190610d5c8454611b9a565b601f81116115db575b50602090601f8311600114611578578b9261156d575b50508160011b916000199060031b1c19161790555b805160048501916001600160401b03821161155957610daf8354611b9a565b601f8111611514575b50602090601f83116001146114aa579180600296949260c496948c9261149f575b50508160011b916000199060031b1c19161790555b845460ff60a01b191660a09190911b60ff60a01b16178455013591015560ff610e1561281c565b541661149157604051926102e0610e2c8186611b11565b601685526020850190601f190136823784511561147d57634b94a7f560e11b90528351600110156114695763c87b56dd60e01b6040850152835160021015611469576318160ddd60e01b6060850152835160031015611469576301ffc9a760e01b6080850152835160041015611469576370a0823160e01b60a0850152835160051015611469576331a9108f60e11b60c08501528351600610156114695763095ea7b360e01b60e08501528351600710156114695763020604bf60e21b6101008501528351600810156114695763a22cb46560e01b6101208501528351600910156114695763e985e9c560e01b6101408501528351600a1015611469576323b872dd60e01b6101608501528351600b101561146957632142170760e11b6101808501528351600c101561146957635c46a7ef60e11b6101a08501528351600d1015611469576306fdde0360e01b6101c08501528351600e1015611469576395d89b4160e01b6101e08501528351600f101561146957634f6ccce760e01b61020085015283516010101561146957632f745c5960e01b61022085015283516011101561146957635de6dc5560e01b610240850152835160121015611469576335313c2160e11b61026085015283516013101561146957635b42a7cb60e11b61028085015283516014101561146957634d787ea960e01b6102a085015283516015101561146957634b94a7f560e11b6102c0850152337f171a7dc80b6dc11005bc264b86aca451619865e5e8dad90855002dd8814b33628280a2604081806102a46110be845161107a8682611b11565b601481527313115514d0985cd9481a5b9a5d1a585b1a5e995960621b6020820152855192839163104c13eb60e21b6020840152602060248401526044830190611a2e565b6020815191016a636f6e736f6c652e6c6f675afa50818061112b61113f6001600160a01b036110eb612283565b54168551906110fa8783611b11565b6002825261736360f01b6020830152865193849263319af33360e01b60208501528860248501526064840190611a2e565b90604483015203601f198101835282611b11565b6020815191016a636f6e736f6c652e6c6f675afa506111916003611161612283565b0161118b8351916111728584611b11565b60078352666261736555524960c81b6020840152611bd4565b90612790565b6111ca600461119e612283565b0161118b8351916111af8584611b11565b600983526832bc3a32b739b4b7b760b91b6020840152611bd4565b818061122c61124260ff6111dc612283565b5460a01c168551906111ee8783611b11565b600f82526e1a5cd3595d1859185d18519a5e1959608a1b6020830152865193849263c3b5563560e01b60208501528860248501526064840190611a2e565b901515604483015203601f198101835282611b11565b6020815191016a636f6e736f6c652e6c6f675afa5061128d6002611264612283565b015482516112728482611b11565b60098152686d6178537570706c7960b81b60208201526127ec565b6112c5600161129a612283565b015482516112a88482611b11565b600b81526a1b995e1d151bdad95b925960aa1b60208201526127ec565b60ff6112cf61281c565b541661145b5784519260028401809411611447576112ec8461222a565b936112f983519586611b11565b808552611308601f199161222a565b01366020860137825b8651811015611343576001906001600160e01b0319611330828a612241565b511661133c8288612241565b5201611311565b5085938563c3b0ce3b60e01b61135a875184612241565b528551600181018091116114335763384aa2df60e21b9061137b9084612241565b526001600160a01b031690813b156104345784916113b6918386518096819582946323c45f6760e01b84528a60048501526044840190611ad3565b6001600160a01b03909116602483015203925af1801561142757611411575b506102c690519283927f4d551d3011ebaf67f0b8c2bbe6537867817f628b28ad415422702ada789affc7339180a2602083526020830190611ad3565b91611420816102c69394611b11565b91906113d5565b505051903d90823e3d90fd5b634e487b7160e01b86526011600452602486fd5b634e487b7160e01b83526011600452602483fd5b62dc149f60e41b8252600482fd5b634e487b7160e01b81526032600452602490fd5b634e487b7160e01b82526032600452602482fd5b62dc149f60e41b8352600483fd5b015190503880610dd9565b838a52818a209190601f1984168b5b8181106114fc575092600192859260c4989660029a9896106114e3575b505050811b019055610dee565b015160001960f88460031b161c191690553880806114d6565b929360206001819287860151815501950193016114b9565b838a5260208a20601f840160051c8101916020851061154f575b601f0160051c01905b8181106115445750610db8565b8a8155600101611537565b909150819061152e565b634e487b7160e01b89526041600452602489fd5b015190503880610d7b565b848c52818c209250601f1984168c5b8181106115c357509084600195949392106115aa575b505050811b019055610d90565b015160001960f88460031b161c1916905538808061159d565b92936020600181928786015181550195019301611587565b909150838b5260208b20601f840160051c81019160208510611621575b90601f859493920160051c01905b8181106116135750610d65565b8c8155849350600101611606565b90915081906115f8565b634e487b7160e01b8a52604160045260248afd5b015190503880610d0b565b8581528281209350601f198516905b818110611695575090846001959493921061167c575b505050811b019055610d20565b015160001960f88460031b161c1916905538808061166f565b92936020600181928786015181550195019301611659565b909150838d5260208d20601f840160051c810191602085106116f6575b849392918f91601f0160051c0191905b8282106116e8575050610cf5565b81558493506001018e6116da565b90915081906116ca565b634e487b7160e01b8c52604160045260248cfd5b015190503880610cb9565b919293601f198416858452828420935b81811061176e5750916001959492918387959310611755575b505050811b018155610ccd565b015160001960f88460031b161c19169055388080611748565b9293602060018192878601518155019501930161172f565b80846020925220601f830160051c810191602084106117c5575b601f0160051c01908e905b8281106117b85750610c9e565b6001918155018e906117ab565b90915081906117a0565b634e487b7160e01b8d52604160045260248dfd5b6308d49be960e31b8b5260045260248afd5b60001960209190910360031b1b1691503880610c60565b865115159150610c55565b855115159150610c4f565b835115159150610c49565b8b80fd5b8a80fd5b8980fd5b8780fd5b8680fd5b8580fd5b50346101e85761058461185736611a99565b91611c78565b50346101e857806003193601126101e8576020600261187a612739565b0154604051908152f35b50346101e85760403660031901126101e85761189e611a6d565b6024356118aa816121d5565b33151580611949575b80611938575b6119255781906001600160a01b0384811691167f8c5be1e5ebec7d5bd14f71427d1e84f3dd0314c0f7b2291e5b200ac8c7c3b9258680a460046118fa612191565b918452016020526040822080546001600160a01b0319166001600160a01b0390921691909117905580f35b63a9fbf51f60e01b845233600452602484fd5b5061194333826126ce565b156118b9565b506001600160a01b0381163314156118b3565b50346101e85760203660031901126101e857602061093f60043561197f816121d5565b50612206565b50346101e857806003193601126101e8576102c66102b26119a4612191565b611bd4565b9050346105205760203660031901126105205760043563ffffffff60e01b811680910361051c5760209250635de6dc5560e01b8114908115611a1d575b8115611a0c575b81156119fb575b5015158152f35b632483248360e11b149050386119f4565b63780e9d6360e01b811491506119ed565b635b5e139f60e01b811491506119e6565b919082518082526020808301940160005b828110611a5d575050600081602094950152601f8019910116010190565b8181015186820152602001611a3f565b600435906001600160a01b03821682036104ca57565b602435906001600160a01b03821682036104ca57565b60609060031901126104ca576004356001600160a01b03811681036104ca57906024356001600160a01b03811681036104ca579060443590565b906020808351928381520192019060005b818110611af15750505090565b82516001600160e01b031916845260209384019390920191600101611ae4565b90601f801991011681019081106001600160401b03821117611b3257604052565b634e487b7160e01b600052604160045260246000fd5b6001600160401b038111611b3257601f01601f191660200190565b929192611b6f82611b48565b91611b7d6040519384611b11565b8294818452818301116104ca578281602093846000960137010152565b90600182811c92168015611bca575b6020831014611bb457565b634e487b7160e01b600052602260045260246000fd5b91607f1691611ba9565b9060405191826000825492611be884611b9a565b8084529360018116908115611c565750600114611c0f575b50611c0d92500383611b11565b565b90506000929192526020600020906000915b818310611c3a575050906020611c0d9282010138611c00565b6020919350806001915483858901015201910190918492611c21565b905060209250611c0d94915060ff191682840152151560051b82010138611c00565b9091906001600160a01b0383168015611fae576006611c95612283565b018360005260205242604060002055600090611cb084612708565b9133151580611f22575b506001600160a01b0383169586158015611ef7575b6003611cd9612191565b0184845260205260408320600181540190556002611cf5612191565b888552016020526040832080546001600160a01b031916851790558684897fddf252ad1be2c89b69c2b068fc378daa952ba7f163c4a11628f55a4df523b3ef8680a415611e58576002611d46612739565b01546003611d52612739565b0187845260205260408320556002611d68612739565b01805490600160401b821015611e4457611d8c8289926001611da59501815561226b565b90919082549060031b91821b91600019901b1916179055565b828703611ddf575b5050505060018060a01b0316808303611dc557505050565b6364283d7b60e01b60005260045260245260445260646000fd5b611de890612657565b600019810192908311611e305790604091611e01612739565b90825260205281812083825260205285828220556001611e1f612739565b018682526020522055388080611dad565b634e487b7160e01b82526011600452602482fd5b634e487b7160e01b84526041600452602484fd5b868314611da557611e6884612657565b6001611e72612739565b01878452602052604083205490611e87612739565b8985526020526040842091818103611ec2575b506001611ea5612739565b018885526020528360408120558352602052816040812055611da5565b818552826020526040852054818652836020528060408720556001611ee5612739565b01908652602052604085205538611e9a565b611f0087612712565b6003611f0a612191565b89855201602052604083208054600019019055611ccf565b80611f6b575b15611f335738611cba565b9250506001600160a01b0316611f5557602491637e27328960e01b8252600452fd5b60449163177e802f60e01b825233600452602452fd5b506001600160a01b03831633148015611f9e575b80611f285750336001600160a01b03611f9787612206565b1614611f28565b50611fa933846126ce565b611f7f565b633250574960e11b600052600060045260246000fd5b908160209103126104ca575180151581036104ca5790565b9291611fe9818386611c78565b813b611ff6575b50505050565b604051630a85bd0160e11b81523360048201526001600160a01b0394851660248201526044810191909152608060648201529216919060209082908190612041906084830190611a2e565b03816000865af180916000916120e0575b50906120ab57503d156120a4573d61206981611b48565b906120776040519283611b11565b81523d6000602083013e5b8051908161209f5782633250574960e11b60005260045260246000fd5b602001fd5b6060612082565b6001600160e01b03191663757a42ff60e11b016120cc575038808080611ff0565b633250574960e11b60005260045260246000fd5b6020813d60201161211b575b816120f960209383611b11565b810103126105205751906001600160e01b0319821682036101e8575038612052565b3d91506120ec565b6000929181549161213383611b9a565b926001811690811561217e575060011461214c57505050565b909192935060005260206000206000905b83821061216a5750500190565b60018160209254848601520191019061215d565b60ff191683525050811515909102019150565b604051602081017fb7b8777dfce3c027b9b4ab96baa886d0c5d5e8c8632429d2b4be0ba869cd905f8152602082526121ca604083611b11565b9051902060ff191690565b6121de81612708565b906001600160a01b038216156121f2575090565b637e27328960e01b60005260045260246000fd5b6004612210612191565b60009283520160205260409020546001600160a01b031690565b6001600160401b038111611b325760051b60200190565b80518210156122555760209160051b010190565b634e487b7160e01b600052603260045260246000fd5b80548210156122555760005260206000200190600090565b604051602081017f0cee7785c9739c2abcb4ce591dada6e864d6d906251746912d12a62bb828bf688152602082526121ca604083611b11565b9060016122c7612283565b0191825460001981146126415760010180935582602090604051906122ec8383611b11565b600082526001600160a01b038416938415611fae57600061230c83612708565b6001600160a01b03811680158015939190899085612617575b600361232f612191565b018285528a526040842060018154019055600261234a612191565b898652018a526040842080546001600160a01b031916831790558782847fddf252ad1be2c89b69c2b068fc378daa952ba7f163c4a11628f55a4df523b3ef8780a41561257e5750600261239b612739565b015460036123a7612739565b018784528952604083205560026123bc612739565b01805490600160401b821015611e445787611d8c836123e29360018f979601815561226b565b0361251f575b5050612509573b6123f95750505050565b91612439918195936040979597519384928392630a85bd0160e11b8452336004850152600060248501526044840152608060648401526084830190611a2e565b03816000895af180916000916124cb575b50906124a4575050503d60001461249d573d61246581611b48565b906124736040519283611b11565b81523d60008383013e5b8051918261249a5783633250574960e11b60005260045260246000fd5b01fd5b606061247d565b9193909250906001600160e01b03191663757a42ff60e11b016120cc575038808080611ff0565b8581813d8311612502575b6124e08183611b11565b810103126105205751906001600160e01b0319821682036101e857503861244a565b503d6124d6565b6339e3563760e11b600052600060045260246000fd5b61252884612657565b60001981019190821161256a57604090612540612739565b8a8252895281812083825289528682822055600161255c612739565b0187825289522055386123e8565b634e487b7160e01b81526011600452602490fd5b908082146123e25761258f84612657565b6001612599612739565b018885528a526040842054906125ad612739565b8386528b5260408520918181036125e5575b5060016125ca612739565b018986528b52846040812055845289528260408120556123e2565b818652828c526040862054818752838d528060408820556001612606612739565b019087528c526040862055386125bf565b61262088612712565b600361262a612191565b848652018a52604084208054600019019055612325565b634e487b7160e01b600052601160045260246000fd5b6001600160a01b03811615612689576003612670612191565b019060018060a01b031660005260205260406000205490565b6322718ad960e21b600052600060045260246000fd5b6001600160a01b036126af612283565b541633036126b957565b63118cdaa760e01b6000523360045260246000fd5b60056126d8612191565b019060018060a01b031660005260205260406000209060018060a01b031660005260205260ff6040600020541690565b6002612210612191565b600461271c612191565b6000928352016020526040902080546001600160a01b0319169055565b604051602081017f2070bae6b675801f0932481e70ab724699e22000dcf2efe36a44b6070d9ee8f18152602082526121ca604083611b11565b9080601f830112156104ca5781602061278d93359101611b63565b90565b6127c36127d5600093926102a48594604051948593634b5c427760e01b6020860152604060248601526064850190611a2e565b83810360231901604485015290611a2e565b6020815191016a636f6e736f6c652e6c6f675afa50565b61112b6127d5600093928493604051938492632d839cb360e21b6020850152604060248501526064840190611a2e565b604051602081017ff158cb8b47a14bda3b2c4affcc0d960e9ed23f5a516e4779510b08a6e823c0258152602082526121ca604083611b11565b61285e81612657565b8210156128915761286d612739565b9060018060a01b031660005260205260406000209060005260205260406000205490565b63295f44f760e21b60005260018060a01b031660045260245260446000fd5b6128b9816121d5565b50604051602081017f83126a7e0b3d5a7bd433798795b790de3287f4b1cb3d1042e8a9e2a4e5391b408152602082526128f3604083611b11565b60ff1991519020169060005260205261290f6040600020611bd4565b600060405161291f602082611b11565b529056fea264697066735822122065d93e07155499227cfbe798846e38e69bd00f1538ec525247c47243f0520a3264736f6c634300081c0033",
  "linkReferences": {},
  "deployedLinkReferences": {}
}