{
  "_format": "hh-sol-artifact-1",
  "contractName": "LETSBase",
  "sourceName": "contracts/Services/LETS/LETSBase.sol",
  "abi": [
    {
      "inputs": [],
      "stateMutability": "nonpayable",
      "type": "constructor"
    },
    {
      "inputs": [],
      "name": "ERC721EnumerableForbiddenBatchMint",
      "type": "error"
    },
    {
      "inputs": [
        {
          "internalType": "address",
          "name": "sender",
          "type": "address"
        },
        {
          "internalType": "uint256",
          "name": "tokenId",
          "type": "uint256"
        },
        {
          "internalType": "address",
          "name": "owner",
          "type": "address"
        }
      ],
      "name": "ERC721IncorrectOwner",
      "type": "error"
    },
    {
      "inputs": [
        {
          "internalType": "address",
          "name": "operator",
          "type": "address"
        },
        {
          "internalType": "uint256",
          "name": "tokenId",
          "type": "uint256"
        }
      ],
      "name": "ERC721InsufficientApproval",
      "type": "error"
    },
    {
      "inputs": [
        {
          "internalType": "address",
          "name": "approver",
          "type": "address"
        }
      ],
      "name": "ERC721InvalidApprover",
      "type": "error"
    },
    {
      "inputs": [
        {
          "internalType": "address",
          "name": "operator",
          "type": "address"
        }
      ],
      "name": "ERC721InvalidOperator",
      "type": "error"
    },
    {
      "inputs": [
        {
          "internalType": "address",
          "name": "owner",
          "type": "address"
        }
      ],
      "name": "ERC721InvalidOwner",
      "type": "error"
    },
    {
      "inputs": [
        {
          "internalType": "address",
          "name": "receiver",
          "type": "address"
        }
      ],
      "name": "ERC721InvalidReceiver",
      "type": "error"
    },
    {
      "inputs": [
        {
          "internalType": "address",
          "name": "sender",
          "type": "address"
        }
      ],
      "name": "ERC721InvalidSender",
      "type": "error"
    },
    {
      "inputs": [
        {
          "internalType": "uint256",
          "name": "tokenId",
          "type": "uint256"
        }
      ],
      "name": "ERC721NonexistentToken",
      "type": "error"
    },
    {
      "inputs": [
        {
          "internalType": "address",
          "name": "owner",
          "type": "address"
        },
        {
          "internalType": "uint256",
          "name": "index",
          "type": "uint256"
        }
      ],
      "name": "ERC721OutOfBoundsIndex",
      "type": "error"
    },
    {
      "inputs": [],
      "name": "InvalidInitialization",
      "type": "error"
    },
    {
      "inputs": [
        {
          "internalType": "address",
          "name": "_caller",
          "type": "address"
        },
        {
          "internalType": "string",
          "name": "_name",
          "type": "string"
        },
        {
          "internalType": "string",
          "name": "_symbol",
          "type": "string"
        },
        {
          "internalType": "string",
          "name": "_baseURI",
          "type": "string"
        },
        {
          "internalType": "string",
          "name": "_extension",
          "type": "string"
        },
        {
          "internalType": "address",
          "name": "_governanceService",
          "type": "address"
        }
      ],
      "name": "InvalidParam",
      "type": "error"
    },
    {
      "inputs": [
        {
          "internalType": "address",
          "name": "caller",
          "type": "address"
        }
      ],
      "name": "NotFounder",
      "type": "error"
    },
    {
      "inputs": [
        {
          "internalType": "address",
          "name": "caller",
          "type": "address"
        }
      ],
      "name": "NotGovernance",
      "type": "error"
    },
    {
      "inputs": [],
      "name": "NotInitializing",
      "type": "error"
    },
    {
      "inputs": [
        {
          "internalType": "address",
          "name": "caller",
          "type": "address"
        }
      ],
      "name": "NotMintReserve",
      "type": "error"
    },
    {
      "inputs": [],
      "name": "NotTransferable",
      "type": "error"
    },
    {
      "inputs": [
        {
          "internalType": "address",
          "name": "owner",
          "type": "address"
        }
      ],
      "name": "OwnableInvalidOwner",
      "type": "error"
    },
    {
      "inputs": [
        {
          "internalType": "address",
          "name": "account",
          "type": "address"
        }
      ],
      "name": "OwnableUnauthorizedAccount",
      "type": "error"
    },
    {
      "anonymous": false,
      "inputs": [
        {
          "indexed": true,
          "internalType": "address",
          "name": "owner",
          "type": "address"
        },
        {
          "indexed": true,
          "internalType": "address",
          "name": "approved",
          "type": "address"
        },
        {
          "indexed": true,
          "internalType": "uint256",
          "name": "tokenId",
          "type": "uint256"
        }
      ],
      "name": "Approval",
      "type": "event"
    },
    {
      "anonymous": false,
      "inputs": [
        {
          "indexed": true,
          "internalType": "address",
          "name": "owner",
          "type": "address"
        },
        {
          "indexed": true,
          "internalType": "address",
          "name": "operator",
          "type": "address"
        },
        {
          "indexed": false,
          "internalType": "bool",
          "name": "approved",
          "type": "bool"
        }
      ],
      "name": "ApprovalForAll",
      "type": "event"
    },
    {
      "anonymous": false,
      "inputs": [
        {
          "indexed": false,
          "internalType": "uint256",
          "name": "_fromTokenId",
          "type": "uint256"
        },
        {
          "indexed": false,
          "internalType": "uint256",
          "name": "_toTokenId",
          "type": "uint256"
        }
      ],
      "name": "BatchMetadataUpdate",
      "type": "event"
    },
    {
      "anonymous": false,
      "inputs": [
        {
          "indexed": false,
          "internalType": "uint64",
          "name": "version",
          "type": "uint64"
        }
      ],
      "name": "Initialized",
      "type": "event"
    },
    {
      "anonymous": false,
      "inputs": [
        {
          "indexed": false,
          "internalType": "uint256",
          "name": "_tokenId",
          "type": "uint256"
        }
      ],
      "name": "MetadataUpdate",
      "type": "event"
    },
    {
      "anonymous": false,
      "inputs": [
        {
          "indexed": false,
          "internalType": "uint256",
          "name": "tokenId",
          "type": "uint256"
        },
        {
          "indexed": false,
          "internalType": "address",
          "name": "to",
          "type": "address"
        }
      ],
      "name": "MintReserveSet",
      "type": "event"
    },
    {
      "anonymous": false,
      "inputs": [
        {
          "indexed": true,
          "internalType": "address",
          "name": "previousOwner",
          "type": "address"
        },
        {
          "indexed": true,
          "internalType": "address",
          "name": "newOwner",
          "type": "address"
        }
      ],
      "name": "OwnershipTransferred",
      "type": "event"
    },
    {
      "anonymous": false,
      "inputs": [
        {
          "indexed": false,
          "internalType": "uint256",
          "name": "tokenId",
          "type": "uint256"
        }
      ],
      "name": "TokenFrozen",
      "type": "event"
    },
    {
      "anonymous": false,
      "inputs": [
        {
          "indexed": false,
          "internalType": "uint256",
          "name": "tokenId",
          "type": "uint256"
        }
      ],
      "name": "TokenUnfrozen",
      "type": "event"
    },
    {
      "anonymous": false,
      "inputs": [
        {
          "indexed": true,
          "internalType": "address",
          "name": "from",
          "type": "address"
        },
        {
          "indexed": true,
          "internalType": "address",
          "name": "to",
          "type": "address"
        },
        {
          "indexed": true,
          "internalType": "uint256",
          "name": "tokenId",
          "type": "uint256"
        }
      ],
      "name": "Transfer",
      "type": "event"
    },
    {
      "inputs": [
        {
          "internalType": "address",
          "name": "to",
          "type": "address"
        },
        {
          "internalType": "uint256",
          "name": "tokenId",
          "type": "uint256"
        }
      ],
      "name": "approve",
      "outputs": [],
      "stateMutability": "nonpayable",
      "type": "function"
    },
    {
      "inputs": [
        {
          "internalType": "address",
          "name": "owner",
          "type": "address"
        }
      ],
      "name": "balanceOf",
      "outputs": [
        {
          "internalType": "uint256",
          "name": "",
          "type": "uint256"
        }
      ],
      "stateMutability": "view",
      "type": "function"
    },
    {
      "inputs": [],
      "name": "baseURI",
      "outputs": [
        {
          "internalType": "string",
          "name": "",
          "type": "string"
        }
      ],
      "stateMutability": "view",
      "type": "function"
    },
    {
      "inputs": [],
      "name": "extension",
      "outputs": [
        {
          "internalType": "string",
          "name": "",
          "type": "string"
        }
      ],
      "stateMutability": "view",
      "type": "function"
    },
    {
      "inputs": [
        {
          "internalType": "uint256",
          "name": "tokenId",
          "type": "uint256"
        }
      ],
      "name": "freezeToken",
      "outputs": [],
      "stateMutability": "nonpayable",
      "type": "function"
    },
    {
      "inputs": [
        {
          "internalType": "uint256",
          "name": "tokenId",
          "type": "uint256"
        }
      ],
      "name": "getApproved",
      "outputs": [
        {
          "internalType": "address",
          "name": "",
          "type": "address"
        }
      ],
      "stateMutability": "view",
      "type": "function"
    },
    {
      "inputs": [
        {
          "internalType": "address",
          "name": "owner",
          "type": "address"
        },
        {
          "internalType": "address",
          "name": "operator",
          "type": "address"
        }
      ],
      "name": "isApprovedForAll",
      "outputs": [
        {
          "internalType": "bool",
          "name": "",
          "type": "bool"
        }
      ],
      "stateMutability": "view",
      "type": "function"
    },
    {
      "inputs": [
        {
          "internalType": "address",
          "name": "to",
          "type": "address"
        },
        {
          "internalType": "uint256",
          "name": "tokenId",
          "type": "uint256"
        }
      ],
      "name": "mint",
      "outputs": [],
      "stateMutability": "nonpayable",
      "type": "function"
    },
    {
      "inputs": [
        {
          "internalType": "address",
          "name": "to",
          "type": "address"
        }
      ],
      "name": "mint",
      "outputs": [],
      "stateMutability": "nonpayable",
      "type": "function"
    },
    {
      "inputs": [],
      "name": "name",
      "outputs": [
        {
          "internalType": "string",
          "name": "",
          "type": "string"
        }
      ],
      "stateMutability": "view",
      "type": "function"
    },
    {
      "inputs": [],
      "name": "owner",
      "outputs": [
        {
          "internalType": "address",
          "name": "",
          "type": "address"
        }
      ],
      "stateMutability": "view",
      "type": "function"
    },
    {
      "inputs": [
        {
          "internalType": "uint256",
          "name": "tokenId",
          "type": "uint256"
        }
      ],
      "name": "ownerOf",
      "outputs": [
        {
          "internalType": "address",
          "name": "",
          "type": "address"
        }
      ],
      "stateMutability": "view",
      "type": "function"
    },
    {
      "inputs": [],
      "name": "renounceOwnership",
      "outputs": [],
      "stateMutability": "nonpayable",
      "type": "function"
    },
    {
      "inputs": [
        {
          "internalType": "address",
          "name": "from",
          "type": "address"
        },
        {
          "internalType": "address",
          "name": "to",
          "type": "address"
        },
        {
          "internalType": "uint256",
          "name": "tokenId",
          "type": "uint256"
        }
      ],
      "name": "safeTransferFrom",
      "outputs": [],
      "stateMutability": "nonpayable",
      "type": "function"
    },
    {
      "inputs": [
        {
          "internalType": "address",
          "name": "from",
          "type": "address"
        },
        {
          "internalType": "address",
          "name": "to",
          "type": "address"
        },
        {
          "internalType": "uint256",
          "name": "tokenId",
          "type": "uint256"
        },
        {
          "internalType": "bytes",
          "name": "data",
          "type": "bytes"
        }
      ],
      "name": "safeTransferFrom",
      "outputs": [],
      "stateMutability": "nonpayable",
      "type": "function"
    },
    {
      "inputs": [
        {
          "internalType": "address",
          "name": "operator",
          "type": "address"
        },
        {
          "internalType": "bool",
          "name": "approved",
          "type": "bool"
        }
      ],
      "name": "setApprovalForAll",
      "outputs": [],
      "stateMutability": "nonpayable",
      "type": "function"
    },
    {
      "inputs": [
        {
          "internalType": "bytes4",
          "name": "interfaceId",
          "type": "bytes4"
        }
      ],
      "name": "supportsInterface",
      "outputs": [
        {
          "internalType": "bool",
          "name": "",
          "type": "bool"
        }
      ],
      "stateMutability": "view",
      "type": "function"
    },
    {
      "inputs": [],
      "name": "symbol",
      "outputs": [
        {
          "internalType": "string",
          "name": "",
          "type": "string"
        }
      ],
      "stateMutability": "view",
      "type": "function"
    },
    {
      "inputs": [
        {
          "internalType": "uint256",
          "name": "index",
          "type": "uint256"
        }
      ],
      "name": "tokenByIndex",
      "outputs": [
        {
          "internalType": "uint256",
          "name": "",
          "type": "uint256"
        }
      ],
      "stateMutability": "view",
      "type": "function"
    },
    {
      "inputs": [
        {
          "internalType": "address",
          "name": "owner",
          "type": "address"
        },
        {
          "internalType": "uint256",
          "name": "index",
          "type": "uint256"
        }
      ],
      "name": "tokenOfOwnerByIndex",
      "outputs": [
        {
          "internalType": "uint256",
          "name": "",
          "type": "uint256"
        }
      ],
      "stateMutability": "view",
      "type": "function"
    },
    {
      "inputs": [
        {
          "internalType": "uint256",
          "name": "tokenId",
          "type": "uint256"
        }
      ],
      "name": "tokenURI",
      "outputs": [
        {
          "internalType": "string",
          "name": "",
          "type": "string"
        }
      ],
      "stateMutability": "view",
      "type": "function"
    },
    {
      "inputs": [],
      "name": "totalSupply",
      "outputs": [
        {
          "internalType": "uint256",
          "name": "",
          "type": "uint256"
        }
      ],
      "stateMutability": "view",
      "type": "function"
    },
    {
      "inputs": [
        {
          "internalType": "address",
          "name": "from",
          "type": "address"
        },
        {
          "internalType": "address",
          "name": "to",
          "type": "address"
        },
        {
          "internalType": "uint256",
          "name": "tokenId",
          "type": "uint256"
        }
      ],
      "name": "transferFrom",
      "outputs": [],
      "stateMutability": "nonpayable",
      "type": "function"
    },
    {
      "inputs": [
        {
          "internalType": "address",
          "name": "newOwner",
          "type": "address"
        }
      ],
      "name": "transferOwnership",
      "outputs": [],
      "stateMutability": "nonpayable",
      "type": "function"
    },
    {
      "inputs": [
        {
          "internalType": "uint256",
          "name": "tokenId",
          "type": "uint256"
        }
      ],
      "name": "unfreezeToken",
      "outputs": [],
      "stateMutability": "nonpayable",
      "type": "function"
    }
  ],
  "bytecode": "0x6080806040523460d2577ff0c57e16840df040f15088dc2f81fe391c3923bec73e23a9662efc9c229c6a005460ff8160401c1660c1576002600160401b03196001600160401b03821601605c575b604051611d2690816100d88239f35b6001600160401b0319166001600160401b039081177ff0c57e16840df040f15088dc2f81fe391c3923bec73e23a9662efc9c229c6a005581527fc7f505b2f371ae2175ee4913f4499e1f2633a7b5936321eed1cdaeb6115181d290602090a13880604d565b63f92ee8a960e01b60005260046000fd5b600080fdfe608080604052600436101561001357600080fd5b60003560e01c90816301ffc9a714610ca15750806306fdde0314610bbb578063081812fc14610b70578063095ea7b314610a7e57806318160ddd14610a5357806323b872dd14610a3c5780632d5537b0146109945780632f745c591461090f57806340c10f19146108ea57806342842e0e146108ba5780634d787ea91461084e5780634f6ccce7146107f05780636352211e146107c05780636a627842146106735780636c0360eb146105cb57806370a08231146105a0578063715018a6146105365780638da5cb5b1461050057806395d89b41146103f5578063a22cb46514610359578063b6854f96146102ea578063b88d4fde14610253578063c87b56dd1461021c578063e985e9c5146101ce5763f2fde38b1461013257600080fd5b346101c95760203660031901126101c95761014b610d88565b6101536119cc565b6001600160a01b031680156101b357600080516020611c9183398151915280546001600160a01b0319811683179091556001600160a01b03167f8be0079c531659141344cd1fd0a4f28419497f9722a3daafe3b4186f6b6457e0600080a3005b631e4fbdf760e01b600052600060045260246000fd5b600080fd5b346101c95760403660031901126101c9576101e7610d88565b6101f86101f2610d9e565b91611223565b9060018060a01b0316600052602052602060ff604060002054166040519015158152f35b346101c95760203660031901126101c95761024f61023b600435611b2b565b604051918291602083526020830190610d63565b0390f35b346101c95760803660031901126101c95761026c610d88565b610274610d9e565b906044356064359267ffffffffffffffff84116101c957366023850112156101c9578360040135926102a584610e60565b936102b36040519586610e28565b80855236602482880101116101c95760208160009260246102e8990183890137860101526102e2838383610e7c565b33611a02565b005b346101c95760203660031901126101c9577f74308730007d8ee5b3c18fad784efa3555f62695e36960f803f475eeb663d10e602060043561033860018060a01b036001541633903314611295565b80600052600582526040600020600160ff19825416179055604051908152a1005b346101c95760403660031901126101c957610372610d88565b602435908115158092036101c9576001600160a01b03169081156103e05761039933611223565b82600052602052604060002060ff1981541660ff83161790556040519081527f17307eab39ab6107e8899845ad3d59bd9653f200f220920489ca2b5937696c3160203392a3005b50630b61174360e31b60005260045260246000fd5b346101c95760003660031901126101c95760405160007f80bb2b638cc20bc4d0a60d66940f3ab4a00c1d7b313497ca82fb0b4ab00793015461043681610dee565b80845290600181169081156104dc575060011461045e575b61024f8361023b81850382610e28565b7f80bb2b638cc20bc4d0a60d66940f3ab4a00c1d7b313497ca82fb0b4ab007930160009081527ff4bad0a69248f59680a4f2b3000328cec71a413447c96781cfe5996daa8c456e939250905b8082106104c25750909150810160200161023b61044e565b9192600181602092548385880101520191019092916104aa565b60ff191660208086019190915291151560051b8401909101915061023b905061044e565b346101c95760003660031901126101c957600080516020611c91833981519152546040516001600160a01b039091168152602090f35b346101c95760003660031901126101c95761054f6119cc565b600080516020611c9183398151915280546001600160a01b031981169091556000906001600160a01b03167f8be0079c531659141344cd1fd0a4f28419497f9722a3daafe3b4186f6b6457e08280a3005b346101c95760203660031901126101c95760206105c36105be610d88565b611309565b604051908152f35b346101c95760003660031901126101c95760405160006003546105ed81610dee565b80845290600181169081156104dc57506001146106145761024f8361023b81850382610e28565b600360009081527fc2575a0e9e593c00f959f8c92f12db2869c3395a3b0502d05e2516446f71f85b939250905b8082106106595750909150810160200161023b61044e565b919260018160209254838588010152019101909291610641565b346101c95760203660031901126101c95761068c610d88565b60005460405163a217fddf60e01b81526001600160a01b0390911690602081600481855afa80156107815760009061078d575b60209150604460405180948193632474521560e21b835260048301523360248301525afa9081156107815760009161073f575b501561072a576002546000198114610714576102e8916001820160025561136c565b634e487b7160e01b600052601160045260246000fd5b639c2f8ac360e01b6000523360045260246000fd5b6020813d602011610779575b8161075860209383610e28565b8101031261077557519081151582036107725750826106f2565b80fd5b5080fd5b3d915061074b565b6040513d6000823e3d90fd5b506020813d6020116107b8575b816107a760209383610e28565b810103126101c957602090516106bf565b3d915061079a565b346101c95760203660031901126101c95760206107de60043561133b565b6040516001600160a01b039091168152f35b346101c95760203660031901126101c957600435600080516020611cb183398151915254811015610835576108266020916112be565b90549060031b1c604051908152f35b63295f44f760e21b600052600060045260245260446000fd5b346101c95760203660031901126101c9577fdad54db74d8c1152c7cb496a900d181b8e9b69b70e55db2362bd100897a4f7a1602060043561089c60018060a01b036001541633903314611295565b8060005260058252604060002060ff198154169055604051908152a1005b346101c9576102e86108cb36610db4565b90604051926108db602085610e28565b600084526102e2838383610e7c565b346101c95760403660031901126101c9576102e8610906610d88565b6024359061136c565b346101c95760403660031901126101c957610928610d88565b6024359061093581611309565b8210156109755760018060a01b0316600052600080516020611c718339815191526020526040600020906000526020526020604060002054604051908152f35b63295f44f760e21b60005260018060a01b031660045260245260446000fd5b346101c95760003660031901126101c95760405160006004546109b681610dee565b80845290600181169081156104dc57506001146109dd5761024f8361023b81850382610e28565b600460009081527f8a35acfbc15ff81a39ae7d344fd709f28e8600b4aa8c65c6b64bfe7fe36bd19b939250905b808210610a225750909150810160200161023b61044e565b919260018160209254838588010152019101909291610a0a565b346101c9576102e8610a4d36610db4565b91610e7c565b346101c95760003660031901126101c9576020600080516020611cb183398151915254604051908152f35b346101c95760403660031901126101c957610a97610d88565b602435610aa38161133b565b33151580610b5d575b80610b39575b610b245781906001600160a01b0384811691167f8c5be1e5ebec7d5bd14f71427d1e84f3dd0314c0f7b2291e5b200ac8c7c3b925600080a46000908152600080516020611cd18339815191526020526040902080546001600160a01b0319166001600160a01b03909216919091179055005b63a9fbf51f60e01b6000523360045260246000fd5b50610b4381611223565b336000908152602091909152604090205460ff1615610ab2565b506001600160a01b038116331415610aac565b346101c95760203660031901126101c95760206107de600435610b928161133b565b506000908152600080516020611cd183398151915260205260409020546001600160a01b031690565b346101c95760003660031901126101c95760405160007f80bb2b638cc20bc4d0a60d66940f3ab4a00c1d7b313497ca82fb0b4ab007930054610bfc81610dee565b80845290600181169081156104dc5750600114610c235761024f8361023b81850382610e28565b7f80bb2b638cc20bc4d0a60d66940f3ab4a00c1d7b313497ca82fb0b4ab007930060009081527f37c58c799b6609234b945e882912ee9ad34948a1dfaa20a97485e1a7752bbf81939250905b808210610c875750909150810160200161023b61044e565b919260018160209254838588010152019101909291610c6f565b346101c95760203660031901126101c9576004359063ffffffff60e01b82168092036101c95760209163780e9d6360e01b8114908115610ce3575b5015158152f35b632483248360e11b811491508115610cfd575b5083610cdc565b6380ac58cd60e01b811491508115610d2f575b8115610d1e575b5083610cf6565b6301ffc9a760e01b14905083610d17565b635b5e139f60e01b81149150610d10565b60005b838110610d535750506000910152565b8181015183820152602001610d43565b90602091610d7c81518092818552858086019101610d40565b601f01601f1916010190565b600435906001600160a01b03821682036101c957565b602435906001600160a01b03821682036101c957565b60609060031901126101c9576004356001600160a01b03811681036101c957906024356001600160a01b03811681036101c9579060443590565b90600182811c92168015610e1e575b6020831014610e0857565b634e487b7160e01b600052602260045260246000fd5b91607f1691610dfd565b90601f8019910116810190811067ffffffffffffffff821117610e4a57604052565b634e487b7160e01b600052604160045260246000fd5b67ffffffffffffffff8111610e4a57601f01601f191660200190565b9091906001600160a01b038316801561120d57600090610e9b84611c16565b9133151580611161575b506001600160a01b0383169586158015611122575b610ec38261125c565b805460010190558683527f80bb2b638cc20bc4d0a60d66940f3ab4a00c1d7b313497ca82fb0b4ab00793026020526040832080546001600160a01b031916851790558684897fddf252ad1be2c89b69c2b068fc378daa952ba7f163c4a11628f55a4df523b3ef8680a41561107157600080516020611cb1833981519152548683527f645e039705490088daad89bae25049a34f4a9072d398537b1ab2425f24cbed03602052806040842055600160401b81101561105d5786610f9b826001610fb49401600080516020611cb1833981519152556112be565b90919082549060031b91821b91600019901b1916179055565b828703610fee575b5050505060018060a01b0316808303610fd457505050565b6364283d7b60e01b60005260045260245260445260646000fd5b610ff790611309565b60001981019290831161104957906040918152600080516020611c718339815191526020528181208382526020528582822055858152600080516020611c518339815191526020522055388080610fbc565b634e487b7160e01b82526011600452602482fd5b634e487b7160e01b83526041600452602483fd5b868314610fb45761108184611309565b868352600080516020611c51833981519152602052604083205490888452600080516020611c7183398151915260205260408420918181036110ea575b50878452600080516020611c518339815191526020528360408120558352602052816040812055610fb4565b818552826020526040852054818652836020528060408720558552600080516020611c518339815191526020526040852055386110be565b6000878152600080516020611cd18339815191526020526040902080546001600160a01b03191690556111548561125c565b8054600019019055610eba565b806111aa575b156111725738610ea5565b9250506001600160a01b031661119457602491637e27328960e01b8252600452fd5b60449163177e802f60e01b825233600452602452fd5b506001600160a01b038316331480156111f0575b8061116757506000858152600080516020611cd183398151915260205260409020546001600160a01b03163314611167565b506111fa83611223565b338252602052604081205460ff166111be565b633250574960e11b600052600060045260246000fd5b6001600160a01b031660009081527f80bb2b638cc20bc4d0a60d66940f3ab4a00c1d7b313497ca82fb0b4ab00793056020526040902090565b6001600160a01b031660009081527f80bb2b638cc20bc4d0a60d66940f3ab4a00c1d7b313497ca82fb0b4ab00793036020526040902090565b1561129d5750565b63988d1f0360e01b60009081526001600160a01b0391909116600452602490fd5b600080516020611cb1833981519152548110156112f357600080516020611cb183398151915260005260206000200190600090565b634e487b7160e01b600052603260045260246000fd5b6001600160a01b03811615611325576113219061125c565b5490565b6322718ad960e21b600052600060045260246000fd5b61134481611c16565b906001600160a01b03821615611358575090565b637e27328960e01b60005260045260246000fd5b91909160209060405161137f8382610e28565b600081526001600160a01b03821691821561120d57600061139f87611c16565b6001600160a01b0381168015801593919087908561198d575b6113c18761125c565b805460010190558b84527f80bb2b638cc20bc4d0a60d66940f3ab4a00c1d7b313497ca82fb0b4ab00793028a526040842080546001600160a01b031916831790558b82847fddf252ad1be2c89b69c2b068fc378daa952ba7f163c4a11628f55a4df523b3ef8780a4156118e25750600080516020611cb1833981519152548a83527f645e039705490088daad89bae25049a34f4a9072d398537b1ab2425f24cbed038952806040842055600160401b81101561105d579061149a8b610f9b8460018c9601600080516020611cb1833981519152556112be565b03611878575b5050611862573b611742575b505060405192608084019360a0810160405260008552600a82955b60001901956030828206018753049485156114e457600a906114c7565b8095506080910361150582820180601f198901526040519786890190610d40565b8501018460006004549261151884610dee565b93866001821691826000146117255750506001146116c9575b50611545925003601f198101865285610e28565b806000527f0542a41881ee128a365a727b282c86fa859579490b9bb45aab8503648c8e79008252604060002084519467ffffffffffffffff8611610e4a5761158d8254610dee565b601f8111611683575b508390601f87116001146115fb579580917ff8e1a15aba9398e019f0b49df1a4fde98ee17ae345cb5f6b5e2c27f5033e8ce796976000926115f0575b50508160011b916000199060031b1c19161790555b604051908152a1565b0151905038806115d2565b90601f1987169183600052856000209260005b81811061166c57509160019391897ff8e1a15aba9398e019f0b49df1a4fde98ee17ae345cb5f6b5e2c27f5033e8ce7999a9410611653575b505050811b0190556115e7565b015160001960f88460031b161c19169055388080611646565b92938760018192878601518155019501930161160e565b8260005284600020601f880160051c8101918689106116bf575b601f0160051c01905b8181106116b35750611596565b600081556001016116a6565b909150819061169d565b85915060046000527f8a35acfbc15ff81a39ae7d344fd709f28e8600b4aa8c65c6b64bfe7fe36bd19b6000905b85821061170c5750509261154593010138611531565b80548383018501528994508793909101906001016116f6565b90935061154595915060ff19168383015280151502010138611531565b8261178191604096949593965180938192630a85bd0160e11b835233600484015260006024840152876044840152608060648401526084830190610d63565b03816000895af18091600091611824575b50906117ec575050503d6000146117e5573d6117ad81610e60565b906117bb6040519283610e28565b81523d60008383013e5b805191826117e25783633250574960e11b60005260045260246000fd5b01fd5b60606117c5565b91939092916001600160e01b03191663757a42ff60e11b01611810575038806114ac565b633250574960e11b60005260045260246000fd5b8581813d831161185b575b6118398183610e28565b810103126107755751906001600160e01b031982168203610772575038611792565b503d61182f565b6339e3563760e11b600052600060045260246000fd5b61188184611309565b6000198101919082116118ce57808760409252600080516020611c71833981519152895281812083825289528a828220558a8152600080516020611c5183398151915289522055386114a0565b634e487b7160e01b81526011600452602490fd5b9080821461149a576118f384611309565b8b8452600080516020611c518339815191528a52604084205490828552600080516020611c718339815191528b526040852091818103611958575b508c8552600080516020611c518339815191528b528460408120558452895282604081205561149a565b818652828c526040862054818752838d528060408820558652600080516020611c518339815191528c5260408620553861192e565b60008c8152600080516020611cd18339815191526020526040902080546001600160a01b03191690556119bf8561125c565b80546000190190556113b8565b600080516020611c91833981519152546001600160a01b031633036119ed57565b63118cdaa760e01b6000523360045260246000fd5b823b611a10575b5050505050565b604051630a85bd0160e11b81526001600160a01b039182166004820152918116602483015260448201939093526080606482015291169160209082908190611a5c906084830190610d63565b03816000865af18091600091611ae8575b5090611ac657503d15611abf573d611a8481610e60565b90611a926040519283610e28565b81523d6000602083013e5b80519081611aba5782633250574960e11b60005260045260246000fd5b602001fd5b6060611a9d565b6001600160e01b03191663757a42ff60e11b0161181057503880808080611a09565b6020813d602011611b23575b81611b0160209383610e28565b810103126107755751906001600160e01b031982168203610772575038611a6d565b3d9150611af4565b611b348161133b565b506000527f0542a41881ee128a365a727b282c86fa859579490b9bb45aab8503648c8e7900602052604060002060405190816000825492611b7484610dee565b8084529360018116908115611bf45750600114611bad575b50611b9992500382610e28565b6000604051611ba9602082610e28565b5290565b90506000929192526020600020906000915b818310611bd8575050906020611b999282010138611b8c565b6020919350806001915483858801015201910190918392611bbf565b905060209250611b9994915060ff191682840152151560051b82010138611b8c565b60009081527f80bb2b638cc20bc4d0a60d66940f3ab4a00c1d7b313497ca82fb0b4ab007930260205260409020546001600160a01b03169056fe645e039705490088daad89bae25049a34f4a9072d398537b1ab2425f24cbed01645e039705490088daad89bae25049a34f4a9072d398537b1ab2425f24cbed009016d09d72d40fdae2fd8ceac6b6234c7706214fd39c1cd1e609a0528c199300645e039705490088daad89bae25049a34f4a9072d398537b1ab2425f24cbed0280bb2b638cc20bc4d0a60d66940f3ab4a00c1d7b313497ca82fb0b4ab0079304a2646970667358221220f1c9f43ab437f41f84ba7a873e078cb94805fb18f7f9cabe5498c85fc313774b64736f6c634300081b0033",
  "linkReferences": {},
  "deployedLinkReferences": {}
}