{
  "_format": "hh-sol-artifact-1",
  "contractName": "LETS_JP_LLC_SALE",
  "sourceName": "contracts/sc/Services/LETS/functions/extensions/LETS_JP_LLC/LETS_JP_LLC_SALE.sol",
  "abi": [
    {
      "inputs": [],
      "name": "AlreadyInitialized",
      "type": "error"
    },
    {
      "inputs": [
        {
          "internalType": "address",
          "name": "caller",
          "type": "address"
        }
      ],
      "name": "AlreadyPurchased",
      "type": "error"
    },
    {
      "inputs": [
        {
          "internalType": "address",
          "name": "operator",
          "type": "address"
        },
        {
          "internalType": "uint256",
          "name": "tokenId",
          "type": "uint256"
        }
      ],
      "name": "ERC721InsufficientApproval",
      "type": "error"
    },
    {
      "inputs": [
        {
          "internalType": "address",
          "name": "approver",
          "type": "address"
        }
      ],
      "name": "ERC721InvalidApprover",
      "type": "error"
    },
    {
      "inputs": [
        {
          "internalType": "address",
          "name": "owner",
          "type": "address"
        }
      ],
      "name": "ERC721InvalidOwner",
      "type": "error"
    },
    {
      "inputs": [
        {
          "internalType": "address",
          "name": "receiver",
          "type": "address"
        }
      ],
      "name": "ERC721InvalidReceiver",
      "type": "error"
    },
    {
      "inputs": [
        {
          "internalType": "address",
          "name": "sender",
          "type": "address"
        }
      ],
      "name": "ERC721InvalidSender",
      "type": "error"
    },
    {
      "inputs": [
        {
          "internalType": "uint256",
          "name": "tokenId",
          "type": "uint256"
        }
      ],
      "name": "ERC721NonexistentToken",
      "type": "error"
    },
    {
      "inputs": [
        {
          "internalType": "uint256",
          "name": "minPrice",
          "type": "uint256"
        },
        {
          "internalType": "uint256",
          "name": "maxPrice",
          "type": "uint256"
        },
        {
          "internalType": "uint256",
          "name": "sendValue",
          "type": "uint256"
        }
      ],
      "name": "InsufficientFunds",
      "type": "error"
    },
    {
      "inputs": [],
      "name": "InvalidPrice",
      "type": "error"
    },
    {
      "inputs": [],
      "name": "InvalidSalePeriod",
      "type": "error"
    },
    {
      "inputs": [
        {
          "internalType": "address",
          "name": "sender",
          "type": "address"
        }
      ],
      "name": "NotFounder",
      "type": "error"
    },
    {
      "inputs": [
        {
          "internalType": "address",
          "name": "caller",
          "type": "address"
        }
      ],
      "name": "NotLetsSaleDeployer",
      "type": "error"
    },
    {
      "inputs": [
        {
          "internalType": "uint256",
          "name": "saleStart",
          "type": "uint256"
        },
        {
          "internalType": "uint256",
          "name": "saleEnd",
          "type": "uint256"
        }
      ],
      "name": "NotSaleActive",
      "type": "error"
    },
    {
      "inputs": [
        {
          "internalType": "address",
          "name": "sender",
          "type": "address"
        }
      ],
      "name": "NotTreasuryRole",
      "type": "error"
    },
    {
      "inputs": [],
      "name": "SaleNotActive",
      "type": "error"
    },
    {
      "anonymous": false,
      "inputs": [
        {
          "indexed": true,
          "internalType": "address",
          "name": "owner",
          "type": "address"
        },
        {
          "indexed": true,
          "internalType": "address",
          "name": "approved",
          "type": "address"
        },
        {
          "indexed": true,
          "internalType": "uint256",
          "name": "tokenId",
          "type": "uint256"
        }
      ],
      "name": "Approval",
      "type": "event"
    },
    {
      "anonymous": false,
      "inputs": [
        {
          "indexed": true,
          "internalType": "address",
          "name": "initializer",
          "type": "address"
        }
      ],
      "name": "LETSSaleBaseInitialized",
      "type": "event"
    },
    {
      "anonymous": false,
      "inputs": [
        {
          "indexed": false,
          "internalType": "uint256",
          "name": "tokenId",
          "type": "uint256"
        },
        {
          "indexed": false,
          "internalType": "address",
          "name": "to",
          "type": "address"
        },
        {
          "indexed": false,
          "internalType": "uint256",
          "name": "price",
          "type": "uint256"
        }
      ],
      "name": "TokenPurchased",
      "type": "event"
    },
    {
      "anonymous": false,
      "inputs": [
        {
          "indexed": true,
          "internalType": "address",
          "name": "from",
          "type": "address"
        },
        {
          "indexed": true,
          "internalType": "address",
          "name": "to",
          "type": "address"
        },
        {
          "indexed": true,
          "internalType": "uint256",
          "name": "tokenId",
          "type": "uint256"
        }
      ],
      "name": "Transfer",
      "type": "event"
    },
    {
      "inputs": [
        {
          "internalType": "address",
          "name": "dictionary",
          "type": "address"
        }
      ],
      "name": "initialize",
      "outputs": [],
      "stateMutability": "nonpayable",
      "type": "function"
    },
    {
      "inputs": [
        {
          "internalType": "address",
          "name": "to",
          "type": "address"
        }
      ],
      "name": "offerToken",
      "outputs": [],
      "stateMutability": "payable",
      "type": "function"
    },
    {
      "inputs": [
        {
          "internalType": "uint256",
          "name": "saleStart",
          "type": "uint256"
        },
        {
          "internalType": "uint256",
          "name": "saleEnd",
          "type": "uint256"
        },
        {
          "internalType": "uint256",
          "name": "fixedPrice",
          "type": "uint256"
        },
        {
          "internalType": "uint256",
          "name": "minPrice",
          "type": "uint256"
        },
        {
          "internalType": "uint256",
          "name": "maxPrice",
          "type": "uint256"
        }
      ],
      "name": "setSaleInfo",
      "outputs": [],
      "stateMutability": "nonpayable",
      "type": "function"
    },
    {
      "inputs": [
        {
          "internalType": "uint256",
          "name": "fixedPrice",
          "type": "uint256"
        },
        {
          "internalType": "uint256",
          "name": "minPrice",
          "type": "uint256"
        },
        {
          "internalType": "uint256",
          "name": "maxPrice",
          "type": "uint256"
        }
      ],
      "name": "updatePrice",
      "outputs": [],
      "stateMutability": "nonpayable",
      "type": "function"
    },
    {
      "inputs": [
        {
          "internalType": "uint256",
          "name": "saleStart",
          "type": "uint256"
        },
        {
          "internalType": "uint256",
          "name": "saleEnd",
          "type": "uint256"
        }
      ],
      "name": "updateSalePeriod",
      "outputs": [],
      "stateMutability": "nonpayable",
      "type": "function"
    },
    {
      "inputs": [],
      "name": "withdraw",
      "outputs": [],
      "stateMutability": "nonpayable",
      "type": "function"
    }
  ],
  "bytecode": "0x60808060405234601557610e07908161001b8239f35b600080fdfe6080604052600436101561001257600080fd5b6000803560e01c80630f43612914610ac95780633ccfd60b14610a1e5780637bef1c3514610458578063abd3c6e914610344578063c4d66de81461012c5763fc7da9a91461005f57600080fd5b3461012957604036600319011261012957604460206001600160a01b03610084610bfb565b541660405192838092632474521560e21b82527fe1dcbdb91df27212a29bc27177c840cf2f819ecf2187432e1fac86c2dd5dfca960048301523360248301525afa801561011e576100de9183916100ef575b503390610bae565b6100ec602435600435610d13565b80f35b610111915060203d602011610117575b6101098183610b59565b810190610b91565b386100d6565b503d6100ff565b6040513d84823e3d90fd5b80fd5b5034610129576020366003190112610129576004356001600160a01b038116908190036103405760ff604051602081017ff158cb8b47a14bda3b2c4affcc0d960e9ed23f5a516e4779510b08a6e823c02581526020825261018e604083610b59565b82199151902016541661033257604051906101006101ac8184610b59565b600783526020830190601f190136823782511561031e5763abd3c6e960e01b815282516001101561031e57637bef1c3560e01b604084015282516002101561031e57633ccfd60b60e01b606084015282516003101561031e5763fc7da9a960e01b608084015282516004101561031e5763f797ca4360e01b60a084015282516005101561031e57630f43612960e01b60c084015282516006101561031e576305fa50c160e11b60e0840152813b1561031a57918380936040519384916323c45f6760e01b835260448301946040600485015251809552606483019094845b8181106102f45750508380955083809230602483015203925af180156102e7576102d7575b337fe001193f99c23bcf1352f0922ecb0692a3aa86a64d1a51b6922361820821ddd98280a280f35b6102e091610b59565b81816102af565b50604051903d90823e3d90fd5b86516001600160e01b03191683526020968701968996508895509092019160010161028a565b8380fd5b634e487b7160e01b84526032600452602484fd5b62dc149f60e41b8252600482fd5b5080fd5b50346101295760a036600319011261012957602435600435604460206001600160a01b03610370610bfb565b541660405192838092632474521560e21b82527f7ed687a8f2955bd2ba7ca08227e1e364d132be747f42fb733165f923021b022560048301523360248301525afa90811561044d57849161042e575b501561041b57906006916103d1610bfb565b9181151580610412575b610402575b50506103f3608435606435604435610c3f565b01805460ff1916600117905580f35b61040b91610d13565b38806103e0565b508015156103db565b639c2f8ac360e01b835233600452602483fd5b610447915060203d602011610117576101098183610b59565b386103bf565b6040513d86823e3d90fd5b506020366003190112610129576004356001600160a01b038116808203610a1a57610481610bfb565b600181015480151580610a0d575b6109d5575b505060ff60066104a2610bfb565b015416156109c6576104bb6104b5610bfb565b92610ccb565b6109b457506004810154801515806109a7575b1561098e5790816104ef92341015908161097f575b60053493015491610bd7565b60016104f9610bfb565b01908154600019811461096b5760010180925560209160405161051c8482610b59565b828152331561095757600261052f610d5f565b83855201845260408320546001600160a01b03168015801591908261090b575b6003610559610d5f565b33885201875260408620805460010190556002610574610d5f565b01858752875260408620336bffffffffffffffffffffffff60a01b8254161790558433837fddf252ad1be2c89b69c2b068fc378daa952ba7f163c4a11628f55a4df523b3ef8980a41561086a5760026105cb610d98565b015460036105d7610d98565b018587528752604086205560026105ec610d98565b01805490680100000000000000008210156108565760018201808255821015610842578652868620018490555b33036107e3575b6107cf57333b610666575b5060607f1cb6dd09e77cf64c9d88c8e0cf8555ebff062045f2068f22efcbc60905730e7191846040519182523390820152346040820152a180f35b836040518092630a85bd0160e11b82523360048301528560248301528460448301526080606483015280519081608484015283875b8381106107b75750505081818760a4809484010152601f8019910116810103018186335af1839181610777575b506107405750503d15610739573d67ffffffffffffffff811161072557604051906106fc601f8201601f1916850183610b59565b81523d828483013e5b8051928361072057633250574960e11b835233600452602483fd5b019050fd5b634e487b7160e01b82526041600452602482fd5b6060610705565b919290916001600160e01b03191663757a42ff60e11b01610764579190606061062b565b633250574960e11b835233600452602483fd5b9091508481813d83116107b0575b61078f8183610b59565b8101031261031a57516001600160e01b03198116810361031a5790386106c8565b503d610785565b82810182015187820160a4015286945085910161069b565b6339e3563760e11b83526004839052602483fd5b6107ec33610ccb565b600019810190811161082e57610800610d98565b3386528652604080862082875287528520849055600161081e610d98565b0184865286526040852055610620565b634e487b7160e01b85526011600452602485fd5b634e487b7160e01b87526032600452602487fd5b634e487b7160e01b87526041600452602487fd5b3381146106195761087a81610ccb565b6001610884610d98565b018587528752604086205490610898610d98565b6001600160a01b0384168852885260408720918181036108d9575b5060016108be610d98565b01868852885286604081205586528652846040812055610619565b8188528289526040882054818952838a528060408a205560016108fa610d98565b0190895289526040882055386108b3565b6004610915610d5f565b8688520187526040862080546001600160a01b03191690556003610937610d5f565b6001600160a01b038416885201875260408620805460001901905561054f565b633250574960e11b83526004839052602483fd5b634e487b7160e01b82526011600452602482fd5b600583015434111591506104e3565b5060036109a2910154349080803414610bd7565b6104ef565b50600582015415156104ce565b6367e667af60e11b8352600452602482fd5b63b7b2409760e01b8352600483fd5b8042101591826109fe575b6002015491610494576306e70a4760e51b8552600452602452604483fd5b600281015442111592506109e0565b506002820154151561048f565b8280fd5b5034610129578060031936011261012957604460206001600160a01b03610a43610bfb565b541660405192838092632474521560e21b82527fe1dcbdb91df27212a29bc27177c840cf2f819ecf2187432e1fac86c2dd5dfca960048301523360248301525afa801561011e57610a9c9183916100ef57503390610bae565b8080808047818115610ac0575b3390f115610ab45780f35b604051903d90823e3d90fd5b506108fc610aa9565b503461012957606036600319011261012957604460206001600160a01b03610aef610bfb565b541660405192838092632474521560e21b82527fe1dcbdb91df27212a29bc27177c840cf2f819ecf2187432e1fac86c2dd5dfca960048301523360248301525afa801561011e57610b489183916100ef57503390610bae565b6100ec604435602435600435610c3f565b90601f8019910116810190811067ffffffffffffffff821117610b7b57604052565b634e487b7160e01b600052604160045260246000fd5b90816020910312610ba957518015158103610ba95790565b600080fd5b15610bb65750565b638289154b60e01b60009081526001600160a01b0391909116600452602490fd5b15610be157505050565b637ab11db960e11b60005260045260245260445260646000fd5b604051602081017f0cee7785c9739c2abcb4ce591dada6e864d6d906251746912d12a62bb828bf68815260208252610c34604083610b59565b9051902060ff191690565b90610c48610bfb565b908215801580918192610cc2575b81610cb9575b8115610c93575b5015610c835715610c7657506003015550565b6005925060048201550155565b62bfc92160e01b60005260046000fd5b905080610cb0575b80610ca7575b38610c63565b50841515610ca1565b50811515610c9b565b86159150610c5c565b83159150610c56565b6001600160a01b03811615610cfd576003610ce4610d5f565b019060018060a01b031660005260205260406000205490565b6322718ad960e21b600052600060045260246000fd5b610d1b610bfb565b81151580610d56575b15610d455742821115610d455782821015610d455760029160018201550155565b631d18ab0b60e11b60005260046000fd5b50821515610d24565b604051602081017fb7b8777dfce3c027b9b4ab96baa886d0c5d5e8c8632429d2b4be0ba869cd905f815260208252610c34604083610b59565b604051602081017f2070bae6b675801f0932481e70ab724699e22000dcf2efe36a44b6070d9ee8f1815260208252610c34604083610b5956fea2646970667358221220af012ae352860dfa64c21f13b9f15f96070764ad8d99b9c87c104bec40e1112564736f6c634300081c0033",
  "linkReferences": {},
  "deployedLinkReferences": {}
}