{
  "_format": "hh-sol-artifact-1",
  "contractName": "SCR",
  "sourceName": "contracts/SCR/SCR.sol",
  "abi": [
    {
      "inputs": [],
      "stateMutability": "nonpayable",
      "type": "constructor"
    },
    {
      "inputs": [],
      "name": "AccessControlBadConfirmation",
      "type": "error"
    },
    {
      "inputs": [
        {
          "internalType": "address",
          "name": "account",
          "type": "address"
        },
        {
          "internalType": "bytes32",
          "name": "neededRole",
          "type": "bytes32"
        }
      ],
      "name": "AccessControlUnauthorizedAccount",
      "type": "error"
    },
    {
      "inputs": [
        {
          "internalType": "address",
          "name": "target",
          "type": "address"
        }
      ],
      "name": "AddressEmptyCode",
      "type": "error"
    },
    {
      "inputs": [
        {
          "internalType": "address",
          "name": "account",
          "type": "address"
        },
        {
          "internalType": "address",
          "name": "scsAddress",
          "type": "address"
        },
        {
          "internalType": "uint256",
          "name": "scsType",
          "type": "uint256"
        }
      ],
      "name": "AlreadyDeployedService",
      "type": "error"
    },
    {
      "inputs": [
        {
          "internalType": "address",
          "name": "account",
          "type": "address"
        }
      ],
      "name": "AlreadyEstablish",
      "type": "error"
    },
    {
      "inputs": [
        {
          "internalType": "address",
          "name": "_implementation",
          "type": "address"
        }
      ],
      "name": "BeaconAlreadyOnlineOrOffline",
      "type": "error"
    },
    {
      "inputs": [
        {
          "internalType": "address",
          "name": "account",
          "type": "address"
        }
      ],
      "name": "DoNotCreateSmartCompany",
      "type": "error"
    },
    {
      "inputs": [
        {
          "internalType": "address",
          "name": "implementation",
          "type": "address"
        }
      ],
      "name": "ERC1967InvalidImplementation",
      "type": "error"
    },
    {
      "inputs": [],
      "name": "ERC1967NonPayable",
      "type": "error"
    },
    {
      "inputs": [],
      "name": "FailedCall",
      "type": "error"
    },
    {
      "inputs": [
        {
          "internalType": "address",
          "name": "account",
          "type": "address"
        }
      ],
      "name": "InvalidCompanyInfo",
      "type": "error"
    },
    {
      "inputs": [
        {
          "internalType": "address",
          "name": "founder",
          "type": "address"
        }
      ],
      "name": "InvalidFounder",
      "type": "error"
    },
    {
      "inputs": [
        {
          "internalType": "address",
          "name": "_implementation",
          "type": "address"
        }
      ],
      "name": "InvalidImplementation",
      "type": "error"
    },
    {
      "inputs": [],
      "name": "InvalidInitialization",
      "type": "error"
    },
    {
      "inputs": [
        {
          "internalType": "string",
          "name": "name",
          "type": "string"
        }
      ],
      "name": "InvalidName",
      "type": "error"
    },
    {
      "inputs": [
        {
          "internalType": "address",
          "name": "account",
          "type": "address"
        }
      ],
      "name": "InvalidOtherInfo",
      "type": "error"
    },
    {
      "inputs": [],
      "name": "InvalidParam",
      "type": "error"
    },
    {
      "inputs": [],
      "name": "NotInitializing",
      "type": "error"
    },
    {
      "inputs": [
        {
          "internalType": "address",
          "name": "account",
          "type": "address"
        },
        {
          "internalType": "address",
          "name": "scsAddress",
          "type": "address"
        }
      ],
      "name": "ServiceNotOnline",
      "type": "error"
    },
    {
      "inputs": [],
      "name": "UUPSUnauthorizedCallContext",
      "type": "error"
    },
    {
      "inputs": [
        {
          "internalType": "bytes32",
          "name": "slot",
          "type": "bytes32"
        }
      ],
      "name": "UUPSUnsupportedProxiableUUID",
      "type": "error"
    },
    {
      "anonymous": false,
      "inputs": [
        {
          "indexed": true,
          "internalType": "address",
          "name": "beaconAddress",
          "type": "address"
        },
        {
          "indexed": false,
          "internalType": "string",
          "name": "name",
          "type": "string"
        }
      ],
      "name": "BeaconNameUpdated",
      "type": "event"
    },
    {
      "anonymous": false,
      "inputs": [
        {
          "indexed": true,
          "internalType": "address",
          "name": "beaconAddress",
          "type": "address"
        }
      ],
      "name": "BeaconOffline",
      "type": "event"
    },
    {
      "anonymous": false,
      "inputs": [
        {
          "indexed": true,
          "internalType": "address",
          "name": "beaconAddress",
          "type": "address"
        }
      ],
      "name": "BeaconOnline",
      "type": "event"
    },
    {
      "anonymous": false,
      "inputs": [
        {
          "indexed": true,
          "internalType": "address",
          "name": "account",
          "type": "address"
        },
        {
          "indexed": true,
          "internalType": "uint256",
          "name": "fieldIndex",
          "type": "uint256"
        },
        {
          "indexed": false,
          "internalType": "string",
          "name": "legalEntityCode",
          "type": "string"
        }
      ],
      "name": "DeleteCompanyInfoField",
      "type": "event"
    },
    {
      "anonymous": false,
      "inputs": [
        {
          "indexed": false,
          "internalType": "uint64",
          "name": "version",
          "type": "uint64"
        }
      ],
      "name": "Initialized",
      "type": "event"
    },
    {
      "anonymous": false,
      "inputs": [
        {
          "indexed": true,
          "internalType": "address",
          "name": "founder_",
          "type": "address"
        },
        {
          "indexed": true,
          "internalType": "address",
          "name": "company_",
          "type": "address"
        },
        {
          "indexed": true,
          "internalType": "uint256",
          "name": "companyIndex_",
          "type": "uint256"
        },
        {
          "indexed": false,
          "internalType": "bytes",
          "name": "scid_",
          "type": "bytes"
        }
      ],
      "name": "NewSmartCompany",
      "type": "event"
    },
    {
      "anonymous": false,
      "inputs": [
        {
          "indexed": true,
          "internalType": "address",
          "name": "proxyAddress",
          "type": "address"
        },
        {
          "indexed": false,
          "internalType": "string",
          "name": "name",
          "type": "string"
        }
      ],
      "name": "ProxyAdded",
      "type": "event"
    },
    {
      "anonymous": false,
      "inputs": [
        {
          "indexed": true,
          "internalType": "address",
          "name": "proxyAddress",
          "type": "address"
        },
        {
          "indexed": false,
          "internalType": "string",
          "name": "name",
          "type": "string"
        }
      ],
      "name": "ProxyCreated",
      "type": "event"
    },
    {
      "anonymous": false,
      "inputs": [
        {
          "indexed": true,
          "internalType": "bytes32",
          "name": "role",
          "type": "bytes32"
        },
        {
          "indexed": true,
          "internalType": "bytes32",
          "name": "previousAdminRole",
          "type": "bytes32"
        },
        {
          "indexed": true,
          "internalType": "bytes32",
          "name": "newAdminRole",
          "type": "bytes32"
        }
      ],
      "name": "RoleAdminChanged",
      "type": "event"
    },
    {
      "anonymous": false,
      "inputs": [
        {
          "indexed": true,
          "internalType": "bytes32",
          "name": "role",
          "type": "bytes32"
        },
        {
          "indexed": true,
          "internalType": "address",
          "name": "account",
          "type": "address"
        },
        {
          "indexed": true,
          "internalType": "address",
          "name": "sender",
          "type": "address"
        }
      ],
      "name": "RoleGranted",
      "type": "event"
    },
    {
      "anonymous": false,
      "inputs": [
        {
          "indexed": true,
          "internalType": "bytes32",
          "name": "role",
          "type": "bytes32"
        },
        {
          "indexed": true,
          "internalType": "address",
          "name": "account",
          "type": "address"
        },
        {
          "indexed": true,
          "internalType": "address",
          "name": "sender",
          "type": "address"
        }
      ],
      "name": "RoleRevoked",
      "type": "event"
    },
    {
      "anonymous": false,
      "inputs": [
        {
          "indexed": true,
          "internalType": "address",
          "name": "account_",
          "type": "address"
        },
        {
          "indexed": true,
          "internalType": "uint256",
          "name": "count_",
          "type": "uint256"
        }
      ],
      "name": "SetCompanyServiceCount",
      "type": "event"
    },
    {
      "anonymous": false,
      "inputs": [
        {
          "indexed": true,
          "internalType": "address",
          "name": "account_",
          "type": "address"
        },
        {
          "indexed": true,
          "internalType": "address",
          "name": "pool_",
          "type": "address"
        }
      ],
      "name": "SetFactoryPool",
      "type": "event"
    },
    {
      "anonymous": false,
      "inputs": [
        {
          "indexed": true,
          "internalType": "address",
          "name": "account",
          "type": "address"
        },
        {
          "indexed": true,
          "internalType": "uint256",
          "name": "fieldIndex",
          "type": "uint256"
        },
        {
          "indexed": false,
          "internalType": "string",
          "name": "legalEntityCode",
          "type": "string"
        },
        {
          "indexed": false,
          "internalType": "string",
          "name": "field",
          "type": "string"
        }
      ],
      "name": "UpdateCompanyInfoField",
      "type": "event"
    },
    {
      "anonymous": false,
      "inputs": [
        {
          "indexed": true,
          "internalType": "address",
          "name": "implementation",
          "type": "address"
        }
      ],
      "name": "Upgraded",
      "type": "event"
    },
    {
      "inputs": [],
      "name": "DEFAULT_ADMIN_ROLE",
      "outputs": [
        {
          "internalType": "bytes32",
          "name": "",
          "type": "bytes32"
        }
      ],
      "stateMutability": "view",
      "type": "function"
    },
    {
      "inputs": [],
      "name": "FOUNDER_ROLE",
      "outputs": [
        {
          "internalType": "bytes32",
          "name": "",
          "type": "bytes32"
        }
      ],
      "stateMutability": "view",
      "type": "function"
    },
    {
      "inputs": [],
      "name": "UPGRADE_INTERFACE_VERSION",
      "outputs": [
        {
          "internalType": "string",
          "name": "",
          "type": "string"
        }
      ],
      "stateMutability": "view",
      "type": "function"
    },
    {
      "inputs": [
        {
          "internalType": "address",
          "name": "founder",
          "type": "address"
        }
      ],
      "name": "_votes",
      "outputs": [
        {
          "internalType": "address",
          "name": "_vote",
          "type": "address"
        }
      ],
      "stateMutability": "view",
      "type": "function"
    },
    {
      "inputs": [
        {
          "internalType": "string",
          "name": "_legalEntityCode",
          "type": "string"
        },
        {
          "internalType": "string",
          "name": "_field",
          "type": "string"
        }
      ],
      "name": "addCompanyInfoFields",
      "outputs": [],
      "stateMutability": "nonpayable",
      "type": "function"
    },
    {
      "inputs": [
        {
          "internalType": "address",
          "name": "",
          "type": "address"
        }
      ],
      "name": "beacons",
      "outputs": [
        {
          "internalType": "string",
          "name": "name",
          "type": "string"
        },
        {
          "internalType": "address",
          "name": "beacon",
          "type": "address"
        },
        {
          "internalType": "bool",
          "name": "isOnline",
          "type": "bool"
        },
        {
          "internalType": "uint256",
          "name": "proxyCount",
          "type": "uint256"
        }
      ],
      "stateMutability": "view",
      "type": "function"
    },
    {
      "inputs": [
        {
          "internalType": "bytes",
          "name": "_scid",
          "type": "bytes"
        },
        {
          "internalType": "address",
          "name": "_scImplementation",
          "type": "address"
        },
        {
          "internalType": "string",
          "name": "_legalEntityCode",
          "type": "string"
        },
        {
          "internalType": "string",
          "name": "_companyName",
          "type": "string"
        },
        {
          "internalType": "string",
          "name": "_establishmentDate",
          "type": "string"
        },
        {
          "internalType": "string",
          "name": "_jurisdiction",
          "type": "string"
        },
        {
          "internalType": "string",
          "name": "_entityType",
          "type": "string"
        },
        {
          "internalType": "bytes",
          "name": "_scExtraParams",
          "type": "bytes"
        },
        {
          "internalType": "string[]",
          "name": "_otherInfo",
          "type": "string[]"
        },
        {
          "internalType": "address[]",
          "name": "_scsAddresses",
          "type": "address[]"
        },
        {
          "internalType": "bytes[]",
          "name": "_scsExtraParams",
          "type": "bytes[]"
        }
      ],
      "name": "createSmartCompany",
      "outputs": [
        {
          "internalType": "bool",
          "name": "started_",
          "type": "bool"
        },
        {
          "internalType": "address",
          "name": "companyAddress_",
          "type": "address"
        },
        {
          "internalType": "address[]",
          "name": "services_",
          "type": "address[]"
        }
      ],
      "stateMutability": "nonpayable",
      "type": "function"
    },
    {
      "inputs": [
        {
          "internalType": "string",
          "name": "_legalEntityCode",
          "type": "string"
        },
        {
          "internalType": "uint256",
          "name": "_fieldIndex",
          "type": "uint256"
        }
      ],
      "name": "deleteCompanyInfoFields",
      "outputs": [],
      "stateMutability": "nonpayable",
      "type": "function"
    },
    {
      "inputs": [
        {
          "internalType": "bytes",
          "name": "_scid",
          "type": "bytes"
        }
      ],
      "name": "getCompanyInfo",
      "outputs": [
        {
          "components": [
            {
              "internalType": "string",
              "name": "companyName",
              "type": "string"
            },
            {
              "internalType": "address",
              "name": "companyAddress",
              "type": "address"
            },
            {
              "internalType": "address",
              "name": "founder",
              "type": "address"
            },
            {
              "internalType": "string",
              "name": "establishmentDate",
              "type": "string"
            },
            {
              "internalType": "string",
              "name": "jurisdiction",
              "type": "string"
            },
            {
              "internalType": "string",
              "name": "companyType",
              "type": "string"
            },
            {
              "internalType": "uint256",
              "name": "createAt",
              "type": "uint256"
            },
            {
              "internalType": "uint256",
              "name": "updateAt",
              "type": "uint256"
            }
          ],
          "internalType": "struct ISCR.CompanyInfo",
          "name": "_info",
          "type": "tuple"
        }
      ],
      "stateMutability": "view",
      "type": "function"
    },
    {
      "inputs": [
        {
          "internalType": "string",
          "name": "_legalEntityCode",
          "type": "string"
        }
      ],
      "name": "getCompanyInfoFields",
      "outputs": [
        {
          "internalType": "string[]",
          "name": "fields_",
          "type": "string[]"
        }
      ],
      "stateMutability": "view",
      "type": "function"
    },
    {
      "inputs": [
        {
          "internalType": "bytes",
          "name": "_scid",
          "type": "bytes"
        },
        {
          "internalType": "string",
          "name": "_field",
          "type": "string"
        }
      ],
      "name": "getCompanyOtherInfo",
      "outputs": [
        {
          "internalType": "string",
          "name": "_value",
          "type": "string"
        }
      ],
      "stateMutability": "view",
      "type": "function"
    },
    {
      "inputs": [
        {
          "internalType": "address",
          "name": "founder_",
          "type": "address"
        }
      ],
      "name": "getFounderCompanies",
      "outputs": [
        {
          "internalType": "bytes",
          "name": "companyNumber",
          "type": "bytes"
        }
      ],
      "stateMutability": "view",
      "type": "function"
    },
    {
      "inputs": [
        {
          "internalType": "bytes32",
          "name": "role",
          "type": "bytes32"
        }
      ],
      "name": "getRoleAdmin",
      "outputs": [
        {
          "internalType": "bytes32",
          "name": "",
          "type": "bytes32"
        }
      ],
      "stateMutability": "view",
      "type": "function"
    },
    {
      "inputs": [
        {
          "internalType": "bytes32",
          "name": "role",
          "type": "bytes32"
        },
        {
          "internalType": "uint256",
          "name": "index",
          "type": "uint256"
        }
      ],
      "name": "getRoleMember",
      "outputs": [
        {
          "internalType": "address",
          "name": "",
          "type": "address"
        }
      ],
      "stateMutability": "view",
      "type": "function"
    },
    {
      "inputs": [
        {
          "internalType": "bytes32",
          "name": "role",
          "type": "bytes32"
        }
      ],
      "name": "getRoleMemberCount",
      "outputs": [
        {
          "internalType": "uint256",
          "name": "",
          "type": "uint256"
        }
      ],
      "stateMutability": "view",
      "type": "function"
    },
    {
      "inputs": [
        {
          "internalType": "bytes32",
          "name": "role",
          "type": "bytes32"
        }
      ],
      "name": "getRoleMembers",
      "outputs": [
        {
          "internalType": "address[]",
          "name": "",
          "type": "address[]"
        }
      ],
      "stateMutability": "view",
      "type": "function"
    },
    {
      "inputs": [
        {
          "internalType": "address",
          "name": "_scImplementation",
          "type": "address"
        }
      ],
      "name": "getSCInfo",
      "outputs": [
        {
          "components": [
            {
              "internalType": "string",
              "name": "name",
              "type": "string"
            },
            {
              "internalType": "address",
              "name": "beacon",
              "type": "address"
            },
            {
              "internalType": "bool",
              "name": "isOnline",
              "type": "bool"
            },
            {
              "internalType": "uint256",
              "name": "proxyCount",
              "type": "uint256"
            }
          ],
          "internalType": "struct IBeaconUpgradeableBase.Beacon",
          "name": "_info",
          "type": "tuple"
        }
      ],
      "stateMutability": "view",
      "type": "function"
    },
    {
      "inputs": [],
      "name": "getServiceFactory",
      "outputs": [
        {
          "internalType": "address",
          "name": "",
          "type": "address"
        }
      ],
      "stateMutability": "view",
      "type": "function"
    },
    {
      "inputs": [
        {
          "internalType": "address",
          "name": "founder_",
          "type": "address"
        }
      ],
      "name": "getVoteContract",
      "outputs": [
        {
          "internalType": "address",
          "name": "",
          "type": "address"
        }
      ],
      "stateMutability": "view",
      "type": "function"
    },
    {
      "inputs": [
        {
          "internalType": "bytes32",
          "name": "role",
          "type": "bytes32"
        },
        {
          "internalType": "address",
          "name": "account",
          "type": "address"
        }
      ],
      "name": "grantRole",
      "outputs": [],
      "stateMutability": "nonpayable",
      "type": "function"
    },
    {
      "inputs": [
        {
          "internalType": "bytes32",
          "name": "role",
          "type": "bytes32"
        },
        {
          "internalType": "address",
          "name": "account",
          "type": "address"
        }
      ],
      "name": "hasRole",
      "outputs": [
        {
          "internalType": "bool",
          "name": "",
          "type": "bool"
        }
      ],
      "stateMutability": "view",
      "type": "function"
    },
    {
      "inputs": [
        {
          "internalType": "address",
          "name": "serviceFactory_",
          "type": "address"
        },
        {
          "internalType": "address",
          "name": "voteContract_",
          "type": "address"
        }
      ],
      "name": "initialize",
      "outputs": [],
      "stateMutability": "nonpayable",
      "type": "function"
    },
    {
      "inputs": [],
      "name": "proxiableUUID",
      "outputs": [
        {
          "internalType": "bytes32",
          "name": "",
          "type": "bytes32"
        }
      ],
      "stateMutability": "view",
      "type": "function"
    },
    {
      "inputs": [
        {
          "internalType": "bytes32",
          "name": "role",
          "type": "bytes32"
        },
        {
          "internalType": "address",
          "name": "callerConfirmation",
          "type": "address"
        }
      ],
      "name": "renounceRole",
      "outputs": [],
      "stateMutability": "nonpayable",
      "type": "function"
    },
    {
      "inputs": [
        {
          "internalType": "bytes32",
          "name": "role",
          "type": "bytes32"
        },
        {
          "internalType": "address",
          "name": "account",
          "type": "address"
        }
      ],
      "name": "revokeRole",
      "outputs": [],
      "stateMutability": "nonpayable",
      "type": "function"
    },
    {
      "inputs": [
        {
          "internalType": "bytes",
          "name": "_scid",
          "type": "bytes"
        },
        {
          "internalType": "string",
          "name": "_field",
          "type": "string"
        },
        {
          "internalType": "string",
          "name": "_value",
          "type": "string"
        }
      ],
      "name": "setCompanyOtherInfo",
      "outputs": [],
      "stateMutability": "nonpayable",
      "type": "function"
    },
    {
      "inputs": [
        {
          "internalType": "address",
          "name": "_scImplementation",
          "type": "address"
        },
        {
          "internalType": "string",
          "name": "_scName",
          "type": "string"
        }
      ],
      "name": "setSCContract",
      "outputs": [],
      "stateMutability": "nonpayable",
      "type": "function"
    },
    {
      "inputs": [
        {
          "internalType": "address",
          "name": "serviceFactory_",
          "type": "address"
        }
      ],
      "name": "setServiceFactory",
      "outputs": [],
      "stateMutability": "nonpayable",
      "type": "function"
    },
    {
      "inputs": [
        {
          "internalType": "bytes4",
          "name": "interfaceId",
          "type": "bytes4"
        }
      ],
      "name": "supportsInterface",
      "outputs": [
        {
          "internalType": "bool",
          "name": "",
          "type": "bool"
        }
      ],
      "stateMutability": "view",
      "type": "function"
    },
    {
      "inputs": [
        {
          "internalType": "string",
          "name": "_legalEntityCode",
          "type": "string"
        },
        {
          "internalType": "uint256",
          "name": "_fieldIndex",
          "type": "uint256"
        },
        {
          "internalType": "string",
          "name": "_field",
          "type": "string"
        }
      ],
      "name": "updateCompanyInfoFields",
      "outputs": [],
      "stateMutability": "nonpayable",
      "type": "function"
    },
    {
      "inputs": [
        {
          "internalType": "address",
          "name": "_scImplementation",
          "type": "address"
        },
        {
          "internalType": "string",
          "name": "_scName",
          "type": "string"
        }
      ],
      "name": "updateSCContract",
      "outputs": [],
      "stateMutability": "nonpayable",
      "type": "function"
    },
    {
      "inputs": [
        {
          "internalType": "address",
          "name": "newImplementation",
          "type": "address"
        },
        {
          "internalType": "bytes",
          "name": "data",
          "type": "bytes"
        }
      ],
      "name": "upgradeToAndCall",
      "outputs": [],
      "stateMutability": "payable",
      "type": "function"
    },
    {
      "inputs": [],
      "name": "voteContract",
      "outputs": [
        {
          "internalType": "address",
          "name": "",
          "type": "address"
        }
      ],
      "stateMutability": "view",
      "type": "function"
    }
  ],
  "bytecode": "0x60a06040523461003c57610011610041565b3060805261001d610041565b6040516140ce908161010082396080518181816120b201526121570152f35b600080fd5b7ff0c57e16840df040f15088dc2f81fe391c3923bec73e23a9662efc9c229c6a005460ff8160401c166100ee576002600160401b03196001600160401b038216016100895750565b6001600160401b0319166001600160401b039081177ff0c57e16840df040f15088dc2f81fe391c3923bec73e23a9662efc9c229c6a00556040519081527fc7f505b2f371ae2175ee4913f4499e1f2633a7b5936321eed1cdaeb6115181d290602090a1565b63f92ee8a960e01b60005260046000fdfe61020080604052600436101561001457600080fd5b60003560e01c90816301ffc9a714612aab575080630d2c42401461293f578063130e1928146128fd578063157ab3b9146128fd578063248a9ca3146128d75780632f2ff15d146128a657806336568abe14612860578063485cc955146123615780634e5f4d401461231d5780634f1ef2861461210957806352d1902d1461209f57806363c26fdd14611e815780637ded8f8414611e5857806384b7596d14610ddc57806385a59bef14610bb65780639010d07c14610b6257806391d1485414610b085780639cad172a14610a7e578063a05aa489146109a9578063a217fddf1461098d578063a3246ad314610903578063ad3cb1cc146108bc578063b1cd51ef1461085c578063bb6f22ec14610794578063c10015c01461072a578063c1e6f304146106ef578063ca15c873146106b6578063d0c2853b14610597578063d547741f1461055f578063e150812c14610473578063e54d64f91461036a578063ee183c4a146103415763efc306a11461018b57600080fd5b3461033c57602036600319011261033c576004356001600160401b03811161033c576020806101c1610100933690600401612b18565b91906101cb612f94565b50826040519384928337810160068152030190206040516101eb81612bb9565b604051610203816101fc8186612d4d565b0382612bf0565b815261032a6005610317600461030460018060a01b03600188015416888701908152600360018060a01b0360028a015416604089019081526102568a61024f6040518095819301612d4d565b0383612bf0565b606089019182526102788a6102716040518098819301612d4d565b0386612bf0565b6080890194855261029a8a610293604051809a819301612d4d565b0388612bf0565b60a089019687526102d8600760068c01549b60c08c019c8d5201549960e081019a8b526040519d8d8f9e928f938452519201526101208d0190612b94565b92516001600160a01b0390811660408d015290511660608b015251898203601f190160808b0152612b94565b9051878203601f190160a0890152612b94565b9051858203601f190160c0870152612b94565b915160e0840152516101008301520390f35b600080fd5b3461033c57600036600319011261033c576004546040516001600160a01b039091168152602090f35b3461033c57602036600319011261033c576004356001600160401b03811161033c5761039c6020913690600401612b18565b9190826040519384928337810160058152030190208054906103bd82612fd4565b916103cb6040519384612bf0565b80835260208301809260005260206000206000915b83831061044e57848660405191829160208301906020845251809152604083019060408160051b85010192916000905b82821061041f57505050500390f35b9193600191939550602061043e8192603f198a82030186528851612b94565b9601920192018594939192610410565b600160208192604051610465816101fc8189612d4d565b8152019201920191906103e0565b3461033c57606036600319011261033c576004356001600160401b03811161033c576104a3903690600401612b18565b90602435916044356001600160401b03811161033c576104c7903690600401612b18565b916104d0613148565b6040518185823760208183810160058152030190205485101561054e576105498361053b7fc145ce168143e73cee68794acea64e5ff230bc3ac32bb4141c8cb5e81d39977895856105358a604051888c82376020818a8101600581520301902061305f565b90613077565b604051938493339785613087565b0390a3005b633494a40d60e21b60005260046000fd5b3461033c57604036600319011261033c5761059560043561057e612b5b565b9061059061058b82612f52565b61319b565b61322d565b005b3461033c576105db7f88a60344e42b24d91cf44b213631613b7d33652bffd66e209d48838c9dc5508b6105c936612cd0565b6105d4949294613148565b3691612c2c565b6105e36130b1565b506001600160a01b038316926105fb90841515613271565b805160208201206106418260209260006040516106188682612bf0565b527fc5d2460186f7233c927e7db2dcc703c0e500b653ca82273b7bfad8045d85a470141561329a565b836000526000815281604060002060026040519161065e83612bd5565b6106766040518061066f8185612d4d565b0390612bf0565b60ff600182015460018060a01b0381168786015260a01c161515604084015201546060820152526106b1604051928284938452830190612b94565b0390a2005b3461033c57602036600319011261033c57600435600052600080516020613ff98339815191526020526020604060002054604051908152f35b3461033c57600036600319011261033c5760206040517f7ed687a8f2955bd2ba7ca08227e1e364d132be747f42fb733165f923021b02258152f35b3461033c57602036600319011261033c57610743612b45565b61074b613148565b6001600160a01b0316801561054e57600280546001600160a01b03191682179055337f9c3a85cb9f7340b916bee5f5e6f2598f42bd89978743f4f6aba2d7d02749e8c4600080a3005b3461033c57602036600319011261033c576107ad612b45565b6107b56130b1565b5060018060a01b0316600052600060205261083a6040600020604051906107db82612bd5565b6040516107ec816101fc8185612d4d565b825260018101546002602084019260018060a01b038316845260ff604086019360a01c16151583520154906060840191825260405194859460208652516080602087015260a0860190612b94565b92516001600160a01b0316604085015251151560608401525160808301520390f35b3461033c576108b86101fc6108a4610898602061087836612dd0565b926000949194508260405193849283378101600781520301902091612e1c565b60405192838092612d4d565b604051918291602083526020830190612b94565b0390f35b3461033c57600036600319011261033c576108b860408051906108df8183612bf0565b60058252640352e302e360dc1b602083015251918291602083526020830190612b94565b3461033c57602036600319011261033c57600435600052600080516020613ff9833981519152602052604060002060405190816020825491828152019160005260206000209060005b818110610977576108b88561096381870382612bf0565b604051918291602083526020830190612c93565b825484526020909301926001928301920161094c565b3461033c57600036600319011261033c57602060405160008152f35b3461033c576109b736612dd0565b906109c3939293613148565b604051848482376020818681016005815203019020805490600160401b821015610a68578261053583869360016109fc9601815561305f565b60405184848237602081868101600581520301902054936000198501948511610a52576105497fc145ce168143e73cee68794acea64e5ff230bc3ac32bb4141c8cb5e81d39977893604051938493339785613087565b634e487b7160e01b600052601160045260246000fd5b634e487b7160e01b600052604160045260246000fd5b3461033c57602036600319011261033c576001600160a01b03610a9f612b45565b166000526000602052610ae2604060002060405190610ac28261024f8184612d4d565b6002600182015491015460ff604051948594608086526080860190612b94565b6001600160a01b038416602086015260a09390931c161515604084015260608301520390f35b3461033c57604036600319011261033c57610b21612b5b565b60043560005260008051602061405983398151915260205260406000209060018060a01b0316600052602052602060ff604060002054166040519015158152f35b3461033c57604036600319011261033c57600435600052600080516020613ff98339815191526020526020610b9d602435604060002061305f565b905460405160039290921b1c6001600160a01b03168152f35b3461033c57610bd2610bc736612cd0565b6105d4939293613148565b6001600160a01b0382169190610bea82841515613271565b8051602082012091610c088260209460006040516106188882612bf0565b604051906103da8083018381106001600160401b03821117610a68578392610c469261377285396001600160a01b0316815233602082015260400190565b03906000f08015610dd05760018060a01b031691604051610c6681612bd5565b828152818101848152604082016001815260608301966000885260005260008452604060002092518051906001600160401b038211610a6857610cb382610cad8754612d13565b87612e4c565b8590601f8311600114610d555782600295936000805160206140198339815191529a9b9593610cf993600092610d4a575b50508160011b916000199060031b1c19161790565b85555b9051600185018054925160ff60a01b90151560a01b166001600160a01b039092166001600160a81b031990931692909217179055519101556040518181529182916106b19190830190612b94565b015190508c80610ce4565b90601f1983169186600052876000209260005b818110610db95750926001928592600298966000805160206140198339815191529d9e989610610da0575b505050811b018555610cfc565b015160001960f88460031b161c191690558b8080610d93565b929389600181928786015181550195019301610d68565b6040513d6000823e3d90fd5b3461033c5761016036600319011261033c576004356001600160401b03811161033c57610e0d903690600401612b18565b60e05261012052610e1c612b5b565b610180526044356001600160401b03811161033c57610e3f903690600401612b18565b6064356001600160401b03811161033c57610e5e903690600401612b18565b9061014052916084356001600160401b03811161033c57610e83903690600401612b18565b906101a0529160a4356001600160401b03811161033c57610ea8903690600401612b18565b92909160c4356001600160401b03811161033c57610eca903690600401612b18565b6101e0529560e4356001600160401b03811161033c57610eee903690600401612b18565b979096610104356001600160401b03811161033c57610f11903690600401612c63565b969097610124356001600160401b03811161033c57610f34903690600401612c63565b60c0526101c052610144356001600160401b03811161033c57610f5b903690600401612c63565b61016052608052610f6a6130d6565b3360005260086020526101fc610f8a604060002060405192838092612d4d565b8051602091820120610100829052604051909160009190610fab9082612bf0565b527fc5d2460186f7233c927e7db2dcc703c0e500b653ca82273b7bfad8045d85a47003611e435760e051151580611e3a575b80611e31575b80611e25575b15611e1057604051868882378681016005815281610100519103019020548803611dfb576110486110569361103161106897611023612f94565b60a052369061014051612c2c565b60a0515233604060a051015236906101a051612c2c565b606060a05101523691612c2c565b60a051608001526101e0513691612c2c565b60a0805101524260c060a05101524260e060a051015280604051928337810160058152816101005191030190209081546110a181612fd4565b926110af6040519485612bf0565b8184526101005160009182528082209085015b838310611dd4575050505060005b818110611d6657856111948660018060a01b036101805116600052600061010051526040600020606060026040519261110884612bd5565b604051611119816101fc8185612d4d565b845260ff600182015460018060a01b0381166101005187015260a01c1615156040850152015491015261118660018060a01b03604060a0510151169160405194859363cf7a1d7760e01b610100518601526024850152306044850152606060648501526084840191612f73565b03601f198101835282612bf0565b60018060a01b0361018051166000526000610100515260018060a01b0360016040600020015416604051916104ad8301908382106001600160401b03831117610a685760406111f89285946104ad613b4c8739815281610100518201520190612b94565b03906000f08015610dd0576001600160a01b03811615611d51576101005160a0516001600160a01b03831691015260405160e05161012051823760e051810160068152816101005191030190209060a051518051906001600160401b038211610a685761126f826112698654612d13565b86612e4c565b6101005190601f8311600114611ce1576112a1929160009183611cd65750508160011b916000199060031b1c19161790565b82555b6101005160a051908101516001840180546001600160a01b039283166001600160a01b031991821617909155604083015160028601805491909316911617905560600151805190929060038201906001600160401b038111610a68576113148161130e8454612d13565b84612e4c565b6101005194601f8211600114611c6c57611349929394958291600092611b8d5750508160011b916000199060031b1c19161790565b90555b6004810191608060a05101519283516001600160401b038111610a68576113778161130e8454612d13565b6101005194601f8211600114611c02576113ac929394958291600092611b8d5750508160011b916000199060031b1c19161790565b90555b600582019160a0805101519283516001600160401b038111610a68576113d98161130e8454612d13565b6101005194601f8211600114611b985761140e929394958291600092611b8d5750508160011b916000199060031b1c19161790565b90555b60c060a05101516006820155600760e060a051015191015560018060a01b03604060a0510151166000526008610100515260406000206001600160401b0360e05111610a685761146d60e0516114678354612d13565b83612e4c565b6000601f60e05111600114611b1b576114a39060009060e051611b0d575b5060e051908160011b916000199060031b1c19161790565b90555b610180516001600160a01b03166000908152610100518190526040902060020180546000198114610a525760019081019091556001600160a01b0382811660008181526101008051949094526040808220610180805186168452865184905282842060020154845286519190915281832080546001600160a01b031916851790555190931681528351819052829020915183518152925190927fe35b82bca01e71e894f240151ca3eb50c7efe37e4d5cce6d7ca0019d4b678e21929091829161157191830190612d4d565b0390a260018060a01b03604060a0510151169061158f60c051612fd4565b9161159d6040519384612bf0565b60c0518352601f196115b060c051612fd4565b0136610100518501376115c460c051612fd4565b916115d26040519384612bf0565b60c0518352601f196115e560c051612fd4565b01366101005185013760005b60c051811061172e578483836040519163207571bb60e11b835260048301526040602483015261010051828061162a6044820187612c93565b038160006001600160a01b0386165af1918215610dd0576000926116ed575b5081611688575b506108b860018060a01b036101005160a051015116926040519384931515845261010051840152606060408401526060830190612c93565b60009060018060a01b03604060a0510151167f3c8076e3ec4890f9ac7f59cc3fef7136811e3346f26ecae72e510a832e8ef7e96040519261010051845260018060a01b031692806116e461010051820160e05161012051612f73565b0390a482611650565b909150610100513d6101005111611727575b6117098183612bf0565b8161010051918101031261033c57611720906135d5565b9083611649565b503d6116ff565b60008060018060a01b036002541660246117566117518660c0516101c05161359d565b6135ad565b604051630ad2918160e11b81526001600160a01b0390911660048201529384928391905af1908115610dd0576000908192611a5c575b50600019865180611a11575b506117ac6117518560c0516101c05161359d565b90196119ec57506117c66117518460c0516101c05161359d565b90156119c7575060018060a01b0360025416906117ec6117518460c0516101c05161359d565b906117fd8461016051608051612feb565b9060058310156119b15760405163c3cbf96960e01b8152600481018990526001600160a01b038881166024830152909416604485015260a060648501526118489160a4850191612f73565b82600094836084830152818681610100519503925af180156119a6578390611961575b60029250611879858a61304b565b6001600160a01b03909116905280611891858961304b565b52146118a1575b506001016115f1565b6004546001600160a01b03908116825261010051829052604080832060010154905191166001600160401b036104ad83019081119083111761194d576104ad613b4c83396104ad820190815261010051604090820181905281018390528190036060019082f09081156119415784815261010051600990526040902080546001600160a01b0319166001600160a01b039092169190911790556001611898565b604051903d90823e3d90fd5b634e487b7160e01b83526041600452602483fd5b5090610100513d610100511161199f575b61197c8183612bf0565b8161010051918101031261199b57906119966002926135c1565b61186b565b8280fd5b503d611972565b6040513d85823e3d90fd5b634e487b7160e01b600052602160045260246000fd5b632dbcd65f60e21b6000908152336004526001600160a01b0391909116602452604490fd5b9050635ecb2bc760e11b6000523360045260018060a01b031660245260445260646000fd5b6001810160051b880180519085905294979394845b610100510186815103611a2657600190920160051b850190815293979493811461179857879003601f190160051c905088611798565b91503d8082843e611a6d8184612bf0565b60a0838281010312611b09578251906001600160401b03821161199b57808401601f83860101121561199b578184015192611aa784612c11565b91611ab56040519384612bf0565b84835285016101005185858801010111611b06575061010051611adf939291810191850101612b71565b611aed6101005182016135c1565b506080611afc604083016135d5565b910151908761178c565b80fd5b5080fd5b90506101205101358461148b565b60e0518282526101005182209190601f1916815b818110611b70575060e05111611b51575b5050600160e051811b0190556114a6565b60001960f860e05160031b161c19906101205101351690558280611b40565b610120518301358455610100516001909401939283019201611b2f565b015190508680610ce4565b601f1982169583600052610100516000209160005b888110611be857508360019596979810611bcf575b505050811b019055611411565b015160001960f88460031b161c19169055858080611bc2565b818301518455610100516001909401939283019201611bad565b601f1982169583600052610100516000209160005b888110611c5257508360019596979810611c39575b505050811b0190556113af565b015160001960f88460031b161c19169055858080611c2c565b818301518455610100516001909401939283019201611c17565b601f1982169583600052610100516000209160005b888110611cbc57508360019596979810611ca3575b505050811b01905561134c565b015160001960f88460031b161c19169055858080611c96565b818301518455610100516001909401939283019201611c81565b015190508580610ce4565b91908460005261010051600020906000935b601f1984168510611d34576001945083601f19811610611d1b575b505050811b0182556112a4565b015160001960f88460031b161c19169055848080611d0e565b818101518355610100519485019460019093019290910190611cf3565b637f7ddf5360e11b6000523360045260246000fd5b80611dce611d776001938588612feb565b90611dba60405160e05161012051823760e05181016007815281610100519103019020611da4868a61304b565b5160405192818492519283916101005101612b71565b820190815281610100519103019020612e93565b016110d0565b60018091604051611de9816101fc8188612d4d565b815261010051019201920191906110c2565b63d798c35f60e01b6000523360045260246000fd5b6307aed42160e41b6000523360045260246000fd5b506101e0511515610fe9565b50801515610fe3565b50821515610fdd565b634ffae7a760e11b6000523360045260246000fd5b3461033c57600036600319011261033c576002546040516001600160a01b039091168152602090f35b3461033c57604036600319011261033c576004356001600160401b03811161033c57611eb1903690600401612b18565b90602435611ebd613148565b60405183838237602081858101600581520301902092835492838310156120645760001984019384119383855b610a525781811015611f445760018101808211610a5257611f0b908861305f565b5090611f17818961305f565b611f2e57600192611f27916132cb565b0185611eea565b634e487b7160e01b600052600060045260246000fd5b5050848054801561204e576000190190611f5e828261305f565b611f2e57611f6c8154612d13565b908161200a575b50508181556020611f8383612fd4565b611f906040519182612bf0565b838152019060005260206000206000915b838310611fe55786867fd1c4e365421fc92ba89f13adaeaaa885f6ecd5bf036c7e94dc612bba56c1e5d4610549886040519182916020835233956020840191612f73565b600160208192604051611ffc816101fc8189612d4d565b815201920192019190611fa1565b81601f600093116001146120225750555b8580611f73565b8183526020832061203e91601f0160051c810190600101612e35565b808252816020812091555561201b565b634e487b7160e01b600052603160045260246000fd5b60405162461bcd60e51b8152602060048201526013602482015272496e646578206f7574206f6620626f756e647360681b6044820152606490fd5b3461033c57600036600319011261033c577f00000000000000000000000000000000000000000000000000000000000000006001600160a01b031630036120f85760206040516000805160206140398339815191528152f35b63703e46dd60e11b60005260046000fd5b604036600319011261033c5761211d612b45565b6024356001600160401b03811161033c573660238201121561033c5761214d903690602481600401359101612c2c565b6001600160a01b037f0000000000000000000000000000000000000000000000000000000000000000163081149081156122fa575b506120f85761218f613148565b6040516352d1902d60e01b81526001600160a01b0383169290602081600481875afa600091816122c6575b506121d45783634c9c8ce360e01b60005260045260246000fd5b806000805160206140398339815191528592036122b25750813b1561229e5760008051602061403983398151915280546001600160a01b031916821790557fbc7cd75a20ee27fd9adebab32041f755214dbc6bffa90cc0225b39da2e5c2d3b600080a28151156122845760008083602061059595519101845af43d1561227c573d9161225f83612c11565b9261226d6040519485612bf0565b83523d6000602085013e613710565b606091613710565b50503461228d57005b63b398979f60e01b60005260046000fd5b634c9c8ce360e01b60005260045260246000fd5b632a87526960e21b60005260045260246000fd5b9091506020813d6020116122f2575b816122e260209383612bf0565b8101031261033c575190856121ba565b3d91506122d5565b600080516020614039833981519152546001600160a01b03161415905083612182565b3461033c57602036600319011261033c576001600160a01b0361233e612b45565b1660005260086020526108b86101fc6108a4604060002060405192838092612d4d565b3461033c57604036600319011261033c5761237a612b45565b612382612b5b565b600080516020614079833981519152549160ff8360401c1615926001600160401b03811680159081612858575b600114908161284e575b159081612845575b506127ec5767ffffffffffffffff1981166001176000805160206140798339815191525583612818575b506000805160206140798339815191525460ff8160401c1615906001600160401b03811680159081612810575b6001149081612806575b1590816127fd575b506127ec5767ffffffffffffffff19811660011760008051602061407983398151915255816127bf575b50612768575b612463336133a2565b612722575b60018060a01b03166bffffffffffffffffffffffff60a01b600254161760025560409182516124978482612bf0565b6004815263566f746560e01b602082019081526001600160a01b03841691906124c285841515613271565b81519020936124dc82602096600089516106188a82612bf0565b8551906103da8083018381106001600160401b03821117610a685783926125199261377285396001600160a01b0316815233602082015260400190565b03906000f080156127175760018060a01b031690855161253881612bd5565b818152858101838152878201906001825260608301916000835286600052600089528960002093518051906001600160401b038211610a68576125858261257f8854612d13565b88612e4c565b8a90601f831160011461269757926125ce8360008051602061401983398151915299979461261a99979460029760009261268c5750508160011b916000199060031b1c19161790565b85555b9051600185018054925160ff60a01b90151560a01b166001600160a01b039092166001600160a81b03199093169290921717905551910155875187815291829188830190612b94565b0390a26bffffffffffffffffffffffff60a01b600454161760045561263b57005b7fc7f505b2f371ae2175ee4913f4499e1f2633a7b5936321eed1cdaeb6115181d29160ff60401b196000805160206140798339815191525416600080516020614079833981519152555160018152a1005b015190503880610ce4565b60008781528c8120929190601f198516908e5b8282106127005750509361261a98969360029693600193836000805160206140198339815191529d9b98106126e7575b505050811b0185556125d1565b015160001960f88460031b161c191690558f80806126da565b60018596829396860151815501950193018e6126aa565b85513d6000823e3d90fd5b60008052600080516020613ff9833981519152602052612762337f615f0f9e84155bea8cc509fe18befeb1baf65611e38a6ba60964480fb29dfd446135e2565b50612468565b60ff60401b196000805160206140798339815191525416600080516020614079833981519152557fc7f505b2f371ae2175ee4913f4499e1f2633a7b5936321eed1cdaeb6115181d2602060405160018152a161245a565b68ffffffffffffffffff191668010000000000000001176000805160206140798339815191525584612454565b63f92ee8a960e01b60005260046000fd5b9050158661242a565b303b159150612422565b839150612418565b68ffffffffffffffffff1916680100000000000000011760008051602061407983398151915255836123eb565b905015856123c1565b303b1591506123b9565b8591506123af565b3461033c57604036600319011261033c57612879612b5b565b336001600160a01b03821603612895576105959060043561322d565b63334bd91960e11b60005260046000fd5b3461033c57604036600319011261033c576105956004356128c5612b5b565b906128d261058b82612f52565b6131e5565b3461033c57602036600319011261033c5760206128f5600435612f52565b604051908152f35b3461033c57602036600319011261033c576001600160a01b0361291e612b45565b166000526009602052602060018060a01b0360406000205416604051908152f35b3461033c57606036600319011261033c576004356001600160401b03811161033c5761296f903690600401612b18565b906024356001600160401b03811161033c5761298f903690600401612b18565b90916044356001600160401b03811161033c576129b0903690600401612b18565b9390926129bb6130d6565b6040518684823760208188810160068152030190206040516129dc81612bb9565b6040516129ed816101fc8186612d4d565b815260018201546001600160a01b039081166020830152600283015416604080830191825251909260e09160079190612a2d816101fc8160038601612d4d565b6060850152604051612a46816101fc8160048601612d4d565b6080850152604051612a5f816101fc8160058601612d4d565b60a0850152600681015460c08501520154910152516001600160a01b0316330361054e57856020612aa6946105959860405193849283378101600781520301902091612e1c565b612e93565b3461033c57602036600319011261033c576004359063ffffffff60e01b821680920361033c57602091635a05180f60e01b8114908115612aed575b5015158152f35b637965db0b60e01b811491508115612b07575b5083612ae6565b6301ffc9a760e01b14905083612b00565b9181601f8401121561033c578235916001600160401b03831161033c576020838186019501011161033c57565b600435906001600160a01b038216820361033c57565b602435906001600160a01b038216820361033c57565b60005b838110612b845750506000910152565b8181015183820152602001612b74565b90602091612bad81518092818552858086019101612b71565b601f01601f1916010190565b61010081019081106001600160401b03821117610a6857604052565b608081019081106001600160401b03821117610a6857604052565b90601f801991011681019081106001600160401b03821117610a6857604052565b6001600160401b038111610a6857601f01601f191660200190565b929192612c3882612c11565b91612c466040519384612bf0565b82948184528183011161033c578281602093846000960137010152565b9181601f8401121561033c578235916001600160401b03831161033c576020808501948460051b01011161033c57565b906020808351928381520192019060005b818110612cb15750505090565b82516001600160a01b0316845260209384019390920191600101612ca4565b90604060031983011261033c576004356001600160a01b038116810361033c5791602435906001600160401b03821161033c57612d0f91600401612b18565b9091565b90600182811c92168015612d43575b6020831014612d2d57565b634e487b7160e01b600052602260045260246000fd5b91607f1691612d22565b60009291815491612d5d83612d13565b8083529260018116908115612db35750600114612d7957505050565b60009081526020812093945091925b838310612d99575060209250010190565b600181602092949394548385870101520191019190612d88565b915050602093945060ff929192191683830152151560051b010190565b604060031982011261033c576004356001600160401b03811161033c5781612dfa91600401612b18565b92909291602435906001600160401b03821161033c57612d0f91600401612b18565b6020919283604051948593843782019081520301902090565b818110612e40575050565b60008155600101612e35565b9190601f8111612e5b57505050565b612e87926000526020600020906020601f840160051c83019310612e89575b601f0160051c0190612e35565b565b9091508190612e7a565b9092916001600160401b038111610a6857612eb28161130e8454612d13565b6000601f8211600114612ef2578190612ee3939495600092612ee75750508160011b916000199060031b1c19161790565b9055565b013590503880610ce4565b601f198216948382526020822091805b878110612f3a575083600195969710612f20575b505050811b019055565b0135600019600384901b60f8161c19169055388080612f16565b90926020600181928686013581550194019101612f02565b60005260008051602061405983398151915260205260016040600020015490565b908060209392818452848401376000828201840152601f01601f1916010190565b60405190612fa182612bb9565b600060e0836060815282602082015282604082015260608082015260606080820152606060a08201528260c08201520152565b6001600160401b038111610a685760051b60200190565b909291928310156130355760009260051b81013590601e198136030182121561303157018035926001600160401b038411611b065750602001823603811361033c579190565b8380fd5b634e487b7160e01b600052603260045260246000fd5b80518210156130355760209160051b010190565b80548210156130355760005260206000200190600090565b929190611f2e57612e8792612e93565b92906130a0906130ae9593604086526040860191612f73565b926020818503910152612f73565b90565b604051906130be82612bd5565b60006060838181528260208201528260408201520152565b3360009081527f340f7a053bfe89007e699225bfe7bec333414286c60d8f500f8a201f70f181ad602052604090205460ff161561310f57565b63e2517d3f60e01b600052336004527f7ed687a8f2955bd2ba7ca08227e1e364d132be747f42fb733165f923021b022560245260446000fd5b3360009081527fb7db2dd08fcb62d0c9e08c51941cae53c267786a0b75803fb7960902fc8ef97d602052604090205460ff161561318157565b63e2517d3f60e01b60005233600452600060245260446000fd5b60008181526000805160206140598339815191526020908152604080832033845290915290205460ff16156131cd5750565b63e2517d3f60e01b6000523360045260245260446000fd5b6131ef8282613454565b91826131fa57505090565b6000918252600080516020613ff98339815191526020526040909120613229916001600160a01b0316906135e2565b5090565b61323782826134fd565b918261324257505090565b6000918252600080516020613ff98339815191526020526040909120613229916001600160a01b031690613653565b156132795750565b630c76093760e01b60009081526001600160a01b0391909116600452602490fd5b156132a25750565b604051637f19f48d60e01b8152602060048201529081906132c7906024830190612b94565b0390fd5b91909182811461339d576132df8354612d13565b6001600160401b038111610a68576132fb8161130e8454612d13565b600093601f821160011461333857612ee3929394829160009261332d5750508160011b916000199060031b1c19161790565b015490503880610ce4565b845260208085208386529085209094601f198316815b8181106133855750958360019596971061336c57505050811b019055565b015460001960f88460031b161c19169055388080612f16565b9192600180602092868b01548155019401920161334e565b509050565b6001600160a01b03811660009081527fb7db2dd08fcb62d0c9e08c51941cae53c267786a0b75803fb7960902fc8ef97d602052604090205460ff1661344e576001600160a01b031660008181527fb7db2dd08fcb62d0c9e08c51941cae53c267786a0b75803fb7960902fc8ef97d60205260408120805460ff191660011790553391907f2f8788117e7eff1d82e926ec794901d17c78024a50270940304540a733656f0d8180a4600190565b50600090565b6000818152600080516020614059833981519152602090815260408083206001600160a01b038616845290915290205460ff166134f6576000818152600080516020614059833981519152602090815260408083206001600160a01b0395909516808452949091528120805460ff19166001179055339291907f2f8788117e7eff1d82e926ec794901d17c78024a50270940304540a733656f0d9080a4600190565b5050600090565b6000818152600080516020614059833981519152602090815260408083206001600160a01b038616845290915290205460ff16156134f6576000818152600080516020614059833981519152602090815260408083206001600160a01b0395909516808452949091528120805460ff19169055339291907ff6391f5c32d9c69d2a47ea670b442974b53935d1edc7fd64eb21e047a839171b9080a4600190565b91908110156130355760051b0190565b356001600160a01b038116810361033c5790565b51906001600160a01b038216820361033c57565b5190811515820361033c57565b600181019082600052816020526040600020541560001461364b578054600160401b811015610a685761363661361f82600187940185558461305f565b819391549060031b91821b91600019901b19161790565b90555491600052602052604060002055600190565b505050600090565b9060018201918160005282602052604060002054801515600014613707576000198101818111610a52578254600019810191908211610a52578181036136d0575b5050508054801561204e5760001901906136ae828261305f565b8154906000199060031b1b191690555560005260205260006040812055600190565b6136f06136e061361f938661305f565b90549060031b1c9283928661305f565b905560005283602052604060002055388080613694565b50505050600090565b90613736575080511561372557805190602001fd5b63d6bda27560e01b60005260046000fd5b81511580613768575b613747575090565b639996b31560e01b60009081526001600160a01b0391909116600452602490fd5b50803b1561373f56fe60803461013a57601f6103da38819003918201601f19168301916001600160401b0383118484101761013f57808492604094855283398101031261013a5761004681610155565b906001600160a01b039061005c90602001610155565b1690811561012457600080546001600160a01b031981168417825560405193916001600160a01b03909116907f8be0079c531659141344cd1fd0a4f28419497f9722a3daafe3b4186f6b6457e09080a3803b1561010357600180546001600160a01b0319166001600160a01b039290921691821790557fbc7cd75a20ee27fd9adebab32041f755214dbc6bffa90cc0225b39da2e5c2d3b600080a2610270908161016a8239f35b63211eb15960e21b60009081526001600160a01b0391909116600452602490fd5b631e4fbdf760e01b600052600060045260246000fd5b600080fd5b634e487b7160e01b600052604160045260246000fd5b51906001600160a01b038216820361013a5756fe6080604052600436101561001257600080fd5b60003560e01c80633659cfe6146101905780635c60da1b14610167578063715018a61461010e5780638da5cb5b146100e55763f2fde38b1461005357600080fd5b346100e05760203660031901126100e0576004356001600160a01b038116908190036100e057610081610211565b80156100ca57600080546001600160a01b03198116831782556001600160a01b0316907f8be0079c531659141344cd1fd0a4f28419497f9722a3daafe3b4186f6b6457e09080a3005b631e4fbdf760e01b600052600060045260246000fd5b600080fd5b346100e05760003660031901126100e0576000546040516001600160a01b039091168152602090f35b346100e05760003660031901126100e057610127610211565b600080546001600160a01b0319811682556001600160a01b03167f8be0079c531659141344cd1fd0a4f28419497f9722a3daafe3b4186f6b6457e08280a3005b346100e05760003660031901126100e0576001546040516001600160a01b039091168152602090f35b346100e05760203660031901126100e0576004356001600160a01b038116908181036100e0576101be610211565b3b156101fd57600180546001600160a01b031916821790557fbc7cd75a20ee27fd9adebab32041f755214dbc6bffa90cc0225b39da2e5c2d3b600080a2005b63211eb15960e21b60005260045260246000fd5b6000546001600160a01b0316330361022557565b63118cdaa760e01b6000523360045260246000fdfea2646970667358221220d17d64cadbf1c80f89320b76ddb542f5d4c70ef577cbc522703c06922de58bfb64736f6c634300081b003360a0806040526104ad803803809161001782856102b7565b833981016040828203126101f35761002e826102f0565b602083015190926001600160401b0382116101f3570181601f820112156101f35780519061005b82610304565b9261006960405194856102b7565b828452602083830101116101f35760005b8281106102a2575050602060009183010152813b15610280577fa3f0ad74e5423aebfd80d3ef4346578335a9a72aeaee59ff6cb3582b35133d5080546001600160a01b0319166001600160a01b038416908117909155604051635c60da1b60e01b8152909190602081600481865afa90811561020057600091610246575b50803b156102255750817f1cf3b03a6cf19fa2baba4df148e9dcabedea7f8a5c07840e207e5c089be95d3e600080a280511561020c57602060049260405193848092635c60da1b60e01b82525afa918215610200576000926101b9575b509060008083602061019595519101845af43d156101b1573d9161017883610304565b9261018660405194856102b7565b83523d6000602085013e61031f565b505b60805260405161012c908161038182396080518160180152f35b60609161031f565b91506020823d6020116101f8575b816101d4602093836102b7565b810103126101f3576000806101eb610195946102f0565b935050610155565b600080fd5b3d91506101c7565b6040513d6000823e3d90fd5b505034156101975763b398979f60e01b60005260046000fd5b634c9c8ce360e01b60009081526001600160a01b0391909116600452602490fd5b90506020813d602011610278575b81610261602093836102b7565b810103126101f357610272906102f0565b386100f8565b3d9150610254565b50631933b43b60e21b60009081526001600160a01b0391909116600452602490fd5b8060208092840101518282870101520161007a565b601f909101601f19168101906001600160401b038211908210176102da57604052565b634e487b7160e01b600052604160045260246000fd5b51906001600160a01b03821682036101f357565b6001600160401b0381116102da57601f01601f191660200190565b90610345575080511561033457805190602001fd5b63d6bda27560e01b60005260046000fd5b81511580610377575b610356575090565b639996b31560e01b60009081526001600160a01b0391909116600452602490fd5b50803b1561034e56fe60806040819052635c60da1b60e01b81526020906004817f00000000000000000000000000000000000000000000000000000000000000006001600160a01b03165afa801560a5576000901560d6575060203d602011609f575b601f19601f820116608001906080821067ffffffffffffffff83111760895760859160405260800160b1565b60d6565b634e487b7160e01b600052604160045260246000fd5b503d6059565b6040513d6000823e3d90fd5b602090607f19011260d1576080516001600160a01b038116810360d15790565b600080fd5b60008091368280378136915af43d6000803e1560f1573d6000f35b3d6000fdfea264697066735822122085f2773fc59dcac95830e25720291aa4d0b5a14108bf1ac10ed08a415b40f56264736f6c634300081b0033c1f6fe24621ce81ec5827caf0253cadb74709b061630e6b55e82371705932000aa0c52d9887925385218a312ed7f5b59fb13441caa0ac5d3a030b41a0a16e45c360894a13ba1a3210667c828492db98dca3e2076cc3735a920a3ca505d382bbc02dd7bc7dec4dceedda775e58dd541e08a116c6c53815c0bd028192f7b626800f0c57e16840df040f15088dc2f81fe391c3923bec73e23a9662efc9c229c6a00a2646970667358221220a14cb0590372ae7e9ffa2fc371c5d59187cce4c067376cf526f209efe477ee0264736f6c634300081b0033",
  "linkReferences": {},
  "deployedLinkReferences": {}
}