{
  "_format": "hh-sol-artifact-1",
  "contractName": "SCR",
  "sourceName": "contracts/scr/SCR/functions/SCR.sol",
  "abi": [
    {
      "inputs": [
        {
          "internalType": "address",
          "name": "account",
          "type": "address"
        },
        {
          "internalType": "bytes32",
          "name": "neededRole",
          "type": "bytes32"
        }
      ],
      "name": "AccessControlUnauthorizedAccount",
      "type": "error"
    },
    {
      "inputs": [
        {
          "internalType": "address",
          "name": "founder",
          "type": "address"
        },
        {
          "internalType": "string",
          "name": "scid",
          "type": "string"
        }
      ],
      "name": "AlreadyEstablish",
      "type": "error"
    },
    {
      "inputs": [
        {
          "internalType": "string",
          "name": "scid",
          "type": "string"
        }
      ],
      "name": "AlreadyRegisteredScid",
      "type": "error"
    },
    {
      "inputs": [
        {
          "internalType": "string",
          "name": "str",
          "type": "string"
        }
      ],
      "name": "EmptyString",
      "type": "error"
    },
    {
      "inputs": [
        {
          "internalType": "address",
          "name": "account",
          "type": "address"
        },
        {
          "internalType": "address",
          "name": "company",
          "type": "address"
        },
        {
          "internalType": "address",
          "name": "beacon",
          "type": "address"
        }
      ],
      "name": "FailDeployService",
      "type": "error"
    },
    {
      "inputs": [
        {
          "internalType": "string",
          "name": "scid",
          "type": "string"
        }
      ],
      "name": "FailedDeploySmartCompany",
      "type": "error"
    },
    {
      "inputs": [
        {
          "internalType": "address",
          "name": "beacon",
          "type": "address"
        }
      ],
      "name": "InvalidBeacon",
      "type": "error"
    },
    {
      "inputs": [],
      "name": "InvalidCompanyInfo",
      "type": "error"
    },
    {
      "inputs": [
        {
          "internalType": "uint256",
          "name": "expected",
          "type": "uint256"
        },
        {
          "internalType": "uint256",
          "name": "length",
          "type": "uint256"
        }
      ],
      "name": "InvalidCompanyInfoLength",
      "type": "error"
    },
    {
      "inputs": [
        {
          "internalType": "address",
          "name": "founder",
          "type": "address"
        }
      ],
      "name": "InvalidFounder",
      "type": "error"
    },
    {
      "inputs": [
        {
          "internalType": "uint256",
          "name": "length",
          "type": "uint256"
        },
        {
          "internalType": "uint256",
          "name": "expected",
          "type": "uint256"
        }
      ],
      "name": "InvalidLength",
      "type": "error"
    },
    {
      "inputs": [
        {
          "internalType": "bytes32",
          "name": "param",
          "type": "bytes32"
        }
      ],
      "name": "InvalidParam",
      "type": "error"
    },
    {
      "inputs": [
        {
          "internalType": "address",
          "name": "account",
          "type": "address"
        },
        {
          "internalType": "address",
          "name": "company",
          "type": "address"
        },
        {
          "internalType": "address",
          "name": "service",
          "type": "address"
        }
      ],
      "name": "NotActivateService",
      "type": "error"
    },
    {
      "inputs": [
        {
          "internalType": "address",
          "name": "owner",
          "type": "address"
        }
      ],
      "name": "OwnableInvalidOwner",
      "type": "error"
    },
    {
      "inputs": [
        {
          "internalType": "address",
          "name": "beacon",
          "type": "address"
        }
      ],
      "name": "SmartCompanyNotOnline",
      "type": "error"
    },
    {
      "anonymous": false,
      "inputs": [
        {
          "indexed": true,
          "internalType": "address",
          "name": "beacon",
          "type": "address"
        },
        {
          "indexed": true,
          "internalType": "address",
          "name": "service",
          "type": "address"
        }
      ],
      "name": "ActivateService",
      "type": "event"
    },
    {
      "anonymous": false,
      "inputs": [
        {
          "indexed": true,
          "internalType": "address",
          "name": "account",
          "type": "address"
        },
        {
          "indexed": false,
          "internalType": "string",
          "name": "legalEntityCode",
          "type": "string"
        },
        {
          "indexed": false,
          "internalType": "string",
          "name": "field",
          "type": "string"
        }
      ],
      "name": "AddCompanyInfoField",
      "type": "event"
    },
    {
      "anonymous": false,
      "inputs": [
        {
          "indexed": true,
          "internalType": "address",
          "name": "implementation",
          "type": "address"
        },
        {
          "indexed": true,
          "internalType": "address",
          "name": "newImplementation",
          "type": "address"
        }
      ],
      "name": "BeaconUpgraded",
      "type": "event"
    },
    {
      "anonymous": false,
      "inputs": [
        {
          "indexed": true,
          "internalType": "address",
          "name": "account",
          "type": "address"
        },
        {
          "indexed": true,
          "internalType": "uint256",
          "name": "fieldIndex",
          "type": "uint256"
        },
        {
          "indexed": false,
          "internalType": "string",
          "name": "legalEntityCode",
          "type": "string"
        },
        {
          "indexed": false,
          "internalType": "string",
          "name": "field",
          "type": "string"
        }
      ],
      "name": "DeleteCompanyInfoField",
      "type": "event"
    },
    {
      "anonymous": false,
      "inputs": [
        {
          "indexed": true,
          "internalType": "address",
          "name": "beacon",
          "type": "address"
        },
        {
          "indexed": false,
          "internalType": "string",
          "name": "name",
          "type": "string"
        }
      ],
      "name": "DeployBeaconProxy",
      "type": "event"
    },
    {
      "anonymous": false,
      "inputs": [
        {
          "indexed": true,
          "internalType": "address",
          "name": "proxy",
          "type": "address"
        },
        {
          "indexed": false,
          "internalType": "string",
          "name": "name",
          "type": "string"
        }
      ],
      "name": "DeployProxy",
      "type": "event"
    },
    {
      "anonymous": false,
      "inputs": [
        {
          "indexed": true,
          "internalType": "address",
          "name": "founder",
          "type": "address"
        },
        {
          "indexed": true,
          "internalType": "address",
          "name": "company",
          "type": "address"
        },
        {
          "indexed": false,
          "internalType": "string",
          "name": "scid",
          "type": "string"
        }
      ],
      "name": "DeploySmartCompany",
      "type": "event"
    },
    {
      "anonymous": false,
      "inputs": [
        {
          "indexed": true,
          "internalType": "address",
          "name": "founder",
          "type": "address"
        },
        {
          "indexed": false,
          "internalType": "string",
          "name": "scid",
          "type": "string"
        },
        {
          "indexed": false,
          "internalType": "string",
          "name": "companyInfoField",
          "type": "string"
        },
        {
          "indexed": false,
          "internalType": "string",
          "name": "value",
          "type": "string"
        }
      ],
      "name": "UpdateCompanyInfo",
      "type": "event"
    },
    {
      "anonymous": false,
      "inputs": [
        {
          "indexed": true,
          "internalType": "address",
          "name": "account",
          "type": "address"
        },
        {
          "indexed": true,
          "internalType": "uint256",
          "name": "fieldIndex",
          "type": "uint256"
        },
        {
          "indexed": false,
          "internalType": "string",
          "name": "legalEntityCode",
          "type": "string"
        },
        {
          "indexed": false,
          "internalType": "string",
          "name": "field",
          "type": "string"
        }
      ],
      "name": "UpdateCompanyInfoField",
      "type": "event"
    },
    {
      "inputs": [
        {
          "internalType": "string",
          "name": "legalEntityCode",
          "type": "string"
        },
        {
          "internalType": "string",
          "name": "field",
          "type": "string"
        }
      ],
      "name": "addCompanyInfoFields",
      "outputs": [],
      "stateMutability": "nonpayable",
      "type": "function"
    },
    {
      "inputs": [
        {
          "internalType": "string",
          "name": "scid",
          "type": "string"
        },
        {
          "internalType": "address",
          "name": "beacon",
          "type": "address"
        },
        {
          "internalType": "string",
          "name": "legalEntityCode",
          "type": "string"
        },
        {
          "internalType": "string",
          "name": "companyName",
          "type": "string"
        },
        {
          "internalType": "string",
          "name": "establishmentDate",
          "type": "string"
        },
        {
          "internalType": "string",
          "name": "jurisdiction",
          "type": "string"
        },
        {
          "internalType": "string",
          "name": "entityType",
          "type": "string"
        },
        {
          "internalType": "bytes",
          "name": "scDeployParam",
          "type": "bytes"
        },
        {
          "internalType": "string[]",
          "name": "companyInfo",
          "type": "string[]"
        },
        {
          "internalType": "address[]",
          "name": "scsBeaconProxy",
          "type": "address[]"
        },
        {
          "internalType": "bytes[]",
          "name": "scsDeployParams",
          "type": "bytes[]"
        }
      ],
      "name": "createSmartCompany",
      "outputs": [
        {
          "internalType": "address",
          "name": "company",
          "type": "address"
        },
        {
          "internalType": "address[]",
          "name": "services",
          "type": "address[]"
        },
        {
          "internalType": "enum ServiceType[]",
          "name": "serviceTypes",
          "type": "uint8[]"
        }
      ],
      "stateMutability": "nonpayable",
      "type": "function"
    },
    {
      "inputs": [
        {
          "internalType": "string",
          "name": "legalEntityCode",
          "type": "string"
        },
        {
          "internalType": "uint256",
          "name": "fieldIndex",
          "type": "uint256"
        }
      ],
      "name": "deleteCompanyInfoFields",
      "outputs": [],
      "stateMutability": "nonpayable",
      "type": "function"
    },
    {
      "inputs": [
        {
          "internalType": "string",
          "name": "scid",
          "type": "string"
        },
        {
          "internalType": "string",
          "name": "companyInfoField",
          "type": "string"
        }
      ],
      "name": "getCompanyField",
      "outputs": [
        {
          "internalType": "string",
          "name": "",
          "type": "string"
        }
      ],
      "stateMutability": "view",
      "type": "function"
    },
    {
      "inputs": [
        {
          "internalType": "string",
          "name": "scid",
          "type": "string"
        }
      ],
      "name": "getCompanyInfo",
      "outputs": [
        {
          "components": [
            {
              "internalType": "string",
              "name": "companyName",
              "type": "string"
            },
            {
              "internalType": "address",
              "name": "companyAddress",
              "type": "address"
            },
            {
              "internalType": "address",
              "name": "founder",
              "type": "address"
            },
            {
              "internalType": "string",
              "name": "establishmentDate",
              "type": "string"
            },
            {
              "internalType": "string",
              "name": "jurisdiction",
              "type": "string"
            },
            {
              "internalType": "string",
              "name": "entityType",
              "type": "string"
            },
            {
              "internalType": "uint256",
              "name": "createAt",
              "type": "uint256"
            },
            {
              "internalType": "uint256",
              "name": "updateAt",
              "type": "uint256"
            }
          ],
          "internalType": "struct ICompanyInfoStructs.CompanyInfo",
          "name": "companyInfo",
          "type": "tuple"
        }
      ],
      "stateMutability": "view",
      "type": "function"
    },
    {
      "inputs": [
        {
          "internalType": "string",
          "name": "legalEntityCode",
          "type": "string"
        }
      ],
      "name": "getCompanyInfoFields",
      "outputs": [
        {
          "internalType": "string[]",
          "name": "fields",
          "type": "string[]"
        }
      ],
      "stateMutability": "view",
      "type": "function"
    },
    {
      "inputs": [
        {
          "internalType": "address",
          "name": "founder",
          "type": "address"
        }
      ],
      "name": "getFounderCompanies",
      "outputs": [
        {
          "internalType": "string",
          "name": "",
          "type": "string"
        }
      ],
      "stateMutability": "view",
      "type": "function"
    },
    {
      "inputs": [
        {
          "internalType": "string",
          "name": "scid",
          "type": "string"
        },
        {
          "internalType": "string",
          "name": "companyInfoField",
          "type": "string"
        },
        {
          "internalType": "string",
          "name": "value",
          "type": "string"
        }
      ],
      "name": "setCompanyInfo",
      "outputs": [],
      "stateMutability": "nonpayable",
      "type": "function"
    },
    {
      "inputs": [
        {
          "internalType": "address",
          "name": "scImplementation",
          "type": "address"
        },
        {
          "internalType": "string",
          "name": "scName",
          "type": "string"
        }
      ],
      "name": "setSCContract",
      "outputs": [
        {
          "internalType": "address",
          "name": "beacon",
          "type": "address"
        }
      ],
      "stateMutability": "nonpayable",
      "type": "function"
    },
    {
      "inputs": [
        {
          "internalType": "string",
          "name": "legalEntityCode",
          "type": "string"
        },
        {
          "internalType": "uint256",
          "name": "fieldIndex",
          "type": "uint256"
        },
        {
          "internalType": "string",
          "name": "field",
          "type": "string"
        }
      ],
      "name": "updateCompanyInfoFields",
      "outputs": [],
      "stateMutability": "nonpayable",
      "type": "function"
    },
    {
      "inputs": [
        {
          "internalType": "address",
          "name": "scBeacon",
          "type": "address"
        },
        {
          "internalType": "address",
          "name": "newSCImplementation",
          "type": "address"
        }
      ],
      "name": "updateSCContract",
      "outputs": [],
      "stateMutability": "nonpayable",
      "type": "function"
    }
  ],
  "bytecode": "0x60808060405234601557615adc908161001b8239f35b600080fdfe610300604052600436101561001357600080fd5b60006102c0526102c0513560e01c80630863633c146123e45780633a60f2b214610b8b5780634e5f4d4014610b48578063518fd6c114610a0c57806363c26fdd1461078f57806385a59bef146104cd57806395896280146104815780639d123f6b1461033d578063a05aa489146102a2578063e150812c146101a85763e54d64f91461009e57600080fd5b346101a15760203660031901126101a1576004356001600160401b0381116101a1576100d16100df9136906004016124ce565b6100d9612b42565b91612856565b8054906100eb82612c67565b916100f960405193846126f1565b8083526020830180926102c0515260206102c051206102c051915b83831061018457848660405191829160208301906020845251809152604083019060408160051b85010192916102c051905b82821061015557505050500390f35b919360019193955060206101748192603f198a82030186528851612523565b9601920192018594939192610146565b600160208192610193856129b8565b815201920192019190610114565b6102c05180fd5b346101a15760603660031901126101a1576004356001600160401b0381116101a1576101d89036906004016124ce565b602435916044356001600160401b0381116101a1576101fb9036906004016124ce565b9261020533612bd9565b610217610210612b42565b8285612856565b5480861015610285575061027b8461026d7fc145ce168143e73cee68794acea64e5ff230bc3ac32bb4141c8cb5e81d3997789596856102678a61026261025b612b42565b898d612856565b6129a0565b90612a5a565b604051938493339785612a80565b0390a36102c05180f35b8590632db9197d60e11b6102c0515260045260245260446102c051fd5b346101a1576102b036612639565b916102ba33612bd9565b6102cc6102c5612b42565b8286612856565b805493680100000000000000008510156103235761026d8185610267886103199660017f45035ab0925e5e79aef11d550965adf21579ff030764617f88d8edc17d4d73ca9b0181556129a0565b0390a26102c05180f35b634e487b7160e01b6102c05152604160045260246102c051fd5b346101a15760403660031901126101a15761035661255e565b61035e612548565b61036733612bd9565b61036f612d55565b916001600160a01b0316908115158061045e575b15610445576001600160a01b031691813b156101a157604051631b2ce7f360e11b8152600481018490526102c0518160248183875af180156104375761041c575b50816000526020526001604060002001826bffffffffffffffffffffffff60a01b8254161790557fc945ae30494f6ee00b9e4bf1fec5653ced7244b559666f44f9a88ea732e957b06102c0516102c051a36102c05180f35b6102c051610429916126f1565b6102c0516101a157836103c4565b6040513d6102c051823e3d90fd5b50638ebc912f60e01b6102c0515260045260246102c051fd5b506000828152602084905260409020600101546001600160a01b03161515610383565b346101a1576104c96104b56104b06100d961049b36612639565b9290939160016104a9612b42565b0191612856565b6129b8565b604051918291602083526020830190612523565b0390f35b346101a15760403660031901126101a1576104e661255e565b6024356001600160401b0381116101a1576105086105239136906004016124ce565b919061051333612bd9565b61051b612d55565b9236916127ad565b9160209260405161053485826126f1565b6102c05190526102c0516102c0512081518583012014610768576040516103da808201908282106001600160401b0383111761032357829161058d916134ae84396001600160a01b038616815233602082015260400190565b03906102c051f0801561043757604051906105a782612689565b8282526001600160a01b03938416868301908152600160408085019182526102c051606086019081529390961660008181529789529590962092518051959690956001600160401b03811161032357879661060c826106068854612752565b8861289a565b89906001601f8411146106cd579261066a837f03bf13c3738edb996db276d73747b443c443972ca33da1e26dba5ae491c64ac69997946106b79997946002976102c051926106c2575b50508160011b916000199060031b1c19161790565b85555b9051600185018054925160ff60a01b90151560a01b166001600160a01b039092166001600160a81b0319909316929092171790555191015560405186815291829187830190612523565b0390a2604051908152f35b015190508e80610655565b90601f19831691876102c051528b6102c05120926102c0515b8d82821061074f575050936106b798969360029693600193837f03bf13c3738edb996db276d73747b443c443972ca33da1e26dba5ae491c64ac69d9b9810610736575b505050811b01855561066d565b015160001960f88460031b161c191690558d8080610729565b8484015186558d9c5060019095019493840193016106e6565b8361078b6040519283926318a996bb60e21b845260048401526024830190612523565b0390fd5b346101a15760403660031901126101a1576004356001600160401b0381116101a1576107bf9036906004016124ce565b6024356107cb33612bd9565b6107ea6107e4826102626107dd612b42565b8688612856565b506129b8565b6107fc6107f5612b42565b8486612856565b93845493848410156109d15760001985019485119484865b610874578181101561088e57600181018082116108745761083590896129a0565b5090610841818a6129a0565b6108585760019261085191612c7e565b0186610814565b634e487b7160e01b6102c051526102c05160045260246102c051fd5b634e487b7160e01b6102c05152601160045260246102c051fd5b505085805480156109b75760001901906108a882826129a0565b610858576108b68154612752565b80610962575b505081815560206108cc83612c67565b6108d960405191826126f1565b83815201906102c0515260206102c051206102c051915b8383106109455787877f63fd410897d008ced8daf697dac0588fcb2d31ca9bb6879468925619a143ae65888861027b61093660405193849360408552604085019161278c565b82810360208401523395612523565b600160208192610954856129b8565b8152019201920191906108f0565b601f811160011461097c57506102c05190555b86806108bc565b61099f90826102c051526001601f60206102c05120920160051c82019101612883565b6102c080518290525160208120918190559055610975565b634e487b7160e01b6102c05152603160045260246102c051fd5b60405162461bcd60e51b8152602060048201526013602482015272496e646578206f7574206f6620626f756e647360681b6044820152606490fd5b346101a15760603660031901126101a1576004356001600160401b0381116101a157610a3c9036906004016124ce565b906024356001600160401b0381116101a157610a5c9036906004016124ce565b9190926044356001600160401b0381116101a157610a7e9036906004016124ce565b9094906001600160a01b036002610a9f81610a97612b42565b018688612856565b0154163303610b2f57610b1f610319927f6c21561ca7a463791bbf491f8d7109550f1613622dfef281ae40712963c658d296610afa848a610af5610aee6001610ae6612b42565b018b8d612856565b8587612856565b6128e1565b610b1160405197889760608952606089019161278c565b91868303602088015261278c565b908382036040850152339661278c565b637c983fd560e11b6102c051523360045260246102c051fd5b346101a15760203660031901126101a157610b6161255e565b6003610b6b612b42565b019060018060a01b03166000526020526104c96104b560406000206129b8565b346101a1576101603660031901126101a1576004356001600160401b0381116101a157610bbc9036906004016124ce565b610280526101a052610bcc612548565b610240526044356001600160401b0381116101a157610bef9036906004016124ce565b6064356001600160401b0381116101a157610c0e9036906004016124ce565b9061026052916084356001600160401b0381116101a157610c339036906004016124ce565b906102e0529160a4356001600160401b0381116101a157610c589036906004016124ce565b9060c4356001600160401b0381116101a157610c789036906004016124ce565b92909560e4356001600160401b0381116101a157610c9a9036906004016124ce565b5050610104356001600160401b0381116101a157610cbc903690600401612574565b906101805297610124356001600160401b0381116101a157610ce2903690600401612574565b610220526102a052610144356001600160401b0381116101a157610d0a903690600401612574565b6101e0526101c0526003610d1c612b42565b6102c080513390529101602052516040902054610d3890612752565b6123b55760406102008190528051610d7891610d5490826126f1565b6012815271637265617465536d617274436f6d70616e7960701b6020820152612b86565b6102005151602081017fcf377bf0da9cb35454543c63ad54bf2c5a0466b629ac7517e61f8857cae0fa25815260208252610db561020051836126f1565b60ff1991519020167f7ed687a8f2955bd2ba7ca08227e1e364d132be747f42fb733165f923021b02256102c05152602052610200516102c051206102c0515060018060a01b0333166102c0515260205260ff610200516102c05120541615612378576102805115158061236f575b80612366575b8061235d575b156123485761020051610280516101a0516001600160a01b039291610e5391612aaa565b01511661231d57610e6c610e65612b42565b8789612856565b8054610e7781612c67565b91610e87610200515193846126f1565b81835260208301906102c0515260206102c051206102c051915b8383106123005750505050518914610ec1610eba612b42565b888a612856565b8054610ecc81612c67565b91610edc610200515193846126f1565b81835260208301906102c0515260206102c051206102c051915b8383106122e357505050505190156122c6575092610f6e9492610f50610f5f93610f35610f909b97610f26612712565b610160523690610260516127ad565b6101605152336102005161016051015236906102e0516127ad565b606061016051015236916127ad565b608061016051015236916127ad565b60a06101605101524260c06101605101524260e06101605101526100d9612b42565b8054610f9b81612c67565b91610fab610200515193846126f1565b81835260208301906102c0515260206102c051206102c051915b8383106122a95785856102c0515b82811061224e5761020051805161101391610fee90826126f1565b60138152725f637265617465536d617274436f6d70616e7960681b6020820152612b86565b61101b612d55565b6102c08051610240516001600160a01b03169052602091909152610200519051819020905161104981612689565b611052826129b8565b81526060600260ff600185015460018060a01b038116602086015260a01c1615938415610200518501520154910152612229576102005151610f70808201908282106001600160401b0383111761032357602091839161388883393081520301906102c051f06101205261012051156119d55761020051516106718082018281106001600160401b038211176103235782916147f8833903906102c051f080156119d55761112a611101612d55565b60206101008190526102005151919061111a90836126f1565b6102c05182526102405190612dd5565b61020051516102aa8082018281106001600160401b03821117610323578291615316833903906102c051f09182156119d55761020051805161118f9161117090826126f1565b600b81526a6465706c6f79656420736360a81b61010051820152612b86565b61020051516111a161010051826126f1565b6102c0518152610200515190816104e78101106001600160401b036104e784011117610323576111eb82916104e76155c08439610120516001600160a01b03166104e78401612d8e565b03906102c051f060e05260e051156119d55760e0516001600160a01b0316151580612217575b80612202575b156121d557610120516001600160a01b03163b156101a157610200515163f6d8178960e01b81526102c0516001600160a01b03831660048301819052602483015281806044810103816102c05160018060a01b0361012051165af180156119d5576121c2575b50610120516001600160a01b03163b156101a157610200515163f6d8178960e01b81526102c0516001600160a01b0385811660048401528416602483015281806044810103816102c05160018060a01b0361012051165af180156119d5576121a7575b5061020051805161131e916112f590826126f1565b600781526101005166636f6d70616e7960c81b9082015260e0516001600160a01b03169061304e565b6102005180516113639161133290826126f1565b601a81527f73657474696e67207365744f6e6365496e697469616c697a656400000000000061010051820152612b86565b6001600160a01b0381163b156101a157610200515163189acdbd60e31b8152610120516001600160a01b0390811660048301526102c0519192839160249183918591165af180156119d55761218c575b50606060a0819052610200515161140b916113ce90826126f1565b602181527f626f726465726c657373416363657373436f6e74726f6c496e697469616c697a61010051820152606560f81b61020051820152612b86565b6001600160a01b0382163b156101a157610200515163485cc95560e01b81526102c08051610120516001600160a01b0394851660048501528416602484015290519193909284926044928492165af180156119d557612171575b5061020051805161149f9161147a90826126f1565b6011815270636f6d70616e79496e697469616c697a6560781b61010051820152612b86565b6102005161016051015160e0516001600160a01b0391821691163b156101a157610200515163485cc95560e01b81526102c0516001600160a01b0390921660048201523060248201529081806044810103816102c05160018060a01b0360e051165af180156119d557612156575b5060a05161020051516115639161152490826126f1565b602381527f496e697469616c697a656420426f726465726c657373416363657373436f6e7461010051820152621c9bdb60ea1b61020051820152612b86565b60016115806002611572612b42565b01610280516101a051612856565b60e051910180546001600160a01b0319166001600160a01b039290921691909117905560036115ad612b42565b61020080516101605101516001600160a01b031660009081526101005192909301909152519020610280516101a0516115e5926128e1565b61020051610160518101516001600160a01b031661014052805161162e9161160d90826126f1565b600d81526c5f73657475705365727669636560981b61010051820152612b86565b610200515161163c816126ba565b60a0518152610200515161164f816126ba565b60a05181526102c05160c08190525b610220518110611a1f5750906116a4610200515161167f61020051826126f1565b60118152706465706c6f79656420736572766963657360781b61010051820152612b86565b519051908151916116b483612c67565b926116c4610200515194856126f1565b8084526116d3601f1991612c67565b0136610100518501376102c0515b815181101561172d576116f4818361286f565b519060078210156117135760019161170c828761286f565b52016116e1565b634e487b7160e01b6102c05152602160045260246102c051fd5b50506102005180516117749161174390826126f1565b601c81527f7072657061726520746f2072656769737465722073657276696365730000000061010051820152612b86565b6117ac610200515161178961020051826126f1565b600d81526c6164647265737328746869732960981b61010051820152309061304e565b610200515060008061181361183b61020051516117cc61020051826126f1565b600f81526e31b7b6b830b73c963337bab73232b960891b6101005182015261020051519283916307e763af60e51b6101005184015260a05160248401526084830190612523565b60e0516001600160a01b0316604483015261014051606483015203601f1981018352826126f1565b80519061010051016a636f6e736f6c652e6c6f675afa50610200805151633dbaac6360e01b81529051600482015261187660448201846125e1565b60031982820301602483015281806118926101005193866125a4565b03816102c05160018060a01b0360e051165af180156119d5576119e5575b5061020051610160510151610120516001600160a01b0391821691163b156101a157610200515163f2fde38b60e01b815260048101919091526102c051610120518290602490829084906001600160a01b03165af180156119d5576119ba575b506104c96119aa9260018060a01b0361020051610160510151166102005151906101005182527f2010c3c0906cc229f739633f84aa83f1b74fd6b9c085c14edce8fe040827181d60018060a01b0360e05116928061197a610100518201610280516101a05161278c565b0390a3610200515160e0516001600160a01b0316815260a0805161010051830152519094859490918501906125a4565b90838203610200518501526125e1565b6102c0516119c7916126f1565b6102c0516101a15782611910565b61020051513d6102c051823e3d90fd5b610100513d8111611a18575b6119fb81836126f1565b816101005191810103126101a15751801515036101a157826118b0565b503d6119f1565b611a9e611a5e60018060a01b036101205116611a4a611a4585610220516102a05161309d565b6130ad565b60018060a01b0360e05116610140516130c1565b610200518051919691611a9991611a7590826126f1565b601081526f6465706c6f796564207365727669636560801b61010051820152612b86565b6132ec565b9160078410156117135783611ab29161330e565b92611abe60c051612db0565b60c0526102005180516000918291611b2491611b3a9190611adf90826126f1565b600c81526b1cd95c9d9a58d950dbdd5b9d60a21b610100518201526102005151928391632d839cb360e21b610100518401526102005160248401526064830190612523565b60c051604483015203601f1981018352826126f1565b80519061010051016a636f6e736f6c652e6c6f675afa506003811490811561214b575b50611b6e575b60010191909161165e565b91906102005150611bad6102005151611b8a61020051826126f1565b600f81526e696e697469616c697a65206c65747360881b61010051820152612b86565b611bbe836101e0516101c0516127f3565b60808282810103126101a1578135906001600160401b0382116101a157611be98184018385016133e7565b90610100518401356001600160401b0381116101a157611c0e908286019086016133e7565b92610200518501356001600160401b0381116101a157611c33908387019087016133e7565b9460a051810135906001600160401b0382116101a157611c579184820191016133e7565b608052825115159081612140575b81612135575b81612128575b61010051909283918110612110575b5050156120f8575061014051156120dc57611c9961343b565b908051906001600160401b03821161032357611cbf82611cb98554612752565b8561289a565b61010051906001601f84111461206857918091611cf4936102c0519261205d5750508160011b916000199060031b1c19161790565b90555b6001611d0161343b565b01908051906001600160401b03821161032357611d2282611cb98554612752565b61010051906001601f841114611fe957918091611d57936102c05192611fde5750508160011b916000199060031b1c19161790565b90555b6001611d64613474565b01908051906001600160401b03821161032357611d8582611cb98554612752565b61010051906001601f841114611f6a57918091611dba936102c05192611f5f5750508160011b916000199060031b1c19161790565b90555b6002611dc7613474565b01608051516001600160401b03811161032357611dee81611de88454612752565b8461289a565b610100516001601f831114611eea576102c051611e20929182611edd575b508160011b916000199060031b1c19161790565b90555b611e2b613474565b6101405181546001600160a01b0319166001600160a01b0391909116179055611eb1611eab6002611e5a613402565b01611e6f611a4587610220516102a05161309d565b6001600160a01b03908116600090815261010051929092526102005190912061012051905460e0516101405192841693918216929116906130c1565b926132ec565b91600782101561171357600191611ec79161330e565b92611ed360c051612db0565b60c0529050611b63565b9050608051015187611e0c565b826102c05152610100516102c05120906102c0515b601f1984168110611f435750908291600193601f19811610611f28575b5050811b019055611e23565b608051015160001960f88460031b161c191690558680611f1c565b6080518201518355610100516001909301929182019101611eff565b015190508780610655565b90836102c05152610100516102c05120916102c0515b601f1985168110611fc4575090839291600194601f19811610611fab575b505050811b019055611dbd565b015160001960f88460031b161c19169055868080611f9e565b818301518455610100516001909401939283019201611f80565b015190508880610655565b90836102c05152610100516102c05120916102c0515b601f1985168110612043575090839291600194601f1981161061202a575b505050811b019055611d5a565b015160001960f88460031b161c1916905587808061201d565b818301518455610100516001909401939283019201611fff565b015190508980610655565b90836102c05152610100516102c05120916102c0515b601f19851681106120c2575090839291600194601f198116106120a9575b505050811b019055611cf7565b015160001960f88460031b161c1916905588808061209c565b81830151845561010051600190940193928301920161207e565b631e4fbdf760e01b6102c051526102c05160045260246102c051fd5b6308d49be960e31b6102c0515260045260246102c051fd5b6101005160001991900360031b1b1691508880611c80565b6080515115159150611c71565b855115159150611c6b565b845115159150611c65565b600414905084611b5d565b6102c051612163916126f1565b6102c0516101a1578061150d565b6102c05161217e916126f1565b6102c0516101a15780611465565b6102c051612199916126f1565b6102c0516101a157826113b3565b6102c0516121b4916126f1565b6102c0516101a157836112e0565b6102c0516121cf916126f1565b8361127d565b61020051516330b05d4560e21b81526101005160048201528061078b60248201610280516101a05161278c565b50610120516001600160a01b03161515611217565b506001600160a01b0381161515611211565b6102c08051630e288be560e01b9052610240516001600160a01b031660045251602490fd5b806122a361226260019386610180516127f3565b90612295602061227487611572612b42565b61227e878a61286f565b519082610200515194838680955193849201612500565b8201908152030190206128e1565b01610fd3565b6001602081926122b8856129b8565b815201920192019190610fc5565b8990630c48d2d360e41b6102c0515260045260245260446102c051fd5b6001602081926122f2856129b8565b815201920192019190610ef6565b60016020819261230f856129b8565b815201920192019190610ea1565b61020051516316e7f23360e11b8152602060048201528061078b60248201610280516101a05161278c565b6359a1bf5f60e01b6102c0515260046102c051fd5b50841515610e2f565b50821515610e29565b50811515610e23565b63e2517d3f60e01b6102c05152336004527f7ed687a8f2955bd2ba7ca08227e1e364d132be747f42fb733165f923021b022560245260446102c051fd5b604051637da4654d60e11b8152336004820152604060248201528061078b60448201610280516101a05161278c565b346101a15760203660031901126101a1576004356001600160401b0381116101a1576124176124269136906004016124ce565b90612420612712565b50612aaa565b60405180916020825260e06124b86124a261248c61245285516101006020890152610120880190612523565b60208601516001600160a01b0390811660408981019190915287015116606080890191909152860151878203601f19016080890152612523565b6080850151868203601f190160a0880152612523565b60a0840151858203601f190160c0870152612523565b9160c08101518285015201516101008301520390f35b9181601f840112156124fb578235916001600160401b0383116124fb57602083818601950101116124fb57565b600080fd5b60005b8381106125135750506000910152565b8181015183820152602001612503565b9060209161253c81518092818552858086019101612500565b601f01601f1916010190565b602435906001600160a01b03821682036124fb57565b600435906001600160a01b03821682036124fb57565b9181601f840112156124fb578235916001600160401b0383116124fb576020808501948460051b0101116124fb57565b906020808351928381520192019060005b8181106125c25750505090565b82516001600160a01b03168452602093840193909201916001016125b5565b90602080835192838152019201906000905b8082106126005750505090565b9091928351906007821015612623576020816001938293520194019201906125f3565b634e487b7160e01b600052602160045260246000fd5b60406003198201126124fb576004356001600160401b0381116124fb5781612663916004016124ce565b92909291602435906001600160401b0382116124fb57612685916004016124ce565b9091565b608081019081106001600160401b038211176126a457604052565b634e487b7160e01b600052604160045260246000fd5b602081019081106001600160401b038211176126a457604052565b61010081019081106001600160401b038211176126a457604052565b90601f801991011681019081106001600160401b038211176126a457604052565b6040519061271f826126d5565b600060e0836060815282602082015282604082015260608082015260606080820152606060a08201528260c08201520152565b90600182811c92168015612782575b602083101461276c57565b634e487b7160e01b600052602260045260246000fd5b91607f1691612761565b908060209392818452848401376000828201840152601f01601f1916010190565b9291926001600160401b0382116126a457604051916127d6601f8201601f1916602001846126f1565b8294818452818301116124fb578281602093846000960137010152565b909291928310156128405760009260051b81013590601e198136030182121561283c57018035926001600160401b038411612839575060200182360381136124fb579190565b80fd5b8380fd5b634e487b7160e01b600052603260045260246000fd5b6020919283604051948593843782019081520301902090565b80518210156128405760209160051b010190565b81811061288e575050565b60008155600101612883565b9190601f81116128a957505050565b6128d5926000526020600020906020601f840160051c830193106128d7575b601f0160051c0190612883565b565b90915081906128c8565b9092916001600160401b0381116126a45761290081611de88454612752565b6000601f82116001146129405781906129319394956000926129355750508160011b916000199060031b1c19161790565b9055565b013590503880610655565b601f198216948382526020822091805b87811061298857508360019596971061296e575b505050811b019055565b0135600019600384901b60f8161c19169055388080612964565b90926020600181928686013581550194019101612950565b80548210156128405760005260206000200190600090565b90604051918260008254926129cc84612752565b8084529360018116908115612a3857506001146129f1575b506128d5925003836126f1565b90506000929192526020600020906000915b818310612a1c5750509060206128d592820101386129e4565b6020919350806001915483858901015201910190918492612a03565b9050602092506128d594915060ff191682840152151560051b820101386129e4565b929190612a6a576128d5926128e1565b634e487b7160e01b600052600060045260246000fd5b9290612a9990612aa7959360408652604086019161278c565b92602081850391015261278c565b90565b612ac191612ab6612712565b5060026104a9612b42565b600760405191612ad0836126d5565b612ad9816129b8565b835260018101546001600160a01b0390811660208501526002820154166040840152612b07600382016129b8565b6060840152612b18600482016129b8565b6080840152612b29600582016129b8565b60a0840152600681015460c0840152015460e082015290565b604051602081017f0c15d248601496993b91775e26d65c75239afd51668be07fb67f76a382bff9b8815260208252612b7b6040836126f1565b9051902060ff191690565b6000612bb4612bc2829360405192839163104c13eb60e21b6020840152602060248401526044830190612523565b03601f1981018352826126f1565b6020815191016a636f6e736f6c652e6c6f675afa50565b604051602081017fcf377bf0da9cb35454543c63ad54bf2c5a0466b629ac7517e61f8857cae0fa25815260208252612c126040836126f1565b60ff19915190201660008052602052604060002060018060a01b03821660005260205260ff6040600020541615612c465750565b63e2517d3f60e01b60005260018060a01b0316600452600060245260446000fd5b6001600160401b0381116126a45760051b60200190565b919091828114612d5057612c928354612752565b6001600160401b0381116126a457612cae81611de88454612752565b600093601f8211600114612ceb576129319293948291600092612ce05750508160011b916000199060031b1c19161790565b015490503880610655565b845260208085208386529085209094601f198316815b818110612d3857509583600195969710612d1f57505050811b019055565b015460001960f88460031b161c19169055388080612964565b9192600180602092868b015481550194019201612d01565b509050565b604051602081017f806dfdd21cc5ccb4cb5e43c3351fdcb03baa9f74fc17c0e74f0826e07b93739b815260208252612b7b6040836126f1565b6001600160a01b039091168152604060208201819052612aa792910190612523565b6000198114612dbf5760010190565b634e487b7160e01b600052601160045260246000fd5b9291604051906104ad90818301908382106001600160401b038311176126a45784612e06928594614e698639612d8e565b03906000f080156130425760018060a01b03169260018060a01b038216600052806020526002604060002001612e3c8154612db0565b90556040600060018060a01b038416815282602052209060405191612e6083612689565b6002612e6b826129b8565b9182855260ff600182015460018060a01b038116602088015260a01c1615156040860152015460608401526040519160408301918383106001600160401b038411176126a45760409283528352602083019460018060a01b031685526001600091818060a01b0389168352016020522090519283516001600160401b0381116126a4578694612f0482612efe8654612752565b8661289a565b602090601f8311600114612fb05792612f5e83612fa096946001947fd35bad9fb6a1774ae85e46aea4e094db8d9dc30eaaf8e17514312d5b9ccdee099997600092612fa55750508160011b916000199060031b1c19161790565b83555b818060a01b0390511691019060018060a01b03166bffffffffffffffffffffffff60a01b82541617905551604051918291602083526020830190612523565b0390a2565b015190503880610655565b90601f1983169185600052816000209260005b8181106130275750936001937fd35bad9fb6a1774ae85e46aea4e094db8d9dc30eaaf8e17514312d5b9ccdee09989693859383612fa09a981061300e575b505050811b018355612f61565b015160001960f88460031b161c19169055388080613001565b8284015185558b995060019094019360209384019301612fc3565b6040513d6000823e3d90fd5b61307e612bc260009392849360405193849263319af33360e01b6020850152604060248501526064840190612523565b6001600160a01b0391909116604483015203601f1981018352826126f1565b91908110156128405760051b0190565b356001600160a01b03811681036124fb5790565b9293916000916040916130f983516130d985826126f1565b600e81526d5f6465706c6f795365727669636560901b6020820152612b86565b613101613402565b60018060a01b038216855260205260ff8385205416906131708451602081017f2810609b04caf5f85bb4aaecfb9d3c44224335fe412d57bd4016590897095aa481526020825261315187836126f1565b60ff199151902016828651916131686020846126f1565b888352612dd5565b966001600160a01b0388169384156132c65750600161318d613402565b6001600160a01b0390921687520160205283852060078310156132b25782865260205283852080546001600160a01b0319168417905582906001600160a01b03167f6e4794bbcdcbb6f8f64ec9a4edaa9ad91971f595599912c29ea5a393c034a74f8680a394956001600160a01b031686813b156132ae57835163f6d8178960e01b81526001600160a01b0391909116600482018190526024820152848160448183865af180156132a457613290575b50813b1561283c5782916024859492859351958693849263189acdbd60e31b845260048401525af19081156132875750613275575050565b6132808280926126f1565b6128395750565b513d84823e3d90fd5b8461329d919592956126f1565b923861323d565b84513d87823e3d90fd5b8480fd5b634e487b7160e01b86526021600452602486fd5b630edceaad60e01b8752336004526001600160a01b039081166024528216604452606486fd5b612aa7916040516132fc816126ba565b606081526040526001600160a01b0316905b91909160405161331d816126ba565b6060815260405280928151906001825101928360051b90601f19840151661d174b32e2c55380820615910402908183109183811781019080159082661d174b32e2c553029415613373575b505050505082015252565b602090889495969801016040511817156133ca579060409392918451926020840195869285010160405252855b8181015183820160200152601f19019081156133bc57906133a0565b505052913880808080613368565b90949260209250601f198601528401016040523880808080613368565b9080601f830112156124fb57816020612aa7933591016127ad565b604051602081017fa982c9e6e17d452331d25729e1841144b75518b90727406c625995fda7cfcb3f815260208252612b7b6040836126f1565b604051602081017fb7b8777dfce3c027b9b4ab96baa886d0c5d5e8c8632429d2b4be0ba869cd905f815260208252612b7b6040836126f1565b604051602081017f0cee7785c9739c2abcb4ce591dada6e864d6d906251746912d12a62bb828bf68815260208252612b7b6040836126f156fe60803461013a57601f6103da38819003918201601f19168301916001600160401b0383118484101761013f57808492604094855283398101031261013a5761004681610155565b906001600160a01b039061005c90602001610155565b1690811561012457600080546001600160a01b031981168417825560405193916001600160a01b03909116907f8be0079c531659141344cd1fd0a4f28419497f9722a3daafe3b4186f6b6457e09080a3803b1561010357600180546001600160a01b0319166001600160a01b039290921691821790557fbc7cd75a20ee27fd9adebab32041f755214dbc6bffa90cc0225b39da2e5c2d3b600080a2610270908161016a8239f35b63211eb15960e21b60009081526001600160a01b0391909116600452602490fd5b631e4fbdf760e01b600052600060045260246000fd5b600080fd5b634e487b7160e01b600052604160045260246000fd5b51906001600160a01b038216820361013a5756fe6080604052600436101561001257600080fd5b60003560e01c80633659cfe6146101905780635c60da1b14610167578063715018a61461010e5780638da5cb5b146100e55763f2fde38b1461005357600080fd5b346100e05760203660031901126100e0576004356001600160a01b038116908190036100e057610081610211565b80156100ca57600080546001600160a01b03198116831782556001600160a01b0316907f8be0079c531659141344cd1fd0a4f28419497f9722a3daafe3b4186f6b6457e09080a3005b631e4fbdf760e01b600052600060045260246000fd5b600080fd5b346100e05760003660031901126100e0576000546040516001600160a01b039091168152602090f35b346100e05760003660031901126100e057610127610211565b600080546001600160a01b0319811682556001600160a01b03167f8be0079c531659141344cd1fd0a4f28419497f9722a3daafe3b4186f6b6457e08280a3005b346100e05760003660031901126100e0576001546040516001600160a01b039091168152602090f35b346100e05760203660031901126100e0576004356001600160a01b038116908181036100e0576101be610211565b3b156101fd57600180546001600160a01b031916821790557fbc7cd75a20ee27fd9adebab32041f755214dbc6bffa90cc0225b39da2e5c2d3b600080a2005b63211eb15960e21b60005260045260246000fd5b6000546001600160a01b0316330361022557565b63118cdaa760e01b6000523360045260246000fdfea264697066735822122064ee34d8aac134cd71c99b18254a6e6b157733d4b5d90a10613c087479a049aa64736f6c634300081c0033608080604052346101ac57602081610f70803803809161001f82856101b1565b8339810103126101ac57516001600160a01b038116908190036101ac57801561019657600380546001600160a01b031981168317909155600091829161015e916101729181906001600160a01b03167f8be0079c531659141344cd1fd0a4f28419497f9722a3daafe3b4186f6b6457e08680a383806100f66101046040516100a86040826101b1565b601681527f44696374696f6e61727920636f6e7374727563746f7200000000000000000000602082015260405192839163104c13eb60e21b60208401526020602484015260448301906101ea565b03601f1981018352826101b1565b6020815191016a636f6e736f6c652e6c6f675afa50604051906101286040836101b1565b600582526437bbb732b960d91b602083015260405193849263319af33360e01b60208501526040602485015260648401906101ea565b90604483015203601f1981018352826101b1565b6020815191016a636f6e736f6c652e6c6f675afa50604051610d44908161022c8239f35b631e4fbdf760e01b600052600060045260246000fd5b600080fd5b601f909101601f19168101906001600160401b038211908210176101d457604052565b634e487b7160e01b600052604160045260246000fd5b919082519283825260005b848110610216575050826000602080949584010152601f8019910116010190565b806020809284010151828286010152016101f556fe608080604052600436101561001357600080fd5b60003560e01c90816301ffc9a714610831575080630815f6fd146106de5780630fb95533146106d95780635c60da1b146106d9578063651dc03d1461066d578063715018a61461061057806386ec366f146104735780638da5cb5b1461044a578063a5954dd7146101c6578063dc9cc64514610191578063f2fde38b146101075763f6d81789146100a357600080fd5b34610102576040366003190112610102576100bc6108a0565b6100c461088a565b906100cd610b57565b6001600160a01b039081166000908152600460209081526040808320949093168252929092529020805460ff19166001179055005b600080fd5b34610102576020366003190112610102576101206108a0565b610128610b57565b6001600160a01b0316801561017b57600380546001600160a01b0319811683179091556001600160a01b03167f8be0079c531659141344cd1fd0a4f28419497f9722a3daafe3b4186f6b6457e0600080a3005b631e4fbdf760e01b600052600060045260246000fd5b346101025760203660031901126101025760206101b46101af610873565b610b80565b6040516001600160a01b039091168152f35b3461010257600036600319011261010257604051806020600154918281520190828260016000527fb10e2d527612073b26eecdfd717e6a320cf44b4afac2b0732d9fcbe2b7fa0cf6926000905b8060078301106103a55761026c945491818110610386575b818110610367575b818110610348575b818110610329575b81811061030a575b8181106102eb575b8181106102ce575b106102b9575b5093929303826108df565b6040519182916020830190602084525180915260408301919060005b818110610296575050500390f35b82516001600160e01b031916845285945060209384019390920191600101610288565b6001600160e01b031916815260200185610261565b602083811b6001600160e01b03191685529093019260010161025b565b604083901b6001600160e01b0319168452602090930192600101610253565b606083901b6001600160e01b031916845260209093019260010161024b565b608083901b6001600160e01b0319168452602090930192600101610243565b60a083901b6001600160e01b031916845260209093019260010161023b565b60c083901b6001600160e01b0319168452602090930192600101610233565b60e083901b6001600160e01b031916845260209093019260010161022b565b916008919350610100600191865463ffffffff60e01b8160e01b16825263ffffffff60e01b8160c01b16602083015263ffffffff60e01b8160a01b16604083015263ffffffff60e01b8160801b16606083015263ffffffff60e01b8160601b16608083015263ffffffff60e01b8160401b1660a083015263ffffffff60e01b8160201b1660c083015263ffffffff60e01b1660e0820152019401920185929391610213565b34610102576000366003190112610102576003546040516001600160a01b039091168152602090f35b346101025760403660031901126101025760043567ffffffffffffffff811161010257366023820112156101025780600401356104af81610917565b916104bd60405193846108df565b8183526024602084019260051b8201019036821161010257602401915b8183106105ef576024358467ffffffffffffffff8211610102573660238301121561010257816004013561050d81610917565b9261051b60405194856108df565b8184526024602085019260051b8201019036821161010257602401915b8183106105cf575050508051825190818114806105c6575b806105bb575b156105a457505060005b81518110156105a25760019061059c6001600160e01b0319610582838661092f565b5116838060a01b03610594848861092f565b5116906109eb565b01610560565b005b635e30c5f960e01b60005260045260245260446000fd5b506064821115610556565b50801515610550565b82356001600160a01b038116810361010257815260209283019201610538565b82356001600160e01b031981168103610102578152602092830192016104da565b3461010257600036600319011261010257610629610b57565b600380546001600160a01b031981169091556000906001600160a01b03167f8be0079c531659141344cd1fd0a4f28419497f9722a3daafe3b4186f6b6457e08280a3005b34610102576020366003190112610102577f159f10d3da077d18f228d52be447d552e7d1892d10f7af8f615658160e37472960206106a96108a0565b6106b1610b57565b600280546001600160a01b0319166001600160a01b03929092169182179055604051908152a1005b6108b6565b34610102576040366003190112610102576106f7610873565b6106ff61088a565b9061072f6040516107116040826108df565b600a81526936b9b39739b2b73232b960b11b60208201523390610959565b610761826040516107416040826108df565b600e81526d34b6b83632b6b2b73a30ba34b7b760911b6020820152610959565b8160018060a01b036003541633148015610803575b156107de57610784916109eb565b336000526004602052604060002060018060a01b03821660005260205260ff60406000205416156107b157005b3360009081526004602090815260408083206001600160a01b03909416835292905220805460ff19169055005b63a2b2cbaf60e01b6000908152336004526001600160a01b0391909116602452604490fd5b5050336000526004602052604060002060018060a01b0383166000526020528160ff60406000205416610776565b34610102576020366003190112610102576020906001600160e01b0319610856610873565b16600090815280835260409020546001600160a01b031615158152f35b600435906001600160e01b03198216820361010257565b602435906001600160a01b038216820361010257565b600435906001600160a01b038216820361010257565b34610102576000366003190112610102576002546040516001600160a01b039091168152602090f35b90601f8019910116810190811067ffffffffffffffff82111761090157604052565b634e487b7160e01b600052604160045260246000fd5b67ffffffffffffffff81116109015760051b60200190565b80518210156109435760209160051b010190565b634e487b7160e01b600052603260045260246000fd5b60405190602082019263319af33360e01b84526040602484015281519182606485015260005b8381106109d5575050916109c2608482846000979596888481998501015260018060a01b03166044830152601f801991011681010301601f1981018352826108df565b51906a636f6e736f6c652e6c6f675afa50565b806020809284010151608482880101520161097f565b6001600160a01b038216918215610a8057610a0582610c3d565b3b15610a6b577fda3c8142b3c1d27633026f55bfcb4eeb0b5b8db0daa0a3e10c2213a441722ad19160409163ffffffff60e01b169081600052600060205282600020816bffffffffffffffffffffffff60a01b82541617905582519182526020820152a1565b50630c76093760e01b60005260045260246000fd5b506001600160e01b031916905060005b600154811015610b2d5781610aa482610bfc565b63ffffffff60e01b91549060031b1c60e01b1614610ac457600101610a90565b7fb0f2f3a9229724df0b95683e95488b72aed817bc1a5bd6fe1d2e7504e92871cb91610af1602092610bfc565b63ffffffff82549160031b1b191690555b806000526000825260406000206bffffffffffffffffffffffff60a01b8154169055604051908152a1565b5060207fb0f2f3a9229724df0b95683e95488b72aed817bc1a5bd6fe1d2e7504e92871cb91610b02565b6003546001600160a01b03163303610b6b57565b63118cdaa760e01b6000523360045260246000fd5b6001600160e01b0319166000818152602081905260409020549091906001600160a01b031680610bf8575060008080526020527fad3228b676f7d3cd4284a5443f17f1962b36e491b30a40b2405849e597ba5fb5546001600160a01b031680610bf8578263404ceef760e11b60005260045260246000fd5b9150565b90600154821015610943576001600052600382901c7fb10e2d527612073b26eecdfd717e6a320cf44b4afac2b0732d9fcbe2b7fa0cf6019160021b601c1690565b610c4681610cc0565b610cbd5760015468010000000000000000811015610901577fbe533f538959a17d76f1b09e966e741ee3b1183099682f96216c93d21feaecba91610c9282600160209401600155610bfc565b81549060031b9063ffffffff8460e01c831b921b19161790556040519063ffffffff60e01b168152a1565b50565b6001549060005b828110610cd657505050600090565b610cdf81610bfc565b90546001600160e01b031960039290921b1c60e01b811690831614610d0657600101610cc7565b50505060019056fea26469706673582212200af309e5002a59c4dea05249dbb25807e4514ee77f3427c6ddbeecbe0bbf92e264736f6c634300081c003360808060405234601557610656908161001b8239f35b600080fdfe608080604052600436101561001357600080fd5b60003560e01c90816301ffc9a7146103f357508063248a9ca3146103cd5780632f2ff15d1461037657806336568abe1461033057806391d14854146102dd578063c4d66de8146100e35763d547741f1461006c57600080fd5b346100de5760403660031901126100de57600435610088610446565b6100918261045c565b9161009a6105dc565b600084815260209182526040808220338352909252205460ff16156100c5576100c39250610512565b005b8263e2517d3f60e01b6000523360045260245260446000fd5b600080fd5b346100de5760203660031901126100de576004356001600160a01b038116908190036100de5760ff604051602081017ff158cb8b47a14bda3b2c4affcc0d960e9ed23f5a516e4779510b08a6e823c0258152602082526101446040836105a4565b8219915190201654166102cd5760405161015f60e0826105a4565b600681526020810160c03682378151156102b7576301ffc9a760e01b90528051600110156102b757632f2ff15d60e01b60408201528051600210156102b75763d547741f60e01b60608201528051600310156102b757631b2b455f60e11b60808201528051600410156102b75763248a9ca360e01b60a08201528051600510156102b757632474521560e21b60c082015260005b815181101561028f576000825182101561027b5750600581901b8201602001516001600160e01b03191690833b156100de5760405191630815f6fd60e01b8352600483015230602483015260008260448183885af191821561026f5760019261025e575b50016101f3565b6000610269916105a4565b84610257565b6040513d6000823e3d90fd5b634e487b7160e01b81526032600452602490fd5b337f766a6be0db21517b2b423a513c14e61451e05bf62e25a0fe2ed3e444d19d9aa9600080a2005b634e487b7160e01b600052603260045260246000fd5b62dc149f60e41b60005260046000fd5b346100de5760403660031901126100de576102f6610446565b6102fe6105dc565b60043560005260205260406000209060018060a01b0316600052602052602060ff604060002054166040519015158152f35b346100de5760403660031901126100de57610349610446565b336001600160a01b03821603610365576100c390600435610512565b63334bd91960e11b60005260046000fd5b346100de5760403660031901126100de57600435610392610446565b61039b8261045c565b916103a46105dc565b600084815260209182526040808220338352909252205460ff16156100c5576100c39250610477565b346100de5760203660031901126100de5760206103eb60043561045c565b604051908152f35b346100de5760203660031901126100de576004359063ffffffff60e01b82168092036100de57602091637965db0b60e01b8114908115610435575b5015158152f35b6301ffc9a760e01b1490508361042e565b602435906001600160a01b03821682036100de57565b6104646105dc565b9060005260205260016040600020015490565b61047f6105dc565b6000828152602091825260408082206001600160a01b0386168352909252205460ff1661050b576104ae6105dc565b6000828152602091825260408082206001600160a01b039590951680835294909252908120805460ff19166001179055339291907f2f8788117e7eff1d82e926ec794901d17c78024a50270940304540a733656f0d9080a4600190565b5050600090565b61051a6105dc565b6000828152602091825260408082206001600160a01b0386168352909252205460ff161561050b5761054a6105dc565b6000828152602091825260408082206001600160a01b039590951680835294909252908120805460ff19169055339291907ff6391f5c32d9c69d2a47ea670b442974b53935d1edc7fd64eb21e047a839171b9080a4600190565b90601f8019910116810190811067ffffffffffffffff8211176105c657604052565b634e487b7160e01b600052604160045260246000fd5b604051602081017fcf377bf0da9cb35454543c63ad54bf2c5a0466b629ac7517e61f8857cae0fa258152602082526106156040836105a4565b9051902060ff19169056fea2646970667358221220f23e6cfa16e5d1358df0602c550e015432722869fb51b4a09e58a22c768e2d0964736f6c634300081c003360a0806040526104ad803803809161001782856102b7565b833981016040828203126101f35761002e826102f0565b602083015190926001600160401b0382116101f3570181601f820112156101f35780519061005b82610304565b9261006960405194856102b7565b828452602083830101116101f35760005b8281106102a2575050602060009183010152813b15610280577fa3f0ad74e5423aebfd80d3ef4346578335a9a72aeaee59ff6cb3582b35133d5080546001600160a01b0319166001600160a01b038416908117909155604051635c60da1b60e01b8152909190602081600481865afa90811561020057600091610246575b50803b156102255750817f1cf3b03a6cf19fa2baba4df148e9dcabedea7f8a5c07840e207e5c089be95d3e600080a280511561020c57602060049260405193848092635c60da1b60e01b82525afa918215610200576000926101b9575b509060008083602061019595519101845af43d156101b1573d9161017883610304565b9261018660405194856102b7565b83523d6000602085013e61031f565b505b60805260405161012c908161038182396080518160180152f35b60609161031f565b91506020823d6020116101f8575b816101d4602093836102b7565b810103126101f3576000806101eb610195946102f0565b935050610155565b600080fd5b3d91506101c7565b6040513d6000823e3d90fd5b505034156101975763b398979f60e01b60005260046000fd5b634c9c8ce360e01b60009081526001600160a01b0391909116600452602490fd5b90506020813d602011610278575b81610261602093836102b7565b810103126101f357610272906102f0565b386100f8565b3d9150610254565b50631933b43b60e21b60009081526001600160a01b0391909116600452602490fd5b8060208092840101518282870101520161007a565b601f909101601f19168101906001600160401b038211908210176102da57604052565b634e487b7160e01b600052604160045260246000fd5b51906001600160a01b03821682036101f357565b6001600160401b0381116102da57601f01601f191660200190565b90610345575080511561033457805190602001fd5b63d6bda27560e01b60005260046000fd5b81511580610377575b610356575090565b639996b31560e01b60009081526001600160a01b0391909116600452602490fd5b50803b1561034e56fe60806040819052635c60da1b60e01b81526020906004817f00000000000000000000000000000000000000000000000000000000000000006001600160a01b03165afa801560a5576000901560d6575060203d602011609f575b601f19601f820116608001906080821067ffffffffffffffff83111760895760859160405260800160b1565b60d6565b634e487b7160e01b600052604160045260246000fd5b503d6059565b6040513d6000823e3d90fd5b602090607f19011260d1576080516001600160a01b038116810360d15790565b600080fd5b60008091368280378136915af43d6000803e1560f1573d6000f35b3d6000fdfea264697066735822122022314cbcedd0a79de2098b56e439a94b65e63387b9795a0c06594490f6c519be64736f6c634300081c00336080806040523460155761028f908161001b8239f35b600080fdfe608080604052600436101561001357600080fd5b60003560e01c63485cc9551461002857600080fd5b346101e05760403660031901126101e0576004356001600160a01b038116908190036101e0576024356001600160a01b03811692908390036101e057602081017ff158cb8b47a14bda3b2c4affcc0d960e9ed23f5a516e4779510b08a6e823c02581526020825261009a604083610221565b9051902060ff1916805460ff81166102115760ff19166001179055604051906100c460e083610221565b600682526020820160c03682378251156101fb5763485cc95560e01b90528151600110156101fb57633dbaac6360e01b60408301528151600210156101fb5763201ae1b960e11b60608301528151600310156101fb57631ba82e6360e31b60808301528151600410156101fb576336266ac760e11b60a08301528151600510156101fb576316b7d25960e11b60c083015260005b82518110156101f957600083518210156101e55750600581901b8301602001516001600160e01b03191690843b156101e05760405191630815f6fd60e01b8352600483015282602483015260008260448183895af19182156101d4576001926101c3575b5001610158565b60006101ce91610221565b386101bc565b6040513d6000823e3d90fd5b600080fd5b634e487b7160e01b81526032600452602490fd5b005b634e487b7160e01b600052603260045260246000fd5b62dc149f60e41b60005260046000fd5b90601f8019910116810190811067ffffffffffffffff82111761024357604052565b634e487b7160e01b600052604160045260246000fdfea2646970667358221220090b86ff9c3261d73a365cbc65d240ee7418517b004d72012a9620f8b819b9f964736f6c634300081c00336080806040526104e7803803809161001782856102b2565b83398101906040818303126102175761002f816102eb565b602082015190916001600160401b03821161021757019082601f8301121561021757815161005c816102ff565b9261006a60405194856102b2565b8184526020840194602083830101116102175760005b82811061029d575050602060009184010152803b156102695760018060a01b0316918260018060a01b03196000805160206104c78339815191525416176000805160206104c7833981519152557fa657f2ad315cf3bb35cf1964158da75c3f334481df05a4a1644b2376b17a59b26020604051858152a181511561025057815181516001600160e01b0319811692919060048210610230575b505060405163dc9cc64560e01b81526001600160e01b03199092166004830152602082602481875afa918215610224576000926101d9575b506000809161018d945190845af43d156101d1573d91610170836102ff565b9261017e60405194856102b2565b83523d6000602085013e61031a565b505b7fa3f0ad74e5423aebfd80d3ef4346578335a9a72aeaee59ff6cb3582b35133d5080546001600160a01b03191691909117905560405161014b908161037c8239f35b60609161031a565b9291506020833d60201161021c575b816101f5602093836102b2565b81010312610217576000809161020d61018d956102eb565b9394509150610151565b600080fd5b3d91506101e8565b6040513d6000823e3d90fd5b6001600160e01b031960049290920360031b82901b161691503880610119565b5050341561018f5763b398979f60e01b60005260046000fd5b60405162461bcd60e51b815260206004820152600c60248201526b1393d397d0d3d395149050d560a21b6044820152606490fd5b80602080928401015182828801015201610080565b601f909101601f19168101906001600160401b038211908210176102d557604052565b634e487b7160e01b600052604160045260246000fd5b51906001600160a01b038216820361021757565b6001600160401b0381116102d557601f01601f191660200190565b90610340575080511561032f57805190602001fd5b63d6bda27560e01b60005260046000fd5b81511580610372575b610351575090565b639996b31560e01b60009081526001600160a01b0391909116600452602490fd5b50803b1561034956fe608060408190527f267691be3525af8a813d30db0c9e2bad08f63baecf6dceb85e2cf3676cff56f45463dc9cc64560e01b82526000356001600160e01b0319166084526020919060249082906001600160a01b03165afa80156100c157600090156100f4575060203d6020116100ba575b601f19601f820116608001906080821067ffffffffffffffff8311176100a45761009f916040526080016100cd565b6100f4565b634e487b7160e01b600052604160045260246000fd5b503d610070565b6040513d6000823e3d90fd5b602090607f1901126100ef576080516001600160a01b03811681036100ef5790565b600080fd5b60008091368280378136915af43d6000803e15610110573d6000f35b3d6000fdfea26469706673582212201c2915f595d485e074471b9acdde2fa0514509e670928bf38fd13943bd8769be64736f6c634300081c0033267691be3525af8a813d30db0c9e2bad08f63baecf6dceb85e2cf3676cff56f4a2646970667358221220938fe55507f814839d986be8f101369f8629ce6863e824429d8b7af65fe5e0a464736f6c634300081c0033",
  "linkReferences": {},
  "deployedLinkReferences": {}
}