{
  "_format": "hh-sol-artifact-1",
  "contractName": "BorderlessProxyFacade",
  "sourceName": "contracts/core/Proxy/facades/BorderlessProxyFacade.sol",
  "abi": [
    {
      "inputs": [
        {
          "internalType": "address",
          "name": "founder",
          "type": "address"
        },
        {
          "internalType": "string",
          "name": "scid",
          "type": "string"
        }
      ],
      "name": "AlreadyEstablish",
      "type": "error"
    },
    {
      "inputs": [
        {
          "internalType": "string",
          "name": "scid",
          "type": "string"
        }
      ],
      "name": "AlreadyRegisteredScid",
      "type": "error"
    },
    {
      "inputs": [
        {
          "internalType": "address",
          "name": "founder",
          "type": "address"
        }
      ],
      "name": "AlreadySetSmartCompanyId",
      "type": "error"
    },
    {
      "inputs": [
        {
          "internalType": "string",
          "name": "scid",
          "type": "string"
        }
      ],
      "name": "FailedDeploySmartCompany",
      "type": "error"
    },
    {
      "inputs": [
        {
          "internalType": "bytes4",
          "name": "selector",
          "type": "bytes4"
        }
      ],
      "name": "ImplementationNotFound",
      "type": "error"
    },
    {
      "inputs": [
        {
          "internalType": "uint256",
          "name": "selectors",
          "type": "uint256"
        },
        {
          "internalType": "uint256",
          "name": "implementations",
          "type": "uint256"
        }
      ],
      "name": "InvalidBulkLength",
      "type": "error"
    },
    {
      "inputs": [
        {
          "internalType": "uint256",
          "name": "expected",
          "type": "uint256"
        },
        {
          "internalType": "uint256",
          "name": "length",
          "type": "uint256"
        }
      ],
      "name": "InvalidCompanyInfoLength",
      "type": "error"
    },
    {
      "inputs": [
        {
          "internalType": "address",
          "name": "founder",
          "type": "address"
        }
      ],
      "name": "InvalidFounder",
      "type": "error"
    },
    {
      "inputs": [
        {
          "internalType": "address",
          "name": "implementation",
          "type": "address"
        }
      ],
      "name": "InvalidImplementation",
      "type": "error"
    },
    {
      "inputs": [
        {
          "internalType": "address",
          "name": "account",
          "type": "address"
        },
        {
          "internalType": "address",
          "name": "company",
          "type": "address"
        },
        {
          "internalType": "address",
          "name": "service",
          "type": "address"
        }
      ],
      "name": "NotActivateService",
      "type": "error"
    },
    {
      "inputs": [
        {
          "internalType": "address",
          "name": "account",
          "type": "address"
        },
        {
          "internalType": "address",
          "name": "implementation",
          "type": "address"
        }
      ],
      "name": "NotOwnerOrInitialized",
      "type": "error"
    },
    {
      "inputs": [
        {
          "internalType": "address",
          "name": "founder",
          "type": "address"
        }
      ],
      "name": "NotSetSmartCompanyId",
      "type": "error"
    },
    {
      "inputs": [
        {
          "internalType": "address",
          "name": "beacon",
          "type": "address"
        }
      ],
      "name": "SmartCompanyNotOnline",
      "type": "error"
    },
    {
      "anonymous": false,
      "inputs": [
        {
          "indexed": false,
          "internalType": "address",
          "name": "founder",
          "type": "address"
        }
      ],
      "name": "DeleteSmartCompanyId",
      "type": "event"
    },
    {
      "anonymous": false,
      "inputs": [
        {
          "indexed": true,
          "internalType": "address",
          "name": "founder",
          "type": "address"
        },
        {
          "indexed": true,
          "internalType": "address",
          "name": "company",
          "type": "address"
        },
        {
          "indexed": false,
          "internalType": "string",
          "name": "scid",
          "type": "string"
        },
        {
          "indexed": false,
          "internalType": "address[]",
          "name": "services",
          "type": "address[]"
        },
        {
          "indexed": false,
          "internalType": "enum ServiceType[]",
          "name": "serviceTypes",
          "type": "uint8[]"
        }
      ],
      "name": "DeploySmartCompany",
      "type": "event"
    },
    {
      "anonymous": false,
      "inputs": [
        {
          "indexed": false,
          "internalType": "bytes4",
          "name": "selector",
          "type": "bytes4"
        }
      ],
      "name": "ImplementationDeleted",
      "type": "event"
    },
    {
      "anonymous": false,
      "inputs": [
        {
          "indexed": false,
          "internalType": "bytes4",
          "name": "selector",
          "type": "bytes4"
        },
        {
          "indexed": false,
          "internalType": "address",
          "name": "newImplementation",
          "type": "address"
        }
      ],
      "name": "ImplementationUpgraded",
      "type": "event"
    },
    {
      "anonymous": false,
      "inputs": [
        {
          "indexed": false,
          "internalType": "bytes4",
          "name": "newSelector",
          "type": "bytes4"
        }
      ],
      "name": "NewFunctionSelectorAdded",
      "type": "event"
    },
    {
      "anonymous": false,
      "inputs": [
        {
          "indexed": true,
          "internalType": "address",
          "name": "scBeacon",
          "type": "address"
        },
        {
          "indexed": true,
          "internalType": "address",
          "name": "newSCImplementation",
          "type": "address"
        },
        {
          "indexed": true,
          "internalType": "address",
          "name": "newSCFacade",
          "type": "address"
        }
      ],
      "name": "SetSCContract",
      "type": "event"
    },
    {
      "anonymous": false,
      "inputs": [
        {
          "indexed": false,
          "internalType": "address",
          "name": "founder",
          "type": "address"
        },
        {
          "indexed": false,
          "internalType": "string",
          "name": "scid",
          "type": "string"
        }
      ],
      "name": "SetSmartCompanyId",
      "type": "event"
    },
    {
      "anonymous": false,
      "inputs": [
        {
          "indexed": true,
          "internalType": "address",
          "name": "scBeacon",
          "type": "address"
        },
        {
          "indexed": true,
          "internalType": "address",
          "name": "newSCImplementation",
          "type": "address"
        },
        {
          "indexed": true,
          "internalType": "address",
          "name": "newSCFacade",
          "type": "address"
        }
      ],
      "name": "UpdateSCContract",
      "type": "event"
    },
    {
      "anonymous": false,
      "inputs": [
        {
          "indexed": false,
          "internalType": "address",
          "name": "founder",
          "type": "address"
        },
        {
          "indexed": false,
          "internalType": "string",
          "name": "scid",
          "type": "string"
        }
      ],
      "name": "UpdateSmartCompanyId",
      "type": "event"
    },
    {
      "inputs": [],
      "name": "DEFAULT_ADMIN_ROLE",
      "outputs": [
        {
          "internalType": "bytes32",
          "name": "",
          "type": "bytes32"
        }
      ],
      "stateMutability": "view",
      "type": "function"
    },
    {
      "inputs": [],
      "name": "FOUNDER_ROLE",
      "outputs": [
        {
          "internalType": "bytes32",
          "name": "",
          "type": "bytes32"
        }
      ],
      "stateMutability": "view",
      "type": "function"
    },
    {
      "inputs": [],
      "name": "MINTER_ROLE",
      "outputs": [
        {
          "internalType": "bytes32",
          "name": "",
          "type": "bytes32"
        }
      ],
      "stateMutability": "view",
      "type": "function"
    },
    {
      "inputs": [
        {
          "internalType": "bytes32",
          "name": "role",
          "type": "bytes32"
        },
        {
          "internalType": "address[]",
          "name": "accounts",
          "type": "address[]"
        }
      ],
      "name": "bulkGrantRole",
      "outputs": [],
      "stateMutability": "nonpayable",
      "type": "function"
    },
    {
      "inputs": [
        {
          "internalType": "bytes32",
          "name": "role",
          "type": "bytes32"
        },
        {
          "internalType": "address[]",
          "name": "accounts",
          "type": "address[]"
        }
      ],
      "name": "bulkRevokeRole",
      "outputs": [],
      "stateMutability": "nonpayable",
      "type": "function"
    },
    {
      "inputs": [
        {
          "internalType": "string",
          "name": "legalEntityCode",
          "type": "string"
        },
        {
          "internalType": "string[]",
          "name": "companyInfoFields",
          "type": "string[]"
        }
      ],
      "name": "bulkSetCompanyInfoFields",
      "outputs": [],
      "stateMutability": "nonpayable",
      "type": "function"
    },
    {
      "inputs": [
        {
          "internalType": "bytes4[]",
          "name": "selectors",
          "type": "bytes4[]"
        },
        {
          "internalType": "address",
          "name": "implementation_",
          "type": "address"
        }
      ],
      "name": "bulkSetImplementation",
      "outputs": [],
      "stateMutability": "nonpayable",
      "type": "function"
    },
    {
      "inputs": [
        {
          "internalType": "bytes4[]",
          "name": "selectors",
          "type": "bytes4[]"
        },
        {
          "internalType": "address[]",
          "name": "implementations",
          "type": "address[]"
        }
      ],
      "name": "bulkSetImplementation",
      "outputs": [],
      "stateMutability": "nonpayable",
      "type": "function"
    },
    {
      "inputs": [
        {
          "internalType": "address",
          "name": "beacon",
          "type": "address"
        },
        {
          "internalType": "bool",
          "name": "isOnline",
          "type": "bool"
        }
      ],
      "name": "changeSCRBeaconOnline",
      "outputs": [],
      "stateMutability": "nonpayable",
      "type": "function"
    },
    {
      "inputs": [
        {
          "internalType": "address",
          "name": "beacon",
          "type": "address"
        },
        {
          "internalType": "bool",
          "name": "isOnline",
          "type": "bool"
        }
      ],
      "name": "changeServiceFactoryBeaconOnline",
      "outputs": [],
      "stateMutability": "nonpayable",
      "type": "function"
    },
    {
      "inputs": [
        {
          "internalType": "address",
          "name": "implementation",
          "type": "address"
        },
        {
          "internalType": "address",
          "name": "facade",
          "type": "address"
        },
        {
          "internalType": "string",
          "name": "name",
          "type": "string"
        },
        {
          "internalType": "address",
          "name": "defaultOwner",
          "type": "address"
        }
      ],
      "name": "createSCRBeaconProxy",
      "outputs": [
        {
          "internalType": "address",
          "name": "proxy",
          "type": "address"
        }
      ],
      "stateMutability": "nonpayable",
      "type": "function"
    },
    {
      "inputs": [
        {
          "internalType": "address",
          "name": "implementation",
          "type": "address"
        },
        {
          "internalType": "address",
          "name": "facade",
          "type": "address"
        },
        {
          "internalType": "string",
          "name": "name",
          "type": "string"
        },
        {
          "internalType": "address",
          "name": "defaultOwner",
          "type": "address"
        }
      ],
      "name": "createServiceFactoryBeaconProxy",
      "outputs": [
        {
          "internalType": "address",
          "name": "proxy",
          "type": "address"
        }
      ],
      "stateMutability": "nonpayable",
      "type": "function"
    },
    {
      "inputs": [
        {
          "components": [
            {
              "internalType": "string",
              "name": "scid",
              "type": "string"
            },
            {
              "internalType": "address",
              "name": "scBeaconProxy",
              "type": "address"
            },
            {
              "internalType": "string",
              "name": "legalEntityCode",
              "type": "string"
            },
            {
              "internalType": "string",
              "name": "companyName",
              "type": "string"
            },
            {
              "internalType": "string",
              "name": "establishmentDate",
              "type": "string"
            },
            {
              "internalType": "string",
              "name": "jurisdiction",
              "type": "string"
            },
            {
              "internalType": "string",
              "name": "entityType",
              "type": "string"
            },
            {
              "internalType": "bytes",
              "name": "scDeployParams",
              "type": "bytes"
            },
            {
              "internalType": "string[]",
              "name": "companyInfo",
              "type": "string[]"
            },
            {
              "internalType": "address[]",
              "name": "scsBeaconProxy",
              "type": "address[]"
            },
            {
              "internalType": "bytes[]",
              "name": "scsDeployParams",
              "type": "bytes[]"
            }
          ],
          "internalType": "struct ISCRStructs.CreateSmartCompanyParams",
          "name": "params",
          "type": "tuple"
        }
      ],
      "name": "createSmartCompany",
      "outputs": [
        {
          "internalType": "address",
          "name": "company",
          "type": "address"
        },
        {
          "internalType": "address[]",
          "name": "services",
          "type": "address[]"
        },
        {
          "internalType": "enum ServiceType[]",
          "name": "serviceTypes",
          "type": "uint8[]"
        }
      ],
      "stateMutability": "nonpayable",
      "type": "function"
    },
    {
      "inputs": [
        {
          "internalType": "string",
          "name": "scid",
          "type": "string"
        }
      ],
      "name": "deleteCompanyBaseInfo",
      "outputs": [],
      "stateMutability": "nonpayable",
      "type": "function"
    },
    {
      "inputs": [
        {
          "internalType": "string",
          "name": "scid",
          "type": "string"
        },
        {
          "internalType": "string",
          "name": "companyInfoField",
          "type": "string"
        }
      ],
      "name": "deleteCompanyInfo",
      "outputs": [],
      "stateMutability": "nonpayable",
      "type": "function"
    },
    {
      "inputs": [
        {
          "internalType": "string",
          "name": "legalEntityCode",
          "type": "string"
        },
        {
          "internalType": "uint256",
          "name": "fieldIndex",
          "type": "uint256"
        }
      ],
      "name": "deleteCompanyInfoField",
      "outputs": [],
      "stateMutability": "nonpayable",
      "type": "function"
    },
    {
      "inputs": [
        {
          "internalType": "address",
          "name": "founder",
          "type": "address"
        }
      ],
      "name": "deleteSmartCompanyId",
      "outputs": [],
      "stateMutability": "nonpayable",
      "type": "function"
    },
    {
      "inputs": [],
      "name": "getAccessControlSelectors",
      "outputs": [
        {
          "internalType": "bytes4[]",
          "name": "selectors",
          "type": "bytes4[]"
        }
      ],
      "stateMutability": "view",
      "type": "function"
    },
    {
      "inputs": [],
      "name": "getBeacon",
      "outputs": [
        {
          "internalType": "address",
          "name": "",
          "type": "address"
        }
      ],
      "stateMutability": "view",
      "type": "function"
    },
    {
      "inputs": [
        {
          "internalType": "string",
          "name": "scid",
          "type": "string"
        }
      ],
      "name": "getCompanyBaseInfo",
      "outputs": [
        {
          "components": [
            {
              "internalType": "string",
              "name": "companyName",
              "type": "string"
            },
            {
              "internalType": "address",
              "name": "companyAddress",
              "type": "address"
            },
            {
              "internalType": "address",
              "name": "founder",
              "type": "address"
            },
            {
              "internalType": "string",
              "name": "establishmentDate",
              "type": "string"
            },
            {
              "internalType": "string",
              "name": "jurisdiction",
              "type": "string"
            },
            {
              "internalType": "string",
              "name": "entityType",
              "type": "string"
            },
            {
              "internalType": "uint256",
              "name": "createAt",
              "type": "uint256"
            },
            {
              "internalType": "uint256",
              "name": "updateAt",
              "type": "uint256"
            }
          ],
          "internalType": "struct ICompanyInfoStructs.CompanyInfo",
          "name": "companyInfo",
          "type": "tuple"
        }
      ],
      "stateMutability": "view",
      "type": "function"
    },
    {
      "inputs": [
        {
          "internalType": "string",
          "name": "scid",
          "type": "string"
        },
        {
          "internalType": "string",
          "name": "companyInfoField",
          "type": "string"
        }
      ],
      "name": "getCompanyInfo",
      "outputs": [
        {
          "internalType": "string",
          "name": "value",
          "type": "string"
        }
      ],
      "stateMutability": "view",
      "type": "function"
    },
    {
      "inputs": [
        {
          "internalType": "string",
          "name": "legalEntityCode",
          "type": "string"
        }
      ],
      "name": "getCompanyInfoFields",
      "outputs": [
        {
          "internalType": "string[]",
          "name": "fields",
          "type": "string[]"
        }
      ],
      "stateMutability": "view",
      "type": "function"
    },
    {
      "inputs": [],
      "name": "getFacade",
      "outputs": [
        {
          "internalType": "address",
          "name": "",
          "type": "address"
        }
      ],
      "stateMutability": "view",
      "type": "function"
    },
    {
      "inputs": [
        {
          "internalType": "address",
          "name": "founder",
          "type": "address"
        },
        {
          "internalType": "enum ServiceType",
          "name": "serviceType",
          "type": "uint8"
        }
      ],
      "name": "getFounderService",
      "outputs": [
        {
          "internalType": "address",
          "name": "",
          "type": "address"
        }
      ],
      "stateMutability": "view",
      "type": "function"
    },
    {
      "inputs": [],
      "name": "getImplementation",
      "outputs": [
        {
          "internalType": "address",
          "name": "",
          "type": "address"
        }
      ],
      "stateMutability": "view",
      "type": "function"
    },
    {
      "inputs": [
        {
          "internalType": "bytes4",
          "name": "selector",
          "type": "bytes4"
        }
      ],
      "name": "getImplementation",
      "outputs": [
        {
          "internalType": "address",
          "name": "",
          "type": "address"
        }
      ],
      "stateMutability": "view",
      "type": "function"
    },
    {
      "inputs": [],
      "name": "getInitializeSelectors",
      "outputs": [
        {
          "internalType": "bytes4[]",
          "name": "selectors",
          "type": "bytes4[]"
        }
      ],
      "stateMutability": "view",
      "type": "function"
    },
    {
      "inputs": [
        {
          "internalType": "address",
          "name": "letsBeacon",
          "type": "address"
        }
      ],
      "name": "getLetsSaleBeacon",
      "outputs": [
        {
          "internalType": "address",
          "name": "",
          "type": "address"
        }
      ],
      "stateMutability": "view",
      "type": "function"
    },
    {
      "inputs": [],
      "name": "getOwnableSelectors",
      "outputs": [
        {
          "internalType": "bytes4[]",
          "name": "selectors",
          "type": "bytes4[]"
        }
      ],
      "stateMutability": "view",
      "type": "function"
    },
    {
      "inputs": [
        {
          "internalType": "bytes32",
          "name": "role",
          "type": "bytes32"
        }
      ],
      "name": "getRoleAdmin",
      "outputs": [
        {
          "internalType": "bytes32",
          "name": "",
          "type": "bytes32"
        }
      ],
      "stateMutability": "view",
      "type": "function"
    },
    {
      "inputs": [
        {
          "internalType": "address",
          "name": "beacon",
          "type": "address"
        }
      ],
      "name": "getSCRBeacon",
      "outputs": [
        {
          "components": [
            {
              "internalType": "string",
              "name": "name",
              "type": "string"
            },
            {
              "internalType": "address",
              "name": "implementation",
              "type": "address"
            },
            {
              "internalType": "address",
              "name": "facade",
              "type": "address"
            },
            {
              "internalType": "bool",
              "name": "isOnline",
              "type": "bool"
            },
            {
              "internalType": "uint256",
              "name": "proxyCount",
              "type": "uint256"
            }
          ],
          "internalType": "struct IBeaconUpgradeableBaseStructs.Beacon",
          "name": "",
          "type": "tuple"
        }
      ],
      "stateMutability": "view",
      "type": "function"
    },
    {
      "inputs": [
        {
          "internalType": "address",
          "name": "implementation",
          "type": "address"
        }
      ],
      "name": "getSCRBeaconImplementation",
      "outputs": [
        {
          "internalType": "address",
          "name": "beacon",
          "type": "address"
        }
      ],
      "stateMutability": "view",
      "type": "function"
    },
    {
      "inputs": [
        {
          "internalType": "address",
          "name": "proxy",
          "type": "address"
        }
      ],
      "name": "getSCRProxy",
      "outputs": [
        {
          "internalType": "address",
          "name": "",
          "type": "address"
        }
      ],
      "stateMutability": "view",
      "type": "function"
    },
    {
      "inputs": [],
      "name": "getSCRSelectors",
      "outputs": [
        {
          "internalType": "bytes4[]",
          "name": "selectors",
          "type": "bytes4[]"
        }
      ],
      "stateMutability": "view",
      "type": "function"
    },
    {
      "inputs": [
        {
          "internalType": "address",
          "name": "beacon",
          "type": "address"
        }
      ],
      "name": "getServiceFactoryBeacon",
      "outputs": [
        {
          "components": [
            {
              "internalType": "string",
              "name": "name",
              "type": "string"
            },
            {
              "internalType": "address",
              "name": "implementation",
              "type": "address"
            },
            {
              "internalType": "address",
              "name": "facade",
              "type": "address"
            },
            {
              "internalType": "bool",
              "name": "isOnline",
              "type": "bool"
            },
            {
              "internalType": "uint256",
              "name": "proxyCount",
              "type": "uint256"
            }
          ],
          "internalType": "struct IBeaconUpgradeableBaseStructs.Beacon",
          "name": "",
          "type": "tuple"
        }
      ],
      "stateMutability": "view",
      "type": "function"
    },
    {
      "inputs": [
        {
          "internalType": "address",
          "name": "implementation",
          "type": "address"
        }
      ],
      "name": "getServiceFactoryBeaconImplementation",
      "outputs": [
        {
          "internalType": "address",
          "name": "beacon",
          "type": "address"
        }
      ],
      "stateMutability": "view",
      "type": "function"
    },
    {
      "inputs": [
        {
          "internalType": "address",
          "name": "proxy",
          "type": "address"
        }
      ],
      "name": "getServiceFactoryProxy",
      "outputs": [
        {
          "internalType": "address",
          "name": "",
          "type": "address"
        }
      ],
      "stateMutability": "view",
      "type": "function"
    },
    {
      "inputs": [],
      "name": "getServiceFactorySelectors",
      "outputs": [
        {
          "internalType": "bytes4[]",
          "name": "selectors",
          "type": "bytes4[]"
        }
      ],
      "stateMutability": "view",
      "type": "function"
    },
    {
      "inputs": [
        {
          "internalType": "address",
          "name": "beacon",
          "type": "address"
        }
      ],
      "name": "getServiceType",
      "outputs": [
        {
          "internalType": "enum ServiceType",
          "name": "",
          "type": "uint8"
        }
      ],
      "stateMutability": "view",
      "type": "function"
    },
    {
      "inputs": [
        {
          "internalType": "address",
          "name": "founder",
          "type": "address"
        }
      ],
      "name": "getSmartCompanyId",
      "outputs": [
        {
          "internalType": "string",
          "name": "scid",
          "type": "string"
        }
      ],
      "stateMutability": "view",
      "type": "function"
    },
    {
      "inputs": [
        {
          "internalType": "bytes32",
          "name": "role",
          "type": "bytes32"
        },
        {
          "internalType": "address",
          "name": "account",
          "type": "address"
        }
      ],
      "name": "grantRole",
      "outputs": [],
      "stateMutability": "nonpayable",
      "type": "function"
    },
    {
      "inputs": [
        {
          "internalType": "bytes32",
          "name": "role",
          "type": "bytes32"
        },
        {
          "internalType": "address",
          "name": "account",
          "type": "address"
        }
      ],
      "name": "hasRole",
      "outputs": [
        {
          "internalType": "bool",
          "name": "",
          "type": "bool"
        }
      ],
      "stateMutability": "view",
      "type": "function"
    },
    {
      "inputs": [],
      "name": "owner",
      "outputs": [
        {
          "internalType": "address",
          "name": "",
          "type": "address"
        }
      ],
      "stateMutability": "view",
      "type": "function"
    },
    {
      "inputs": [],
      "name": "renounceOwnership",
      "outputs": [],
      "stateMutability": "nonpayable",
      "type": "function"
    },
    {
      "inputs": [
        {
          "internalType": "bytes32",
          "name": "role",
          "type": "bytes32"
        },
        {
          "internalType": "address",
          "name": "callerConfirmation",
          "type": "address"
        }
      ],
      "name": "renounceRole",
      "outputs": [],
      "stateMutability": "nonpayable",
      "type": "function"
    },
    {
      "inputs": [
        {
          "internalType": "bytes32",
          "name": "role",
          "type": "bytes32"
        },
        {
          "internalType": "address",
          "name": "account",
          "type": "address"
        }
      ],
      "name": "revokeRole",
      "outputs": [],
      "stateMutability": "nonpayable",
      "type": "function"
    },
    {
      "inputs": [
        {
          "internalType": "address",
          "name": "defaultAdmin",
          "type": "address"
        }
      ],
      "name": "scrInitialize",
      "outputs": [],
      "stateMutability": "nonpayable",
      "type": "function"
    },
    {
      "inputs": [
        {
          "internalType": "bytes32",
          "name": "role",
          "type": "bytes32"
        },
        {
          "internalType": "bytes32",
          "name": "adminRole",
          "type": "bytes32"
        }
      ],
      "name": "setAdminRole",
      "outputs": [],
      "stateMutability": "nonpayable",
      "type": "function"
    },
    {
      "inputs": [
        {
          "internalType": "string",
          "name": "scid",
          "type": "string"
        },
        {
          "components": [
            {
              "internalType": "string",
              "name": "companyName",
              "type": "string"
            },
            {
              "internalType": "address",
              "name": "companyAddress",
              "type": "address"
            },
            {
              "internalType": "address",
              "name": "founder",
              "type": "address"
            },
            {
              "internalType": "string",
              "name": "establishmentDate",
              "type": "string"
            },
            {
              "internalType": "string",
              "name": "jurisdiction",
              "type": "string"
            },
            {
              "internalType": "string",
              "name": "entityType",
              "type": "string"
            },
            {
              "internalType": "uint256",
              "name": "createAt",
              "type": "uint256"
            },
            {
              "internalType": "uint256",
              "name": "updateAt",
              "type": "uint256"
            }
          ],
          "internalType": "struct ICompanyInfoStructs.CompanyInfo",
          "name": "companyInfo",
          "type": "tuple"
        }
      ],
      "name": "setCompanyBaseInfo",
      "outputs": [],
      "stateMutability": "nonpayable",
      "type": "function"
    },
    {
      "inputs": [
        {
          "internalType": "string",
          "name": "scid",
          "type": "string"
        },
        {
          "internalType": "string",
          "name": "companyInfoField",
          "type": "string"
        },
        {
          "internalType": "string",
          "name": "value",
          "type": "string"
        }
      ],
      "name": "setCompanyInfo",
      "outputs": [],
      "stateMutability": "nonpayable",
      "type": "function"
    },
    {
      "inputs": [
        {
          "internalType": "string",
          "name": "legalEntityCode",
          "type": "string"
        },
        {
          "internalType": "string",
          "name": "companyInfoField",
          "type": "string"
        }
      ],
      "name": "setCompanyInfoField",
      "outputs": [],
      "stateMutability": "nonpayable",
      "type": "function"
    },
    {
      "inputs": [
        {
          "internalType": "bytes4",
          "name": "selector",
          "type": "bytes4"
        },
        {
          "internalType": "address",
          "name": "implementation_",
          "type": "address"
        }
      ],
      "name": "setImplementation",
      "outputs": [],
      "stateMutability": "nonpayable",
      "type": "function"
    },
    {
      "inputs": [
        {
          "internalType": "address",
          "name": "letsBeacon",
          "type": "address"
        },
        {
          "internalType": "address",
          "name": "letsSaleBeacon",
          "type": "address"
        }
      ],
      "name": "setLetsSaleBeacon",
      "outputs": [],
      "stateMutability": "nonpayable",
      "type": "function"
    },
    {
      "inputs": [
        {
          "internalType": "address",
          "name": "scImplementation",
          "type": "address"
        },
        {
          "internalType": "address",
          "name": "scFacade",
          "type": "address"
        },
        {
          "internalType": "string",
          "name": "scName",
          "type": "string"
        }
      ],
      "name": "setSCContract",
      "outputs": [
        {
          "internalType": "address",
          "name": "beacon",
          "type": "address"
        }
      ],
      "stateMutability": "nonpayable",
      "type": "function"
    },
    {
      "inputs": [
        {
          "internalType": "address",
          "name": "implementation",
          "type": "address"
        },
        {
          "internalType": "address",
          "name": "facade",
          "type": "address"
        },
        {
          "internalType": "string",
          "name": "name",
          "type": "string"
        },
        {
          "internalType": "enum ServiceType",
          "name": "serviceType",
          "type": "uint8"
        }
      ],
      "name": "setService",
      "outputs": [
        {
          "internalType": "address",
          "name": "beacon",
          "type": "address"
        }
      ],
      "stateMutability": "nonpayable",
      "type": "function"
    },
    {
      "inputs": [
        {
          "internalType": "bytes4",
          "name": "interfaceId",
          "type": "bytes4"
        }
      ],
      "name": "supportsInterface",
      "outputs": [
        {
          "internalType": "bool",
          "name": "",
          "type": "bool"
        }
      ],
      "stateMutability": "view",
      "type": "function"
    },
    {
      "inputs": [],
      "name": "supportsInterfaces",
      "outputs": [
        {
          "internalType": "bytes4[]",
          "name": "",
          "type": "bytes4[]"
        }
      ],
      "stateMutability": "view",
      "type": "function"
    },
    {
      "inputs": [
        {
          "internalType": "address",
          "name": "newOwner",
          "type": "address"
        }
      ],
      "name": "transferOwnership",
      "outputs": [],
      "stateMutability": "nonpayable",
      "type": "function"
    },
    {
      "inputs": [
        {
          "internalType": "string",
          "name": "scid",
          "type": "string"
        },
        {
          "components": [
            {
              "internalType": "string",
              "name": "companyName",
              "type": "string"
            },
            {
              "internalType": "address",
              "name": "companyAddress",
              "type": "address"
            },
            {
              "internalType": "address",
              "name": "founder",
              "type": "address"
            },
            {
              "internalType": "string",
              "name": "establishmentDate",
              "type": "string"
            },
            {
              "internalType": "string",
              "name": "jurisdiction",
              "type": "string"
            },
            {
              "internalType": "string",
              "name": "entityType",
              "type": "string"
            },
            {
              "internalType": "uint256",
              "name": "createAt",
              "type": "uint256"
            },
            {
              "internalType": "uint256",
              "name": "updateAt",
              "type": "uint256"
            }
          ],
          "internalType": "struct ICompanyInfoStructs.CompanyInfo",
          "name": "companyInfo",
          "type": "tuple"
        }
      ],
      "name": "updateCompanyBaseInfo",
      "outputs": [],
      "stateMutability": "nonpayable",
      "type": "function"
    },
    {
      "inputs": [
        {
          "internalType": "string",
          "name": "scid",
          "type": "string"
        },
        {
          "internalType": "string",
          "name": "companyInfoField",
          "type": "string"
        },
        {
          "internalType": "string",
          "name": "value",
          "type": "string"
        }
      ],
      "name": "updateCompanyInfo",
      "outputs": [],
      "stateMutability": "nonpayable",
      "type": "function"
    },
    {
      "inputs": [
        {
          "internalType": "string",
          "name": "legalEntityCode",
          "type": "string"
        },
        {
          "internalType": "uint256",
          "name": "fieldIndex",
          "type": "uint256"
        },
        {
          "internalType": "string",
          "name": "companyInfoField",
          "type": "string"
        }
      ],
      "name": "updateCompanyInfoField",
      "outputs": [],
      "stateMutability": "nonpayable",
      "type": "function"
    },
    {
      "inputs": [
        {
          "internalType": "address",
          "name": "scBeacon",
          "type": "address"
        },
        {
          "internalType": "address",
          "name": "newSCImplementation",
          "type": "address"
        },
        {
          "internalType": "address",
          "name": "newSCFacade",
          "type": "address"
        }
      ],
      "name": "updateSCContract",
      "outputs": [],
      "stateMutability": "nonpayable",
      "type": "function"
    },
    {
      "inputs": [
        {
          "internalType": "address",
          "name": "beacon",
          "type": "address"
        },
        {
          "internalType": "string",
          "name": "name",
          "type": "string"
        }
      ],
      "name": "updateSCRBeaconName",
      "outputs": [],
      "stateMutability": "nonpayable",
      "type": "function"
    },
    {
      "inputs": [
        {
          "internalType": "address",
          "name": "beacon",
          "type": "address"
        },
        {
          "internalType": "string",
          "name": "name",
          "type": "string"
        }
      ],
      "name": "updateServiceFactoryBeaconName",
      "outputs": [],
      "stateMutability": "nonpayable",
      "type": "function"
    },
    {
      "inputs": [
        {
          "internalType": "address",
          "name": "founder",
          "type": "address"
        },
        {
          "internalType": "string",
          "name": "scid",
          "type": "string"
        }
      ],
      "name": "updateSmartCompanyId",
      "outputs": [],
      "stateMutability": "nonpayable",
      "type": "function"
    },
    {
      "inputs": [
        {
          "internalType": "address",
          "name": "newFacade",
          "type": "address"
        }
      ],
      "name": "upgradeFacade",
      "outputs": [],
      "stateMutability": "nonpayable",
      "type": "function"
    },
    {
      "inputs": [
        {
          "internalType": "address",
          "name": "beacon",
          "type": "address"
        },
        {
          "internalType": "address",
          "name": "newImplementation",
          "type": "address"
        },
        {
          "internalType": "address",
          "name": "newFacade",
          "type": "address"
        }
      ],
      "name": "upgradeSCRBeacon",
      "outputs": [],
      "stateMutability": "nonpayable",
      "type": "function"
    },
    {
      "inputs": [
        {
          "internalType": "address",
          "name": "beacon",
          "type": "address"
        },
        {
          "internalType": "address",
          "name": "newImplementation",
          "type": "address"
        },
        {
          "internalType": "address",
          "name": "newFacade",
          "type": "address"
        }
      ],
      "name": "upgradeServiceFactoryBeacon",
      "outputs": [],
      "stateMutability": "nonpayable",
      "type": "function"
    }
  ],
  "bytecode": "0x60808060405234601557611535908161001b8239f35b600080fdfe6080604052600436101561001257600080fd5b60003560e01c80624c53b814610c1657806301ffc9a71461041357806302043d2a14610874578063031df8e114610be65780630815f6fd14610bcd57806309da2fcb14610b7c5780630e8ac81514610b4c5780630fb95533146104605780631793f44c146106615780631ab5bd9914610ac957806323333f1b1461045657806323c45f6714610a99578063248a9ca314610a7d5780632be6b7cd1461035f5780632d6b3a6b146104605780632f2ff15d1461045b57806333a36ef9146109725780633606e9381461093957806336568abe1461045b5780633879257a1461087957806338878ba8146103645780633c1fecca14610913578063455738501461087e578063496326f914610465578063518fd6c1146104515780635aadb3021461066f578063620ffe2614610879578063638401491461082e578063638d6e1414610874578063651dc03d1461035f5780636fe93a0514610465578063715018a6146108615780637582f05e146108335780637621b79f146106d35780637841bf7f1461045657806378af87851461082e5780637c8d3f12146107c2578063827fde8d1461035f57806386ec366f146107215780638a3ad73b146104565780638da5cb5b1461046057806391d1485414610708578063960b9f3f146106d8578063a0d208fc146106d3578063a217fddf14610460578063a5954dd714610674578063a712a1b61461066f578063a75f07d414610661578063aaf10f4214610460578063acc7a5881461063f578063b20ad26014610456578063b8740abb146105f0578063bc5a881e146105a1578063c1e6f30414610460578063c2b2980f14610547578063c3e0f7a61461046a578063c5e3cb4114610465578063d539139314610460578063d547741f1461045b578063d974bae914610456578063da35bf8314610451578063db0cf0ea14610438578063dc9cc64514610413578063dfde5e5814610400578063e54d64f914610369578063ee42414114610364578063f2fde38b1461035f5763fba8fce71461030757600080fd5b3461035a57606036600319011261035a576004356001600160401b03811161035a57610337903690600401610e2d565b50506044356001600160401b03811161035a57610358903690600401610e2d565b005b600080fd5b6111ac565b611285565b3461035a57602036600319011261035a576004356001600160401b03811161035a57610399903690600401610e2d565b50506040518060208101602082526060518091526040820160408260051b840101916080916000905b8282106103d157505050500390f35b919360019193955060206103f08192603f198a82030186528851611224565b96019201920185949391926103c2565b3461035a57604036600319011261035a57005b3461035a57602036600319011261035a5761042c610e16565b50602060405160008152f35b3461035a57602036600319011261035a5761042c610f1d565b6112e0565b610438565b6111c5565b6110c4565b6112b5565b3461035a57602036600319011261035a576004356001600160401b03811161035a5761016090600319903603011261035a5760405160608101906000815260606020820152606051809252608081019160809060005b8181106105285750505080820360408201526020606051928381520160806000935b8085106104ef5783830384f35b9091825190600782101561051257602081600193829352019301940193906104e2565b634e487b7160e01b600052602160045260246000fd5b82516001600160a01b03168552602094850194909201916001016104c0565b3461035a57608036600319011261035a57610560610f1d565b50610569610f07565b506044356001600160401b03811161035a57610589903690600401610e2d565b50506007606435101561035a57602060405160008152f35b3461035a57606036600319011261035a576105ba610f1d565b506105c3610f07565b506044356001600160401b03811161035a576105e3903690600401610e2d565b5050602060405160008152f35b3461035a57600036600319011261035a5761063b604061060f81610e90565b6001815290601f19810136602084013763827fde8d60e01b6106308361148e565b525191829182610dd2565b0390f35b3461035a57604036600319011261035a57610658610f1d565b50610358610f07565b3461035a57610358366110e0565b611333565b3461035a57600036600319011261035a57604051806020810160208252606051809152604082019060809060005b8181106106b0575050500390f35b82516001600160e01b0319168452859450602093840193909201916001016106a2565b611457565b3461035a57602036600319011261035a576004356001600160401b03811161035a57610358903690600401610e2d565b3461035a57604036600319011261035a5761042c610f07565b3461035a57604036600319011261035a576004356001600160401b03811161035a57610751903690600401611147565b506024356001600160401b03811161035a573660238201121561035a578060040135906024602061078961078485611130565b610e90565b848152019260051b8201019036821161035a57602401915b8183106107aa57005b602080916107b785610f49565b8152019201916107a1565b3461035a57600036600319011261035a5761063b6107e06080610e90565b6003815260603660208301376338a80c5360e11b6107fd8261148e565b5263f2fde38b60e01b61080f8261149b565b52638da5cb5b60e01b610821826114ab565b5260405191829182610dd2565b6113af565b3461035a57602036600319011261035a5761084c610f1d565b50604051602081528061063b60208201611201565b3461035a57600036600319011261035a57005b610f5d565b61123d565b3461035a57600036600319011261035a5761063b61089c60e0610e90565b6006815260c03660208301376361f07bd360e11b6108b98261148e565b52635e2d440f60e11b6108cb8261149b565b5263496326f960e01b6108dd826114ab565b526306c0dd2760e31b6108ef826114bb565b52632be6b7cd60e01b610901826114cb565b52633ac1782f60e11b610821826114db565b3461035a57610921366110e0565b50505050604051602081528061063b60208201611201565b3461035a57604036600319011261035a57610952610f1d565b506024356001600160401b03811161035a57610358903690600401610e2d565b3461035a57602036600319011261035a576004356001600160401b03811161035a576109a2903690600401610eb5565b5061010060206109b0610e5a565b606081528181019060008252610a6b604082019260008452610a58606084019160608352610a4560808601916060835260a08701946060865260c088019860008a52610a1960e08a019960008b526040519d8d8f9e928f938452519201526101208d0190611224565b92516001600160a01b0390811660408d015290511660608b015251898203601f190160808b0152611224565b9051878203601f190160a0890152611224565b9051858203601f190160c0870152611224565b915160e0840152516101008301520390f35b3461035a57602036600319011261035a57602060405160008152f35b3461035a57604036600319011261035a576004356001600160401b03811161035a57610658903690600401611147565b3461035a57600036600319011261035a5761063b610ae760c0610e90565b6005815260a036602083013763c2b2980f60e01b610b048261148e565b52631598f4b160e31b610b168261149b565b52636d86787560e11b610b28826114ab565b52630e8ac81560e01b610b3a826114bb565b52637841bf7f60e01b610821826114cb565b3461035a57604036600319011261035a57610b65610f1d565b506007602435101561035a57602060405160008152f35b3461035a57604036600319011261035a576004356001600160401b03811161035a57610bac903690600401610e2d565b50506024356001600160401b03811161035a57610358903690600401611094565b3461035a57604036600319011261035a57610658610e16565b3461035a57604036600319011261035a576004356001600160401b03811161035a57610358903690600401610e2d565b3461035a57600036600319011261035a57610160610c3381610e90565b600a815290601f1901366020830137632f2ff15d60e01b610c538261148e565b52630710f17560e31b610c658261149b565b5263d547741f60e01b610c77826114ab565b5263ee42414160e01b610c89826114bb565b52631b2b455f60e11b610c9b826114cb565b52631bfbcbcb60e31b610cad826114db565b52805160061015610dbc5763a217fddf60e01b60e0820152805160071015610dbc576301ffc9a760e01b610100820152805160081015610dbc5763248a9ca360e01b610120820152805160091015610dbc57632474521560e21b610140820152805160028101808211610d7d57610d2661078482611130565b90808252610d36601f1991611130565b0136602083013760005b828110610d935750633079bcc160e21b610d5a83836114eb565b5260018201809211610d7d5761063b9163d539139360e01b9061082190836114eb565b634e487b7160e01b600052601160045260246000fd5b6001906001600160e01b0319610da982876114eb565b5116610db582856114eb565b5201610d40565b634e487b7160e01b600052603260045260246000fd5b602060408183019282815284518094520192019060005b818110610df65750505090565b82516001600160e01b031916845260209384019390920191600101610de9565b600435906001600160e01b03198216820361035a57565b9181601f8401121561035a578235916001600160401b03831161035a576020838186019501011161035a57565b6040519061010082016001600160401b03811183821017610e7a57604052565b634e487b7160e01b600052604160045260246000fd5b6040519190601f01601f191682016001600160401b03811183821017610e7a57604052565b81601f8201121561035a578035906001600160401b038211610e7a57610ee4601f8301601f1916602001610e90565b928284526020838301011161035a57816000926020809301838601378301015290565b602435906001600160a01b038216820361035a57565b600435906001600160a01b038216820361035a57565b604435906001600160a01b038216820361035a57565b35906001600160a01b038216820361035a57565b3461035a5760006040366003190112611091576004356001600160401b03811161108f57610f8f903690600401610e2d565b50506024356001600160401b03811161035a57610100600319823603011261035a57610fb9610e5a565b9060048101356001600160401b03811161035a57610fdd9060043691840101610eb5565b8252610feb60248201610f49565b6020830152610ffc60448201610f49565b604083015260648101356001600160401b03811161035a576110249060043691840101610eb5565b606083015260848101356001600160401b03811161035a5761104c9060043691840101610eb5565b608083015260a4810135906001600160401b03821161035a5761107760e49260043691840101610eb5565b60a084015260c481013560c0840152013560e0820152005b505b80fd5b9181601f8401121561035a578235916001600160401b03831161035a576020808501948460051b01011161035a57565b3461035a57600036600319011261035a57602060405160008152f35b604060031982011261035a576004356001600160401b03811161035a578161110a91600401610e2d565b90929091602435906001600160401b03821161035a5761112c91600401610e2d565b9091565b6001600160401b038111610e7a5760051b60200190565b9080601f8301121561035a5781359061116261078483611130565b9260208085858152019360051b82010191821161035a57602001915b81831061118b5750505090565b82356001600160e01b03198116810361035a5781526020928301920161117e565b3461035a57602036600319011261035a57610358610f1d565b3461035a57604036600319011261035a57610358610f07565b60005b8381106111f15750506000910152565b81810151838201526020016111e1565b6020906060518082526112188184840160806111de565b601f01601f1916010190565b90602091611218815180928185528580860191016111de565b3461035a576000604036600319011261109157600435906001600160a01b03821682036110915750506024356001600160401b03811161035a57610358903690600401610eb5565b3461035a57604036600319011261035a576024356001600160401b03811161035a57610358903690600401611094565b3461035a57606036600319011261035a576112ce610f1d565b506112d7610f07565b50610358610f33565b3461035a5760006060366003190112611091576004356001600160401b03811161108f57611312903690600401610e2d565b50506024356001600160401b03811161035a57610337903690600401610e2d565b3461035a576000608036600319011261109157600435906001600160a01b03821682036110915750506024356001600160a01b038116810361035a57506044356001600160401b03811161035a5761138f903690600401610eb5565b506064356001600160a01b038116810361035a5750602060405160008152f35b3461035a57602036600319011261035a576113c8610f1d565b5060405160a08101906001600160401b03821181831017610e7a5761142b9160405260608152602081016000815260408201600081526060830160008152608084019160008352604051958695602087525160a0602088015260c0870190611224565b93516001600160a01b039081166040870152905116606085015251151560808401525160a08301520390f35b3461035a576000604036600319011261109157600435906001600160a01b0382168203611091575050602435801515810361035a57005b805115610dbc5760200190565b805160011015610dbc5760400190565b805160021015610dbc5760600190565b805160031015610dbc5760800190565b805160041015610dbc5760a00190565b805160051015610dbc5760c00190565b8051821015610dbc5760209160051b01019056fea264697066735822122089195386cd716e44e1665f8406318c1ace74295dbfb0d1ed5bec6714e0d1404564736f6c634300081c0033",
  "linkReferences": {},
  "deployedLinkReferences": {}
}