{
  "_format": "hh-sol-artifact-1",
  "contractName": "ServiceFactory",
  "sourceName": "contracts/Factory/ServiceFactory.sol",
  "abi": [
    {
      "inputs": [],
      "name": "AccessControlBadConfirmation",
      "type": "error"
    },
    {
      "inputs": [
        {
          "internalType": "address",
          "name": "account",
          "type": "address"
        },
        {
          "internalType": "bytes32",
          "name": "neededRole",
          "type": "bytes32"
        }
      ],
      "name": "AccessControlUnauthorizedAccount",
      "type": "error"
    },
    {
      "inputs": [
        {
          "internalType": "address",
          "name": "target",
          "type": "address"
        }
      ],
      "name": "AddressEmptyCode",
      "type": "error"
    },
    {
      "inputs": [
        {
          "internalType": "address",
          "name": "_implementation",
          "type": "address"
        }
      ],
      "name": "BeaconAlreadyOnlineOrOffline",
      "type": "error"
    },
    {
      "inputs": [
        {
          "internalType": "address",
          "name": "account_",
          "type": "address"
        },
        {
          "internalType": "address",
          "name": "company_",
          "type": "address"
        },
        {
          "internalType": "address",
          "name": "serviceImplementation_",
          "type": "address"
        }
      ],
      "name": "DoNotActivateService",
      "type": "error"
    },
    {
      "inputs": [
        {
          "internalType": "address",
          "name": "_service",
          "type": "address"
        }
      ],
      "name": "DoNotSetService",
      "type": "error"
    },
    {
      "inputs": [
        {
          "internalType": "address",
          "name": "implementation",
          "type": "address"
        }
      ],
      "name": "ERC1967InvalidImplementation",
      "type": "error"
    },
    {
      "inputs": [],
      "name": "ERC1967NonPayable",
      "type": "error"
    },
    {
      "inputs": [],
      "name": "FailedCall",
      "type": "error"
    },
    {
      "inputs": [
        {
          "internalType": "address",
          "name": "_account",
          "type": "address"
        }
      ],
      "name": "InvalidAddress",
      "type": "error"
    },
    {
      "inputs": [
        {
          "internalType": "address",
          "name": "_implementation",
          "type": "address"
        }
      ],
      "name": "InvalidImplementation",
      "type": "error"
    },
    {
      "inputs": [],
      "name": "InvalidInitialization",
      "type": "error"
    },
    {
      "inputs": [
        {
          "internalType": "string",
          "name": "name",
          "type": "string"
        }
      ],
      "name": "InvalidName",
      "type": "error"
    },
    {
      "inputs": [],
      "name": "NotInitializing",
      "type": "error"
    },
    {
      "inputs": [
        {
          "internalType": "address",
          "name": "caller",
          "type": "address"
        }
      ],
      "name": "OnlySTR",
      "type": "error"
    },
    {
      "inputs": [],
      "name": "UUPSUnauthorizedCallContext",
      "type": "error"
    },
    {
      "inputs": [
        {
          "internalType": "bytes32",
          "name": "slot",
          "type": "bytes32"
        }
      ],
      "name": "UUPSUnsupportedProxiableUUID",
      "type": "error"
    },
    {
      "anonymous": false,
      "inputs": [
        {
          "indexed": true,
          "internalType": "address",
          "name": "serviceImplementation",
          "type": "address"
        },
        {
          "indexed": true,
          "internalType": "address",
          "name": "service",
          "type": "address"
        }
      ],
      "name": "ActivateService",
      "type": "event"
    },
    {
      "anonymous": false,
      "inputs": [
        {
          "indexed": true,
          "internalType": "address",
          "name": "beaconAddress",
          "type": "address"
        },
        {
          "indexed": false,
          "internalType": "string",
          "name": "name",
          "type": "string"
        }
      ],
      "name": "BeaconNameUpdated",
      "type": "event"
    },
    {
      "anonymous": false,
      "inputs": [
        {
          "indexed": true,
          "internalType": "address",
          "name": "beaconAddress",
          "type": "address"
        }
      ],
      "name": "BeaconOffline",
      "type": "event"
    },
    {
      "anonymous": false,
      "inputs": [
        {
          "indexed": true,
          "internalType": "address",
          "name": "beaconAddress",
          "type": "address"
        }
      ],
      "name": "BeaconOnline",
      "type": "event"
    },
    {
      "anonymous": false,
      "inputs": [
        {
          "indexed": true,
          "internalType": "address",
          "name": "admin_",
          "type": "address"
        },
        {
          "indexed": true,
          "internalType": "address",
          "name": "service",
          "type": "address"
        },
        {
          "indexed": true,
          "internalType": "string",
          "name": "serviceName",
          "type": "string"
        }
      ],
      "name": "CreateService",
      "type": "event"
    },
    {
      "anonymous": false,
      "inputs": [
        {
          "indexed": false,
          "internalType": "uint64",
          "name": "version",
          "type": "uint64"
        }
      ],
      "name": "Initialized",
      "type": "event"
    },
    {
      "anonymous": false,
      "inputs": [
        {
          "indexed": true,
          "internalType": "address",
          "name": "_service",
          "type": "address"
        },
        {
          "indexed": true,
          "internalType": "string",
          "name": "_serviceName",
          "type": "string"
        },
        {
          "indexed": false,
          "internalType": "enum IServiceFactory.ServiceType",
          "name": "_serviceType",
          "type": "uint8"
        }
      ],
      "name": "NewService",
      "type": "event"
    },
    {
      "anonymous": false,
      "inputs": [
        {
          "indexed": true,
          "internalType": "address",
          "name": "proxyAddress",
          "type": "address"
        },
        {
          "indexed": false,
          "internalType": "string",
          "name": "name",
          "type": "string"
        }
      ],
      "name": "ProxyAdded",
      "type": "event"
    },
    {
      "anonymous": false,
      "inputs": [
        {
          "indexed": true,
          "internalType": "address",
          "name": "proxyAddress",
          "type": "address"
        },
        {
          "indexed": false,
          "internalType": "string",
          "name": "name",
          "type": "string"
        }
      ],
      "name": "ProxyCreated",
      "type": "event"
    },
    {
      "anonymous": false,
      "inputs": [
        {
          "indexed": true,
          "internalType": "bytes32",
          "name": "role",
          "type": "bytes32"
        },
        {
          "indexed": true,
          "internalType": "bytes32",
          "name": "previousAdminRole",
          "type": "bytes32"
        },
        {
          "indexed": true,
          "internalType": "bytes32",
          "name": "newAdminRole",
          "type": "bytes32"
        }
      ],
      "name": "RoleAdminChanged",
      "type": "event"
    },
    {
      "anonymous": false,
      "inputs": [
        {
          "indexed": true,
          "internalType": "bytes32",
          "name": "role",
          "type": "bytes32"
        },
        {
          "indexed": true,
          "internalType": "address",
          "name": "account",
          "type": "address"
        },
        {
          "indexed": true,
          "internalType": "address",
          "name": "sender",
          "type": "address"
        }
      ],
      "name": "RoleGranted",
      "type": "event"
    },
    {
      "anonymous": false,
      "inputs": [
        {
          "indexed": true,
          "internalType": "bytes32",
          "name": "role",
          "type": "bytes32"
        },
        {
          "indexed": true,
          "internalType": "address",
          "name": "account",
          "type": "address"
        },
        {
          "indexed": true,
          "internalType": "address",
          "name": "sender",
          "type": "address"
        }
      ],
      "name": "RoleRevoked",
      "type": "event"
    },
    {
      "anonymous": false,
      "inputs": [
        {
          "indexed": true,
          "internalType": "address",
          "name": "_service",
          "type": "address"
        },
        {
          "indexed": true,
          "internalType": "string",
          "name": "_serviceName",
          "type": "string"
        },
        {
          "indexed": false,
          "internalType": "enum IServiceFactory.ServiceType",
          "name": "_serviceType",
          "type": "uint8"
        },
        {
          "indexed": false,
          "internalType": "bool",
          "name": "_isOnline",
          "type": "bool"
        }
      ],
      "name": "UpdateService",
      "type": "event"
    },
    {
      "anonymous": false,
      "inputs": [
        {
          "indexed": true,
          "internalType": "address",
          "name": "implementation",
          "type": "address"
        }
      ],
      "name": "Upgraded",
      "type": "event"
    },
    {
      "inputs": [],
      "name": "DEFAULT_ADMIN_ROLE",
      "outputs": [
        {
          "internalType": "bytes32",
          "name": "",
          "type": "bytes32"
        }
      ],
      "stateMutability": "view",
      "type": "function"
    },
    {
      "inputs": [],
      "name": "UPGRADE_INTERFACE_VERSION",
      "outputs": [
        {
          "internalType": "string",
          "name": "",
          "type": "string"
        }
      ],
      "stateMutability": "view",
      "type": "function"
    },
    {
      "inputs": [
        {
          "internalType": "address",
          "name": "founder_",
          "type": "address"
        },
        {
          "internalType": "address",
          "name": "_company",
          "type": "address"
        },
        {
          "internalType": "address",
          "name": "_serviceImplementation",
          "type": "address"
        },
        {
          "internalType": "bytes",
          "name": "_extraParams",
          "type": "bytes"
        },
        {
          "internalType": "enum IServiceFactory.ServiceType",
          "name": "_serviceType",
          "type": "uint8"
        }
      ],
      "name": "activate",
      "outputs": [
        {
          "internalType": "address",
          "name": "_service",
          "type": "address"
        }
      ],
      "stateMutability": "nonpayable",
      "type": "function"
    },
    {
      "inputs": [
        {
          "internalType": "address",
          "name": "",
          "type": "address"
        }
      ],
      "name": "beacons",
      "outputs": [
        {
          "internalType": "string",
          "name": "name",
          "type": "string"
        },
        {
          "internalType": "address",
          "name": "beacon",
          "type": "address"
        },
        {
          "internalType": "bool",
          "name": "isOnline",
          "type": "bool"
        },
        {
          "internalType": "uint256",
          "name": "proxyCount",
          "type": "uint256"
        }
      ],
      "stateMutability": "view",
      "type": "function"
    },
    {
      "inputs": [
        {
          "internalType": "address",
          "name": "_serviceImplementation",
          "type": "address"
        },
        {
          "internalType": "bool",
          "name": "_isOnline",
          "type": "bool"
        }
      ],
      "name": "changeServiceOnline",
      "outputs": [],
      "stateMutability": "nonpayable",
      "type": "function"
    },
    {
      "inputs": [
        {
          "internalType": "address",
          "name": "founder_",
          "type": "address"
        },
        {
          "internalType": "enum IServiceFactory.ServiceType",
          "name": "serviceType_",
          "type": "uint8"
        }
      ],
      "name": "getFounderServices",
      "outputs": [
        {
          "internalType": "address",
          "name": "",
          "type": "address"
        }
      ],
      "stateMutability": "view",
      "type": "function"
    },
    {
      "inputs": [
        {
          "internalType": "bytes32",
          "name": "role",
          "type": "bytes32"
        }
      ],
      "name": "getRoleAdmin",
      "outputs": [
        {
          "internalType": "bytes32",
          "name": "",
          "type": "bytes32"
        }
      ],
      "stateMutability": "view",
      "type": "function"
    },
    {
      "inputs": [
        {
          "internalType": "bytes32",
          "name": "role",
          "type": "bytes32"
        },
        {
          "internalType": "uint256",
          "name": "index",
          "type": "uint256"
        }
      ],
      "name": "getRoleMember",
      "outputs": [
        {
          "internalType": "address",
          "name": "",
          "type": "address"
        }
      ],
      "stateMutability": "view",
      "type": "function"
    },
    {
      "inputs": [
        {
          "internalType": "bytes32",
          "name": "role",
          "type": "bytes32"
        }
      ],
      "name": "getRoleMemberCount",
      "outputs": [
        {
          "internalType": "uint256",
          "name": "",
          "type": "uint256"
        }
      ],
      "stateMutability": "view",
      "type": "function"
    },
    {
      "inputs": [
        {
          "internalType": "bytes32",
          "name": "role",
          "type": "bytes32"
        }
      ],
      "name": "getRoleMembers",
      "outputs": [
        {
          "internalType": "address[]",
          "name": "",
          "type": "address[]"
        }
      ],
      "stateMutability": "view",
      "type": "function"
    },
    {
      "inputs": [
        {
          "internalType": "address",
          "name": "_serviceImplementation",
          "type": "address"
        }
      ],
      "name": "getService",
      "outputs": [
        {
          "internalType": "string",
          "name": "_serviceName",
          "type": "string"
        },
        {
          "internalType": "address",
          "name": "_service",
          "type": "address"
        },
        {
          "internalType": "bool",
          "name": "_isOnline",
          "type": "bool"
        },
        {
          "internalType": "uint256",
          "name": "_proxyCount",
          "type": "uint256"
        },
        {
          "internalType": "uint256",
          "name": "_serviceType",
          "type": "uint256"
        }
      ],
      "stateMutability": "view",
      "type": "function"
    },
    {
      "inputs": [
        {
          "internalType": "bytes32",
          "name": "role",
          "type": "bytes32"
        },
        {
          "internalType": "address",
          "name": "account",
          "type": "address"
        }
      ],
      "name": "grantRole",
      "outputs": [],
      "stateMutability": "nonpayable",
      "type": "function"
    },
    {
      "inputs": [
        {
          "internalType": "bytes32",
          "name": "role",
          "type": "bytes32"
        },
        {
          "internalType": "address",
          "name": "account",
          "type": "address"
        }
      ],
      "name": "hasRole",
      "outputs": [
        {
          "internalType": "bool",
          "name": "",
          "type": "bool"
        }
      ],
      "stateMutability": "view",
      "type": "function"
    },
    {
      "inputs": [],
      "name": "initialize",
      "outputs": [],
      "stateMutability": "nonpayable",
      "type": "function"
    },
    {
      "inputs": [],
      "name": "proxiableUUID",
      "outputs": [
        {
          "internalType": "bytes32",
          "name": "",
          "type": "bytes32"
        }
      ],
      "stateMutability": "view",
      "type": "function"
    },
    {
      "inputs": [
        {
          "internalType": "bytes32",
          "name": "role",
          "type": "bytes32"
        },
        {
          "internalType": "address",
          "name": "callerConfirmation",
          "type": "address"
        }
      ],
      "name": "renounceRole",
      "outputs": [],
      "stateMutability": "nonpayable",
      "type": "function"
    },
    {
      "inputs": [
        {
          "internalType": "bytes32",
          "name": "role",
          "type": "bytes32"
        },
        {
          "internalType": "address",
          "name": "account",
          "type": "address"
        }
      ],
      "name": "revokeRole",
      "outputs": [],
      "stateMutability": "nonpayable",
      "type": "function"
    },
    {
      "inputs": [
        {
          "internalType": "address",
          "name": "scr_",
          "type": "address"
        }
      ],
      "name": "setSCR",
      "outputs": [],
      "stateMutability": "nonpayable",
      "type": "function"
    },
    {
      "inputs": [
        {
          "internalType": "address",
          "name": "_serviceImplementation",
          "type": "address"
        },
        {
          "internalType": "string",
          "name": "_serviceName",
          "type": "string"
        },
        {
          "internalType": "enum IServiceFactory.ServiceType",
          "name": "_serviceType",
          "type": "uint8"
        }
      ],
      "name": "setService",
      "outputs": [],
      "stateMutability": "nonpayable",
      "type": "function"
    },
    {
      "inputs": [
        {
          "internalType": "bytes4",
          "name": "interfaceId",
          "type": "bytes4"
        }
      ],
      "name": "supportsInterface",
      "outputs": [
        {
          "internalType": "bool",
          "name": "",
          "type": "bool"
        }
      ],
      "stateMutability": "view",
      "type": "function"
    },
    {
      "inputs": [
        {
          "internalType": "address",
          "name": "_serviceImplementation",
          "type": "address"
        },
        {
          "internalType": "string",
          "name": "_serviceName",
          "type": "string"
        },
        {
          "internalType": "enum IServiceFactory.ServiceType",
          "name": "_serviceType",
          "type": "uint8"
        }
      ],
      "name": "updateServiceName",
      "outputs": [],
      "stateMutability": "nonpayable",
      "type": "function"
    },
    {
      "inputs": [
        {
          "internalType": "address",
          "name": "newImplementation",
          "type": "address"
        },
        {
          "internalType": "bytes",
          "name": "data",
          "type": "bytes"
        }
      ],
      "name": "upgradeToAndCall",
      "outputs": [],
      "stateMutability": "payable",
      "type": "function"
    }
  ],
  "bytecode": "0x60a080604052346100ea577ff0c57e16840df040f15088dc2f81fe391c3923bec73e23a9662efc9c229c6a005460ff8160401c166100d9576002600160401b03196001600160401b03821601610073575b3060805260405161266b90816100f082396080518181816109f40152610a890152f35b6001600160401b0319166001600160401b039081177ff0c57e16840df040f15088dc2f81fe391c3923bec73e23a9662efc9c229c6a005581527fc7f505b2f371ae2175ee4913f4499e1f2633a7b5936321eed1cdaeb6115181d290602090a13880610050565b63f92ee8a960e01b60005260046000fd5b600080fdfe608080604052600436101561001357600080fd5b60003560e01c90816301ffc9a7146114775750806315a52302146113a25780631d61814e1461134b578063248a9ca3146113255780632b23d2af1461115d5780632f2ff15d1461112c57806336568abe146110e65780633a5b89f014610dd05780633b119e2114610c4f5780634f1ef28614610a4b57806352d1902d146109e15780638129fc1c146107515780639010d07c146106fd57806391d14854146106a35780639cad172a14610612578063a217fddf146105f6578063a3246ad314610534578063ad3cb1cc146104e9578063c3c2393814610494578063c3cbf96914610187578063ca15c8731461014e5763d547741f1461011157600080fd5b34610149576040366003190112610149576101476004356101306114fa565b9061014261013d82611746565b61180b565b61189d565b005b600080fd5b34610149576020366003190112610149576004356000526000805160206125968339815191526020526020604060002054604051908152f35b346101495760a0366003190112610149576101a06114e4565b6101a86114fa565b6044356001600160a01b03811691908290036101495760643567ffffffffffffffff8111610149576101de903690600401611653565b90608435936005851015610149576002546001600160a01b0316330361047f576102a8908460005260006020526102b6604060002091604051610220816115c2565b6040516102388161023181886116ab565b03826115de565b81526060600260018601549560ff602085019760018060a01b038116895260a01c1615156040850152015491015260405193849163cf7a1d7760e01b602084015260018060a01b03169586602484015260018060a01b031696876044840152606060648401526084830190611510565b03601f1981018452836115de565b51604051916104ad808401926001600160a01b0316919067ffffffffffffffff8411858510176104695784936102fd93604092611d0f873981528160208201520190611510565b03906000f0801561045d576001600160a01b03169182156104405750826000526000602052600260406000200193845491600019831461042a5760209560016103e2940190558360005260018652604060002085600052600087526002604060002001546000528652604060002060018060a01b0385166bffffffffffffffffffffffff60a01b8254161790558460005260008652837fe35b82bca01e71e894f240151ca3eb50c7efe37e4d5cce6d7ca0019d4b678e216103ce60406000206040519182918b83528b8301906116ab565b0390a260005260058552604060002061172e565b80546001600160a01b0319166001600160a01b0383161790556040519181907f6e4794bbcdcbb6f8f64ec9a4edaa9ad91971f595599912c29ea5a393c034a74f600080a38152f35b634e487b7160e01b600052601160045260246000fd5b839063071659f360e51b6000523360045260245260445260646000fd5b6040513d6000823e3d90fd5b634e487b7160e01b600052604160045260246000fd5b6302b8f26360e51b6000523360045260246000fd5b34610149576020366003190112610149576104ad6114e4565b6104b56117b8565b6001600160a01b038116906104cc9082151561178f565b6bffffffffffffffffffffffff60a01b6002541617600255600080f35b3461014957600036600319011261014957610530604080519061050c81836115de565b60058252640352e302e360dc1b602083015251918291602083526020830190611510565b0390f35b346101495760203660031901126101495760043560005260008051602061259683398151915260205260406000206040518060208354918281520190819360005260206000209060005b8181106105e057505050816105949103826115de565b6040519182916020830190602084525180915260408301919060005b8181106105be575050500390f35b82516001600160a01b03168452859450602093840193909201916001016105b0565b825484526020909301926001928301920161057e565b3461014957600036600319011261014957602060405160008152f35b34610149576020366003190112610149576001600160a01b036106336114e4565b16600052600060205261067d60406000206040519061065d8261065681846116ab565b03836115de565b6002600182015491015460ff604051948594608086526080860190611510565b6001600160a01b038416602086015260a09390931c161515604084015260608301520390f35b34610149576040366003190112610149576106bc6114fa565b6004356000526000805160206125d683398151915260205260406000209060018060a01b0316600052602052602060ff604060002054166040519015158152f35b346101495760403660031901126101495760043560005260008051602061259683398151915260205260206107386024356040600020611b36565b905460405160039290921b1c6001600160a01b03168152f35b34610149576000366003190112610149576000805160206126168339815191525460ff8160401c16159067ffffffffffffffff8116801590816109d9575b60011490816109cf575b1590816109c6575b5061096d5767ffffffffffffffff1981166001176000805160206126168339815191525581610999575b506000805160206126168339815191525460ff8160401c16159067ffffffffffffffff811680159081610991575b6001149081610987575b15908161097e575b5061096d5767ffffffffffffffff1981166001176000805160206126168339815191525581610940575b506108e9575b6108443361193b565b6108a3575b61084f57005b60ff60401b196000805160206126168339815191525416600080516020612616833981519152557fc7f505b2f371ae2175ee4913f4499e1f2633a7b5936321eed1cdaeb6115181d2602060405160018152a1005b600080526000805160206125968339815191526020526108e3337f615f0f9e84155bea8cc509fe18befeb1baf65611e38a6ba60964480fb29dfd44611b64565b50610849565b60ff60401b196000805160206126168339815191525416600080516020612616833981519152557fc7f505b2f371ae2175ee4913f4499e1f2633a7b5936321eed1cdaeb6115181d2602060405160018152a161083b565b68ffffffffffffffffff191668010000000000000001176000805160206126168339815191525582610835565b63f92ee8a960e01b60005260046000fd5b9050158461080b565b303b159150610803565b8391506107f9565b68ffffffffffffffffff1916680100000000000000011760008051602061261683398151915255816107cb565b905015836107a1565b303b159150610799565b83915061078f565b34610149576000366003190112610149577f00000000000000000000000000000000000000000000000000000000000000006001600160a01b03163003610a3a5760206040516000805160206125b68339815191528152f35b63703e46dd60e11b60005260046000fd5b604036600319011261014957610a5f6114e4565b60243567ffffffffffffffff811161014957610a7f903690600401611653565b6001600160a01b037f000000000000000000000000000000000000000000000000000000000000000016308114908115610c2c575b50610a3a57610ac16117b8565b6040516352d1902d60e01b81526001600160a01b0383169290602081600481875afa60009181610bf8575b50610b065783634c9c8ce360e01b60005260045260246000fd5b806000805160206125b6833981519152859203610be45750813b15610bd0576000805160206125b683398151915280546001600160a01b031916821790557fbc7cd75a20ee27fd9adebab32041f755214dbc6bffa90cc0225b39da2e5c2d3b600080a2815115610bb65760008083602061014795519101845af43d15610bae573d91610b9183611600565b92610b9f60405194856115de565b83523d6000602085013e611cad565b606091611cad565b505034610bbf57005b63b398979f60e01b60005260046000fd5b634c9c8ce360e01b60005260045260246000fd5b632a87526960e21b60005260045260246000fd5b9091506020813d602011610c24575b81610c14602093836115de565b8101031261014957519085610aec565b3d9150610c07565b6000805160206125b6833981519152546001600160a01b03161415905083610ab4565b34610149576000805160206125f6833981519152610c6c36611551565b939190610c776117b8565b6001600160a01b0384169384151590610cc690610c94818461178f565b610c9f36858761161c565b9260006060604051610cb0816115c2565b81815282602082015282604082015201526118e1565b847f88a60344e42b24d91cf44b213631613b7d33652bffd66e209d48838c9dc5508b8251602084012092610d2f816020956000604051610d0689826115de565b527fc5d2460186f7233c927e7db2dcc703c0e500b653ca82273b7bfad8045d85a470141561190a565b826000526000845260406000209381604051610d4a816115c2565b610d6260405180610d5b818b6116ab565b03906115de565b600260018801549760018060a01b0389168584015260ff604084019960a01c16151589520154606082015252610da2604051928284938452830190611510565b0390a25115159181604051928392833781016000815203902093610dcb60405192839283611774565b0390a3005b3461014957610dde36611551565b92610dea9291926117b8565b6001600160a01b0381169283151591610e1890610e07818561178f565b610e1236848761161c565b936118e1565b8151602083012091610e36816020946000604051610d0688826115de565b6040516103da8082019082821067ffffffffffffffff8311176104695760409183916121bc833988815233878201520301906000f0801561045d5760018060a01b031690604051610e86816115c2565b81815284810183815260408201906001825260608301916000835289600052600088526040600020935180519067ffffffffffffffff821161046957610ecc8654611671565b601f81116110a0575b508990601f831160011461100b5793600293837faa0c52d9887925385218a312ed7f5b59fb13441caa0ac5d3a030b41a0a16e45c999794610f6894610f7e9a98600092611000575b50508160011b916000199060031b1c19161786555b9051600186018054925160ff60a01b90151560a01b166001600160a01b039092166001600160a81b031990931692909217179055565b5191015560405191829187835287830190611510565b0390a283600052600482526040600020926005861015610fea577fc39520d143711ba5cf18efc1c0261d4385d3c0168700ae791de88e5ad810a27d9360ff1981541660ff881617905581604051928392833781016000815203902093610fe76040518092611767565ba3005b634e487b7160e01b600052602160045260246000fd5b015190503880610f1d565b90601f19831691876000528b6000209260005b8d82821061108a57505084610f6894610f7e9a9894600298947faa0c52d9887925385218a312ed7f5b59fb13441caa0ac5d3a030b41a0a16e45c9d9b9860019510611071575b505050811b018655610f32565b015160001960f88460031b161c19169055388080611064565b600185968293968601518155019501930161101e565b866000528a600020601f840160051c8101918c85106110dc575b601f0160051c01905b8181106110d05750610ed5565b600081556001016110c3565b90915081906110ba565b34610149576040366003190112610149576110ff6114fa565b336001600160a01b0382160361111b576101479060043561189d565b63334bd91960e11b60005260046000fd5b346101495760403660031901126101495761014760043561114b6114fa565b9061115861013d82611746565b611855565b34610149576040366003190112610149576111766114e4565b602435801515918282036101495761118c6117b8565b60018060a01b03169182600052600060205260ff60016040600020015460a01c16151514611310576000828152602081905260409020600101805460ff60a01b191682151560a01b60ff60a01b1617905580156112e557817fc085499009b58c89a48a9136db5d685566f394e1463fdb6a68fb67bff7d51bbe600080a25b81600052600060205260406000209180600052600460205260ff604060002054169160405160009480549061123e82611671565b91600181169081156112c0575060011461127b575b5050806000805160206125f683398151915293949503902093610dcb60405192839283611774565b90955060005260206000206000905b8682106112ac57505093840193806000805160206125f6833981519152611253565b60018160209254848601520191019061128a565b60ff1916845250508015150281019450806000805160206125f6833981519152611253565b817ffe2ff875f46191e3457a6fecc67d4614b610e6618e35bd6fbd0693ebc0c4800d600080a261120a565b506306a8b29360e11b60005260045260246000fd5b34610149576020366003190112610149576020611343600435611746565b604051908152f35b34610149576040366003190112610149576113646114e4565b6024356005811015610149576001600160a01b0391821660009081526005602090815260409091209092916113989161172e565b5416604051908152f35b34610149576020366003190112610149576001600160a01b036113c36114e4565b168060005260006020526040600020906040516113df816115c2565b6060604051926113fa846113f381886116ab565b03856115de565b838352600185015492600260ff60018060a01b0386169586602085015260a01c1615159687604084015201549283910152600052600460205260ff60406000205416906005821015610fea5761145e9460405195869560a0875260a0870190611510565b9360208601526040850152606084015260808301520390f35b34610149576020366003190112610149576004359063ffffffff60e01b821680920361014957602091635a05180f60e01b81149081156114b9575b5015158152f35b637965db0b60e01b8114915081156114d3575b50836114b2565b6301ffc9a760e01b149050836114cc565b600435906001600160a01b038216820361014957565b602435906001600160a01b038216820361014957565b919082519283825260005b84811061153c575050826000602080949584010152601f8019910116010190565b8060208092840101518282860101520161151b565b6060600319820112610149576004356001600160a01b0381168103610149579160243567ffffffffffffffff811161014957826023820112156101495780600401359267ffffffffffffffff8411610149576024848301011161014957602401919060443560058110156101495790565b6080810190811067ffffffffffffffff82111761046957604052565b90601f8019910116810190811067ffffffffffffffff82111761046957604052565b67ffffffffffffffff811161046957601f01601f191660200190565b92919261162882611600565b9161163660405193846115de565b829481845281830111610149578281602093846000960137010152565b9080601f830112156101495781602061166e9335910161161c565b90565b90600182811c921680156116a1575b602083101461168b57565b634e487b7160e01b600052602260045260246000fd5b91607f1691611680565b600092918154916116bb83611671565b808352926001811690811561171157506001146116d757505050565b60009081526020812093945091925b8383106116f7575060209250010190565b6001816020929493945483858701015201910191906116e6565b915050602093945060ff929192191683830152151560051b010190565b906005811015610fea57600052602052604060002090565b6000526000805160206125d683398151915260205260016040600020015490565b906005821015610fea5752565b909291602090611788836040810196611767565b1515910152565b156117975750565b634726455360e11b60009081526001600160a01b0391909116600452602490fd5b3360009081527fb7db2dd08fcb62d0c9e08c51941cae53c267786a0b75803fb7960902fc8ef97d602052604090205460ff16156117f157565b63e2517d3f60e01b60005233600452600060245260446000fd5b60008181526000805160206125d68339815191526020908152604080832033845290915290205460ff161561183d5750565b63e2517d3f60e01b6000523360045260245260446000fd5b61185f82826119ed565b918261186a57505090565b60009182526000805160206125968339815191526020526040909120611899916001600160a01b031690611b64565b5090565b6118a78282611a96565b91826118b257505090565b60009182526000805160206125968339815191526020526040909120611899916001600160a01b031690611bda565b156118e95750565b630c76093760e01b60009081526001600160a01b0391909116600452602490fd5b156119125750565b604051637f19f48d60e01b815260206004820152908190611937906024830190611510565b0390fd5b6001600160a01b03811660009081527fb7db2dd08fcb62d0c9e08c51941cae53c267786a0b75803fb7960902fc8ef97d602052604090205460ff166119e7576001600160a01b031660008181527fb7db2dd08fcb62d0c9e08c51941cae53c267786a0b75803fb7960902fc8ef97d60205260408120805460ff191660011790553391907f2f8788117e7eff1d82e926ec794901d17c78024a50270940304540a733656f0d8180a4600190565b50600090565b60008181526000805160206125d6833981519152602090815260408083206001600160a01b038616845290915290205460ff16611a8f5760008181526000805160206125d6833981519152602090815260408083206001600160a01b0395909516808452949091528120805460ff19166001179055339291907f2f8788117e7eff1d82e926ec794901d17c78024a50270940304540a733656f0d9080a4600190565b5050600090565b60008181526000805160206125d6833981519152602090815260408083206001600160a01b038616845290915290205460ff1615611a8f5760008181526000805160206125d6833981519152602090815260408083206001600160a01b0395909516808452949091528120805460ff19169055339291907ff6391f5c32d9c69d2a47ea670b442974b53935d1edc7fd64eb21e047a839171b9080a4600190565b8054821015611b4e5760005260206000200190600090565b634e487b7160e01b600052603260045260246000fd5b6001810190826000528160205260406000205415600014611bd25780546801000000000000000081101561046957611bbd611ba6826001879401855584611b36565b819391549060031b91821b91600019901b19161790565b90555491600052602052604060002055600190565b505050600090565b9060018201918160005282602052604060002054801515600014611ca457600019810181811161042a57825460001981019190821161042a57818103611c6d575b50505080548015611c57576000190190611c358282611b36565b8154906000199060031b1b191690555560005260205260006040812055600190565b634e487b7160e01b600052603160045260246000fd5b611c8d611c7d611ba69386611b36565b90549060031b1c92839286611b36565b905560005283602052604060002055388080611c1b565b50505050600090565b90611cd35750805115611cc257805190602001fd5b63d6bda27560e01b60005260046000fd5b81511580611d05575b611ce4575090565b639996b31560e01b60009081526001600160a01b0391909116600452602490fd5b50803b15611cdc56fe60a0806040526104ad803803809161001782856102b7565b833981016040828203126101f35761002e826102f0565b602083015190926001600160401b0382116101f3570181601f820112156101f35780519061005b82610304565b9261006960405194856102b7565b828452602083830101116101f35760005b8281106102a2575050602060009183010152813b15610280577fa3f0ad74e5423aebfd80d3ef4346578335a9a72aeaee59ff6cb3582b35133d5080546001600160a01b0319166001600160a01b038416908117909155604051635c60da1b60e01b8152909190602081600481865afa90811561020057600091610246575b50803b156102255750817f1cf3b03a6cf19fa2baba4df148e9dcabedea7f8a5c07840e207e5c089be95d3e600080a280511561020c57602060049260405193848092635c60da1b60e01b82525afa918215610200576000926101b9575b509060008083602061019595519101845af43d156101b1573d9161017883610304565b9261018660405194856102b7565b83523d6000602085013e61031f565b505b60805260405161012c908161038182396080518160180152f35b60609161031f565b91506020823d6020116101f8575b816101d4602093836102b7565b810103126101f3576000806101eb610195946102f0565b935050610155565b600080fd5b3d91506101c7565b6040513d6000823e3d90fd5b505034156101975763b398979f60e01b60005260046000fd5b634c9c8ce360e01b60009081526001600160a01b0391909116600452602490fd5b90506020813d602011610278575b81610261602093836102b7565b810103126101f357610272906102f0565b386100f8565b3d9150610254565b50631933b43b60e21b60009081526001600160a01b0391909116600452602490fd5b8060208092840101518282870101520161007a565b601f909101601f19168101906001600160401b038211908210176102da57604052565b634e487b7160e01b600052604160045260246000fd5b51906001600160a01b03821682036101f357565b6001600160401b0381116102da57601f01601f191660200190565b90610345575080511561033457805190602001fd5b63d6bda27560e01b60005260046000fd5b81511580610377575b610356575090565b639996b31560e01b60009081526001600160a01b0391909116600452602490fd5b50803b1561034e56fe60806040819052635c60da1b60e01b81526020906004817f00000000000000000000000000000000000000000000000000000000000000006001600160a01b03165afa801560a5576000901560d6575060203d602011609f575b601f19601f820116608001906080821067ffffffffffffffff83111760895760859160405260800160b1565b60d6565b634e487b7160e01b600052604160045260246000fd5b503d6059565b6040513d6000823e3d90fd5b602090607f19011260d1576080516001600160a01b038116810360d15790565b600080fd5b60008091368280378136915af43d6000803e1560f1573d6000f35b3d6000fdfea264697066735822122085f2773fc59dcac95830e25720291aa4d0b5a14108bf1ac10ed08a415b40f56264736f6c634300081b003360803461013a57601f6103da38819003918201601f19168301916001600160401b0383118484101761013f57808492604094855283398101031261013a5761004681610155565b906001600160a01b039061005c90602001610155565b1690811561012457600080546001600160a01b031981168417825560405193916001600160a01b03909116907f8be0079c531659141344cd1fd0a4f28419497f9722a3daafe3b4186f6b6457e09080a3803b1561010357600180546001600160a01b0319166001600160a01b039290921691821790557fbc7cd75a20ee27fd9adebab32041f755214dbc6bffa90cc0225b39da2e5c2d3b600080a2610270908161016a8239f35b63211eb15960e21b60009081526001600160a01b0391909116600452602490fd5b631e4fbdf760e01b600052600060045260246000fd5b600080fd5b634e487b7160e01b600052604160045260246000fd5b51906001600160a01b038216820361013a5756fe6080604052600436101561001257600080fd5b60003560e01c80633659cfe6146101905780635c60da1b14610167578063715018a61461010e5780638da5cb5b146100e55763f2fde38b1461005357600080fd5b346100e05760203660031901126100e0576004356001600160a01b038116908190036100e057610081610211565b80156100ca57600080546001600160a01b03198116831782556001600160a01b0316907f8be0079c531659141344cd1fd0a4f28419497f9722a3daafe3b4186f6b6457e09080a3005b631e4fbdf760e01b600052600060045260246000fd5b600080fd5b346100e05760003660031901126100e0576000546040516001600160a01b039091168152602090f35b346100e05760003660031901126100e057610127610211565b600080546001600160a01b0319811682556001600160a01b03167f8be0079c531659141344cd1fd0a4f28419497f9722a3daafe3b4186f6b6457e08280a3005b346100e05760003660031901126100e0576001546040516001600160a01b039091168152602090f35b346100e05760203660031901126100e0576004356001600160a01b038116908181036100e0576101be610211565b3b156101fd57600180546001600160a01b031916821790557fbc7cd75a20ee27fd9adebab32041f755214dbc6bffa90cc0225b39da2e5c2d3b600080a2005b63211eb15960e21b60005260045260246000fd5b6000546001600160a01b0316330361022557565b63118cdaa760e01b6000523360045260246000fdfea2646970667358221220d17d64cadbf1c80f89320b76ddb542f5d4c70ef577cbc522703c06922de58bfb64736f6c634300081b0033c1f6fe24621ce81ec5827caf0253cadb74709b061630e6b55e82371705932000360894a13ba1a3210667c828492db98dca3e2076cc3735a920a3ca505d382bbc02dd7bc7dec4dceedda775e58dd541e08a116c6c53815c0bd028192f7b626800f5f1da5ed7a812604f6c2c4a232851cb1361871485de4a9b1dc56f63676a2090f0c57e16840df040f15088dc2f81fe391c3923bec73e23a9662efc9c229c6a00a264697066735822122068e6b9c8430f05cd52785bae8feeb8ae507ba4da02223b3f9463bd2782752e0d64736f6c634300081b0033",
  "linkReferences": {},
  "deployedLinkReferences": {}
}