{
  "_format": "hh-sol-artifact-1",
  "contractName": "ServiceFactory",
  "sourceName": "contracts/scr/Factory/functions/ServiceFactory.sol",
  "abi": [
    {
      "inputs": [
        {
          "internalType": "address",
          "name": "account",
          "type": "address"
        },
        {
          "internalType": "bytes32",
          "name": "neededRole",
          "type": "bytes32"
        }
      ],
      "name": "AccessControlUnauthorizedAccount",
      "type": "error"
    },
    {
      "inputs": [
        {
          "internalType": "address",
          "name": "founder",
          "type": "address"
        },
        {
          "internalType": "address",
          "name": "beacon",
          "type": "address"
        },
        {
          "internalType": "enum ServiceType",
          "name": "serviceType",
          "type": "uint8"
        }
      ],
      "name": "AlreadyDeployedService",
      "type": "error"
    },
    {
      "inputs": [
        {
          "internalType": "string",
          "name": "str",
          "type": "string"
        }
      ],
      "name": "EmptyString",
      "type": "error"
    },
    {
      "inputs": [
        {
          "internalType": "address",
          "name": "account",
          "type": "address"
        },
        {
          "internalType": "address",
          "name": "company",
          "type": "address"
        },
        {
          "internalType": "address",
          "name": "beacon",
          "type": "address"
        }
      ],
      "name": "FailDeployService",
      "type": "error"
    },
    {
      "inputs": [
        {
          "internalType": "address",
          "name": "beacon",
          "type": "address"
        }
      ],
      "name": "NotGovernanceService",
      "type": "error"
    },
    {
      "inputs": [
        {
          "internalType": "address",
          "name": "beacon",
          "type": "address"
        }
      ],
      "name": "ServiceNotOnline",
      "type": "error"
    },
    {
      "anonymous": false,
      "inputs": [
        {
          "indexed": true,
          "internalType": "address",
          "name": "beacon",
          "type": "address"
        },
        {
          "indexed": true,
          "internalType": "address",
          "name": "service",
          "type": "address"
        }
      ],
      "name": "ActivateService",
      "type": "event"
    },
    {
      "anonymous": false,
      "inputs": [
        {
          "indexed": true,
          "internalType": "address",
          "name": "beacon",
          "type": "address"
        },
        {
          "indexed": false,
          "internalType": "string",
          "name": "name",
          "type": "string"
        }
      ],
      "name": "DeployBeaconProxy",
      "type": "event"
    },
    {
      "inputs": [
        {
          "internalType": "address",
          "name": "founder",
          "type": "address"
        },
        {
          "internalType": "enum ServiceType",
          "name": "serviceType",
          "type": "uint8"
        }
      ],
      "name": "getFounderService",
      "outputs": [
        {
          "internalType": "address",
          "name": "",
          "type": "address"
        }
      ],
      "stateMutability": "view",
      "type": "function"
    },
    {
      "inputs": [
        {
          "internalType": "address",
          "name": "beacon",
          "type": "address"
        }
      ],
      "name": "getServiceType",
      "outputs": [
        {
          "internalType": "enum ServiceType",
          "name": "",
          "type": "uint8"
        }
      ],
      "stateMutability": "view",
      "type": "function"
    },
    {
      "inputs": [
        {
          "internalType": "address",
          "name": "letsBeacon",
          "type": "address"
        },
        {
          "internalType": "address",
          "name": "letsSaleBeacon",
          "type": "address"
        }
      ],
      "name": "setLetsSaleBeacon",
      "outputs": [],
      "stateMutability": "nonpayable",
      "type": "function"
    },
    {
      "inputs": [
        {
          "internalType": "address",
          "name": "implementation",
          "type": "address"
        },
        {
          "internalType": "string",
          "name": "name",
          "type": "string"
        },
        {
          "internalType": "enum ServiceType",
          "name": "serviceType",
          "type": "uint8"
        }
      ],
      "name": "setService",
      "outputs": [
        {
          "internalType": "address",
          "name": "beacon",
          "type": "address"
        }
      ],
      "stateMutability": "nonpayable",
      "type": "function"
    }
  ],
  "bytecode": "0x60808060405234601557610b09908161001b8239f35b600080fdfe6080604052600436101561001257600080fd5b60003560e01c80630e8ac8151461052c5780633a5b89f014610120578063acc7a588146100af5763db0cf0ea1461004857600080fd5b346100aa5760203660031901126100aa57610061610590565b6100696106b5565b9060018060a01b031660005260205260ff604060002054166040516007821015610094576020918152f35b634e487b7160e01b600052602160045260246000fd5b600080fd5b346100aa5760403660031901126100aa576100c8610590565b602435906001600160a01b03821682036100aa576100e5336105de565b60026100ef6106b5565b6001600160a01b03928316600090815291016020526040902080546001600160a01b03191692909116919091179055005b346100aa5760603660031901126100aa57610139610590565b60243567ffffffffffffffff81116100aa57366023820112156100aa5780600401359067ffffffffffffffff82116100aa5736602483830101116100aa5760443560078110156100aa5760249061018f336105de565b604051602081017f2810609b04caf5f85bb4aaecfb9d3c44224335fe412d57bd4016590897095aa48152602082526101c86040836105a6565b9051902060405160ff19909116936101ea6020601f19601f89011601836105a6565b858252602080830196806000968794018937830101526020948360405161021188826105a6565b5283802090825190201461050b576040516103da968782019782891067ffffffffffffffff8a11176104ec5760409183916106fa83396001600160a01b0316808a5233898b01529803019084f0801561050057604051906080820182811067ffffffffffffffff8211176104ec5760409081528383528783019889526001838201908152606084018781526001600160a01b03909316808852978952908620925180519099919067ffffffffffffffff81116104d85784549a60018c811c9c1680156104ce575b8b8d10146104ba578b601f8b9c9d9b999a9b11610460575b508b908a601f84116001146103cb57928061038e989693600296937f03bf13c3738edb996db276d73747b443c443972ca33da1e26dba5ae491c64ac69b9996926103c0575b50508160011b916000199060031b1c19161785555b9051600185018054925160ff60a01b90151560a01b166001600160a01b039092166001600160a81b031990931692909217179055519101556040519182918261066c565b0390a26103996106b5565b60018060a01b0384168352845260408220915060ff80198354169116179055604051908152f35b015190508f80610335565b50868b528c8b209190601f1984168c8f5b8282106104445750509361038e98969360029693600193837f03bf13c3738edb996db276d73747b443c443972ca33da1e26dba5ae491c64ac69d9b981061042b575b505050811b01855561034a565b015160001960f88460031b161c191690558f808061041e565b8484015186558f9c5060019095019493840193908101906103dc565b909192939495809798508a528b8a20601f840160051c8101918d85106104b0575b90601f8d9a99989796959493920160051c01905b8181106104a257506102f0565b8b81558c9950600101610495565b9091508190610481565b634e487b7160e01b89526022600452602489fd5b9b607f169b6102d8565b634e487b7160e01b88526041600452602488fd5b634e487b7160e01b86526041600452602486fd5b6040513d85823e3d90fd5b6040516318a996bb60e21b8152908190610528906004830161066c565b0390fd5b346100aa5760403660031901126100aa57610545610590565b6024359060078210156100aa57600161055c6106b5565b019060018060a01b0316600052602052604060002090600052602052602060018060a01b0360406000205416604051908152f35b600435906001600160a01b03821682036100aa57565b90601f8019910116810190811067ffffffffffffffff8211176105c857604052565b634e487b7160e01b600052604160045260246000fd5b604051602081017fcf377bf0da9cb35454543c63ad54bf2c5a0466b629ac7517e61f8857cae0fa258152602082526106176040836105a6565b60ff19915190201660008052602052604060002060018060a01b03821660005260205260ff604060002054161561064b5750565b63e2517d3f60e01b60005260018060a01b0316600452600060245260446000fd5b91909160208152825180602083015260005b81811061069f575060409293506000838284010152601f8019910116010190565b806020809287010151604082860101520161067e565b604051602081017fa982c9e6e17d452331d25729e1841144b75518b90727406c625995fda7cfcb3f8152602082526106ee6040836105a6565b9051902060ff19169056fe60803461013a57601f6103da38819003918201601f19168301916001600160401b0383118484101761013f57808492604094855283398101031261013a5761004681610155565b906001600160a01b039061005c90602001610155565b1690811561012457600080546001600160a01b031981168417825560405193916001600160a01b03909116907f8be0079c531659141344cd1fd0a4f28419497f9722a3daafe3b4186f6b6457e09080a3803b1561010357600180546001600160a01b0319166001600160a01b039290921691821790557fbc7cd75a20ee27fd9adebab32041f755214dbc6bffa90cc0225b39da2e5c2d3b600080a2610270908161016a8239f35b63211eb15960e21b60009081526001600160a01b0391909116600452602490fd5b631e4fbdf760e01b600052600060045260246000fd5b600080fd5b634e487b7160e01b600052604160045260246000fd5b51906001600160a01b038216820361013a5756fe6080604052600436101561001257600080fd5b60003560e01c80633659cfe6146101905780635c60da1b14610167578063715018a61461010e5780638da5cb5b146100e55763f2fde38b1461005357600080fd5b346100e05760203660031901126100e0576004356001600160a01b038116908190036100e057610081610211565b80156100ca57600080546001600160a01b03198116831782556001600160a01b0316907f8be0079c531659141344cd1fd0a4f28419497f9722a3daafe3b4186f6b6457e09080a3005b631e4fbdf760e01b600052600060045260246000fd5b600080fd5b346100e05760003660031901126100e0576000546040516001600160a01b039091168152602090f35b346100e05760003660031901126100e057610127610211565b600080546001600160a01b0319811682556001600160a01b03167f8be0079c531659141344cd1fd0a4f28419497f9722a3daafe3b4186f6b6457e08280a3005b346100e05760003660031901126100e0576001546040516001600160a01b039091168152602090f35b346100e05760203660031901126100e0576004356001600160a01b038116908181036100e0576101be610211565b3b156101fd57600180546001600160a01b031916821790557fbc7cd75a20ee27fd9adebab32041f755214dbc6bffa90cc0225b39da2e5c2d3b600080a2005b63211eb15960e21b60005260045260246000fd5b6000546001600160a01b0316330361022557565b63118cdaa760e01b6000523360045260246000fdfea264697066735822122064ee34d8aac134cd71c99b18254a6e6b157733d4b5d90a10613c087479a049aa64736f6c634300081c0033a2646970667358221220951d95ac5780435baa197e17d9c15033c1c3e7c9bed2c4129e0c16615273a15364736f6c634300081c0033",
  "linkReferences": {},
  "deployedLinkReferences": {}
}