{
  "_format": "hh-sol-artifact-1",
  "contractName": "Vote",
  "sourceName": "contracts/Vote/Vote.sol",
  "abi": [
    {
      "inputs": [
        {
          "internalType": "address",
          "name": "target",
          "type": "address"
        }
      ],
      "name": "AddressEmptyCode",
      "type": "error"
    },
    {
      "inputs": [
        {
          "internalType": "address",
          "name": "implementation",
          "type": "address"
        }
      ],
      "name": "ERC1967InvalidImplementation",
      "type": "error"
    },
    {
      "inputs": [],
      "name": "ERC1967NonPayable",
      "type": "error"
    },
    {
      "inputs": [],
      "name": "FailedCall",
      "type": "error"
    },
    {
      "inputs": [
        {
          "internalType": "string",
          "name": "proposalId",
          "type": "string"
        }
      ],
      "name": "InvalidEndTime",
      "type": "error"
    },
    {
      "inputs": [],
      "name": "InvalidInitialization",
      "type": "error"
    },
    {
      "inputs": [
        {
          "internalType": "string",
          "name": "proposalId",
          "type": "string"
        }
      ],
      "name": "NotAfterVotingEnded",
      "type": "error"
    },
    {
      "inputs": [
        {
          "internalType": "string",
          "name": "proposalId",
          "type": "string"
        }
      ],
      "name": "NotDuringVotingPeriod",
      "type": "error"
    },
    {
      "inputs": [],
      "name": "NotInitializing",
      "type": "error"
    },
    {
      "inputs": [
        {
          "internalType": "address",
          "name": "owner",
          "type": "address"
        }
      ],
      "name": "OwnableInvalidOwner",
      "type": "error"
    },
    {
      "inputs": [
        {
          "internalType": "address",
          "name": "account",
          "type": "address"
        }
      ],
      "name": "OwnableUnauthorizedAccount",
      "type": "error"
    },
    {
      "inputs": [],
      "name": "UUPSUnauthorizedCallContext",
      "type": "error"
    },
    {
      "inputs": [
        {
          "internalType": "bytes32",
          "name": "slot",
          "type": "bytes32"
        }
      ],
      "name": "UUPSUnsupportedProxiableUUID",
      "type": "error"
    },
    {
      "anonymous": false,
      "inputs": [
        {
          "indexed": false,
          "internalType": "uint64",
          "name": "version",
          "type": "uint64"
        }
      ],
      "name": "Initialized",
      "type": "event"
    },
    {
      "anonymous": false,
      "inputs": [
        {
          "indexed": true,
          "internalType": "address",
          "name": "previousOwner",
          "type": "address"
        },
        {
          "indexed": true,
          "internalType": "address",
          "name": "newOwner",
          "type": "address"
        }
      ],
      "name": "OwnershipTransferred",
      "type": "event"
    },
    {
      "anonymous": false,
      "inputs": [
        {
          "indexed": false,
          "internalType": "string",
          "name": "proposalId",
          "type": "string"
        },
        {
          "components": [
            {
              "internalType": "address",
              "name": "executor",
              "type": "address"
            },
            {
              "internalType": "address",
              "name": "tokenContract",
              "type": "address"
            },
            {
              "internalType": "uint256",
              "name": "totalTokenAmount",
              "type": "uint256"
            },
            {
              "internalType": "uint256",
              "name": "quorum",
              "type": "uint256"
            },
            {
              "internalType": "uint256",
              "name": "threshold",
              "type": "uint256"
            },
            {
              "internalType": "uint256",
              "name": "startTime",
              "type": "uint256"
            },
            {
              "internalType": "uint256",
              "name": "endTime",
              "type": "uint256"
            },
            {
              "internalType": "uint256",
              "name": "agree",
              "type": "uint256"
            },
            {
              "internalType": "uint256",
              "name": "disagree",
              "type": "uint256"
            },
            {
              "internalType": "uint256",
              "name": "abstain",
              "type": "uint256"
            }
          ],
          "indexed": false,
          "internalType": "struct IVote.Proposal",
          "name": "proposal",
          "type": "tuple"
        }
      ],
      "name": "ProposalCreated",
      "type": "event"
    },
    {
      "anonymous": false,
      "inputs": [
        {
          "indexed": false,
          "internalType": "string",
          "name": "proposalId",
          "type": "string"
        }
      ],
      "name": "ProposalExecuted",
      "type": "event"
    },
    {
      "anonymous": false,
      "inputs": [
        {
          "indexed": true,
          "internalType": "address",
          "name": "implementation",
          "type": "address"
        }
      ],
      "name": "Upgraded",
      "type": "event"
    },
    {
      "anonymous": false,
      "inputs": [
        {
          "indexed": true,
          "internalType": "address",
          "name": "voter",
          "type": "address"
        },
        {
          "indexed": false,
          "internalType": "string",
          "name": "proposalId",
          "type": "string"
        },
        {
          "indexed": false,
          "internalType": "enum IVote.VoteType",
          "name": "voteType",
          "type": "uint8"
        }
      ],
      "name": "Voted",
      "type": "event"
    },
    {
      "inputs": [],
      "name": "UPGRADE_INTERFACE_VERSION",
      "outputs": [
        {
          "internalType": "string",
          "name": "",
          "type": "string"
        }
      ],
      "stateMutability": "view",
      "type": "function"
    },
    {
      "inputs": [
        {
          "internalType": "address",
          "name": "executor",
          "type": "address"
        },
        {
          "internalType": "string",
          "name": "proposalId",
          "type": "string"
        },
        {
          "internalType": "uint256",
          "name": "quorum",
          "type": "uint256"
        },
        {
          "internalType": "uint256",
          "name": "threshold",
          "type": "uint256"
        },
        {
          "internalType": "uint256",
          "name": "startTime",
          "type": "uint256"
        },
        {
          "internalType": "uint256",
          "name": "endTime",
          "type": "uint256"
        }
      ],
      "name": "createProposal",
      "outputs": [],
      "stateMutability": "nonpayable",
      "type": "function"
    },
    {
      "inputs": [],
      "name": "initialize",
      "outputs": [],
      "stateMutability": "nonpayable",
      "type": "function"
    },
    {
      "inputs": [],
      "name": "nftContract",
      "outputs": [
        {
          "internalType": "address",
          "name": "",
          "type": "address"
        }
      ],
      "stateMutability": "view",
      "type": "function"
    },
    {
      "inputs": [],
      "name": "owner",
      "outputs": [
        {
          "internalType": "address",
          "name": "",
          "type": "address"
        }
      ],
      "stateMutability": "view",
      "type": "function"
    },
    {
      "inputs": [
        {
          "internalType": "string",
          "name": "",
          "type": "string"
        }
      ],
      "name": "proposals",
      "outputs": [
        {
          "internalType": "address",
          "name": "executor",
          "type": "address"
        },
        {
          "internalType": "address",
          "name": "tokenContract",
          "type": "address"
        },
        {
          "internalType": "uint256",
          "name": "totalTokenAmount",
          "type": "uint256"
        },
        {
          "internalType": "uint256",
          "name": "quorum",
          "type": "uint256"
        },
        {
          "internalType": "uint256",
          "name": "threshold",
          "type": "uint256"
        },
        {
          "internalType": "uint256",
          "name": "startTime",
          "type": "uint256"
        },
        {
          "internalType": "uint256",
          "name": "endTime",
          "type": "uint256"
        },
        {
          "internalType": "uint256",
          "name": "agree",
          "type": "uint256"
        },
        {
          "internalType": "uint256",
          "name": "disagree",
          "type": "uint256"
        },
        {
          "internalType": "uint256",
          "name": "abstain",
          "type": "uint256"
        }
      ],
      "stateMutability": "view",
      "type": "function"
    },
    {
      "inputs": [],
      "name": "proxiableUUID",
      "outputs": [
        {
          "internalType": "bytes32",
          "name": "",
          "type": "bytes32"
        }
      ],
      "stateMutability": "view",
      "type": "function"
    },
    {
      "inputs": [],
      "name": "renounceOwnership",
      "outputs": [],
      "stateMutability": "nonpayable",
      "type": "function"
    },
    {
      "inputs": [
        {
          "internalType": "address",
          "name": "_nftContract",
          "type": "address"
        }
      ],
      "name": "setNftContract",
      "outputs": [],
      "stateMutability": "nonpayable",
      "type": "function"
    },
    {
      "inputs": [
        {
          "internalType": "address",
          "name": "newOwner",
          "type": "address"
        }
      ],
      "name": "transferOwnership",
      "outputs": [],
      "stateMutability": "nonpayable",
      "type": "function"
    },
    {
      "inputs": [
        {
          "internalType": "address",
          "name": "newImplementation",
          "type": "address"
        },
        {
          "internalType": "bytes",
          "name": "data",
          "type": "bytes"
        }
      ],
      "name": "upgradeToAndCall",
      "outputs": [],
      "stateMutability": "payable",
      "type": "function"
    },
    {
      "inputs": [
        {
          "internalType": "string",
          "name": "proposalId",
          "type": "string"
        },
        {
          "internalType": "enum IVote.VoteType",
          "name": "voteType",
          "type": "uint8"
        }
      ],
      "name": "vote",
      "outputs": [],
      "stateMutability": "nonpayable",
      "type": "function"
    },
    {
      "inputs": [
        {
          "internalType": "string",
          "name": "",
          "type": "string"
        },
        {
          "internalType": "address",
          "name": "",
          "type": "address"
        }
      ],
      "name": "voted",
      "outputs": [
        {
          "internalType": "bool",
          "name": "",
          "type": "bool"
        }
      ],
      "stateMutability": "view",
      "type": "function"
    }
  ],
  "bytecode": "0x60a0806040523460295730608052610f93908161002f82396080518181816109a40152610a4a0152f35b600080fdfe6080604052600436101561001257600080fd5b60003560e01c806328c38aec14610c105780634f1ef286146109fb57806352d1902d1461099157806352f5ad77146108f45780635e788c1e1461066f578063715018a6146106055780638129fc1c146104b95780638da5cb5b1461048357806390ca27f314610221578063ad3cb1cc146101d6578063d56d229d146101ad578063f2fde38b146101825763ffa0d2a4146100ab57600080fd5b3461017d57602036600319011261017d5760043567ffffffffffffffff811161017d576100f760206100e4610140933690600401610d11565b8160405193828580945193849201610d45565b8101600081520301902060018060a01b038154169060018060a01b03600182015416906002810154600382015460048301546005840154906006850154926007860154946009600888015497015497604051998a5260208a015260408901526060880152608087015260a086015260c085015260e0840152610100830152610120820152f35b600080fd5b3461017d57602036600319011261017d576101ab61019e610d2f565b6101a6610e38565b610db2565b005b3461017d57600036600319011261017d576002546040516001600160a01b039091168152602090f35b3461017d57600036600319011261017d5761021d60408051906101f98183610c9c565b60058252640352e302e360dc1b602083015251918291602083526020830190610d68565b0390f35b3461017d57604036600319011261017d5760043567ffffffffffffffff811161017d573660238201121561017d5780600401359067ffffffffffffffff821161017d576024810190602483369201011161017d5760243590600382101561017d5761028d368483610cda565b6040516005825191602081818601946102a7818388610d45565b8101600081520301902001544210159081610453575b501561042a575060405183828237602081858101600081520301902060405184838237602081868101600181520301902060018060a01b03331660005260205260ff604060002054166103f557600090836103c85760070161031f8154610d8d565b90555b60405184838237602081868101600181520301902060018060a01b0333166000526020526040600020600160ff1982541617905583604051926040845281604085015260608401376000606085840101526103b2577f78d5367253443cf48178fd401e0bca6fd208777eae8a0414c25f5e9b5c8b7e389160208201526060813394601f80199101168101030190a2005b634e487b7160e01b600052602160045260246000fd5b60009150600184036103e8576008016103e18154610d8d565b9055610322565b6009016103e18154610d8d565b60405162461bcd60e51b815260206004820152600d60248201526c105b1c9958591e481d9bdd1959609a1b6044820152606490fd5b6040516340baeddd60e01b81526020600482015290819061044f906024830190610d68565b0390fd5b60069150602061046e91604051809381928751928391610d45565b810160008152030190200154421115856102bd565b3461017d57600036600319011261017d57600080516020610efe833981519152546040516001600160a01b039091168152602090f35b3461017d57600036600319011261017d57600080516020610f3e8339815191525460ff8160401c16159067ffffffffffffffff8116801590816105fd575b60011490816105f3575b1590816105ea575b506105d95767ffffffffffffffff198116600117600080516020610f3e83398151915255816105ac575b5061053c610e6e565b610544610e6e565b61054d33610db2565b61055357005b68ff000000000000000019600080516020610f3e8339815191525416600080516020610f3e833981519152557fc7f505b2f371ae2175ee4913f4499e1f2633a7b5936321eed1cdaeb6115181d2602060405160018152a1005b68ffffffffffffffffff19166801000000000000000117600080516020610f3e8339815191525581610533565b63f92ee8a960e01b60005260046000fd5b90501583610509565b303b159150610501565b8391506104f7565b3461017d57600036600319011261017d5761061e610e38565b600080516020610efe83398151915280546001600160a01b031981169091556000906001600160a01b03167f8be0079c531659141344cd1fd0a4f28419497f9722a3daafe3b4186f6b6457e08280a3005b3461017d5760c036600319011261017d57610688610d2f565b60243567ffffffffffffffff811161017d576106a8903690600401610d11565b60a43590608435808311156108d2576002546040516318160ddd60e01b81526001600160a01b0390911690602081600481855afa9081156108c657600091610894575b506040519261014084019584871067ffffffffffffffff88111761087e577f5e1e189ad7d86ceeea26e70f5250a276b55ab24d3fcdd3448e56380ff25fe2d89761082c9760405260018060a01b0316855260208501938452604085019283526060850191604435835260808601606435815260a0870191825260c0870192835260e08701936000855261010088019560008752610120890197600089526107a160208c8160405193828580945193849201610d45565b6000908201908152030190208a5181546001600160a01b039182166001600160a01b03199182161783558351600184018054919093169116179055825160028201558351600382015584516004820155855160058201558651600682015587516007820155885160088201558951600990910155604051610160808252909c8d9c90918d0190610d68565b99516001600160a01b0390811660208d015290511660408b01525160608a01525160808901525160a08801525160c08701525160e08601525161010085015251610120840152516101408301520390a1005b634e487b7160e01b600052604160045260246000fd5b90506020813d6020116108be575b816108af60209383610c9c565b8101031261017d5751866106eb565b3d91506108a2565b6040513d6000823e3d90fd5b6040516371c67fd560e11b8152602060048201528061044f6024820185610d68565b3461017d57602036600319011261017d5761090d610d2f565b6002549060ff8260a01c16610954576001600160a01b03166001600160a01b0319919091161760025561093f33610de2565b6002805460ff60a01b1916600160a01b179055005b60405162461bcd60e51b815260206004820152601560248201527413dddb995c88185b1c9958591e4818da185b99d959605a1b6044820152606490fd5b3461017d57600036600319011261017d577f00000000000000000000000000000000000000000000000000000000000000006001600160a01b031630036109ea576020604051600080516020610f1e8339815191528152f35b63703e46dd60e11b60005260046000fd5b604036600319011261017d57610a0f610d2f565b60243567ffffffffffffffff811161017d573660238201121561017d57610a40903690602481600401359101610cda565b6001600160a01b037f000000000000000000000000000000000000000000000000000000000000000016308114908115610bed575b506109ea57610a82610e38565b6040516352d1902d60e01b81526001600160a01b0383169290602081600481875afa60009181610bb9575b50610ac75783634c9c8ce360e01b60005260045260246000fd5b80600080516020610f1e833981519152859203610ba55750813b15610b9157600080516020610f1e83398151915280546001600160a01b031916821790557fbc7cd75a20ee27fd9adebab32041f755214dbc6bffa90cc0225b39da2e5c2d3b600080a2815115610b77576000808360206101ab95519101845af43d15610b6f573d91610b5283610cbe565b92610b606040519485610c9c565b83523d6000602085013e610e9c565b606091610e9c565b505034610b8057005b63b398979f60e01b60005260046000fd5b634c9c8ce360e01b60005260045260246000fd5b632a87526960e21b60005260045260246000fd5b9091506020813d602011610be5575b81610bd560209383610c9c565b8101031261017d57519085610aad565b3d9150610bc8565b600080516020610f1e833981519152546001600160a01b03161415905083610a75565b3461017d57604036600319011261017d5760043567ffffffffffffffff811161017d57610c41903690600401610d11565b602435906001600160a01b038216820361017d576020610c6e918160405193828580945193849201610d45565b810160018152030190209060018060a01b0316600052602052602060ff604060002054166040519015158152f35b90601f8019910116810190811067ffffffffffffffff82111761087e57604052565b67ffffffffffffffff811161087e57601f01601f191660200190565b929192610ce682610cbe565b91610cf46040519384610c9c565b82948184528183011161017d578281602093846000960137010152565b9080601f8301121561017d57816020610d2c93359101610cda565b90565b600435906001600160a01b038216820361017d57565b60005b838110610d585750506000910152565b8181015183820152602001610d48565b90602091610d8181518092818552858086019101610d45565b601f01601f1916010190565b6000198114610d9c5760010190565b634e487b7160e01b600052601160045260246000fd5b6001600160a01b03811615610dcc57610dca90610de2565b565b631e4fbdf760e01b600052600060045260246000fd5b600080516020610efe83398151915280546001600160a01b039283166001600160a01b0319821681179092559091167f8be0079c531659141344cd1fd0a4f28419497f9722a3daafe3b4186f6b6457e0600080a3565b600080516020610efe833981519152546001600160a01b03163303610e5957565b63118cdaa760e01b6000523360045260246000fd5b60ff600080516020610f3e8339815191525460401c1615610e8b57565b631afcd79f60e31b60005260046000fd5b90610ec25750805115610eb157805190602001fd5b63d6bda27560e01b60005260046000fd5b81511580610ef4575b610ed3575090565b639996b31560e01b60009081526001600160a01b0391909116600452602490fd5b50803b15610ecb56fe9016d09d72d40fdae2fd8ceac6b6234c7706214fd39c1cd1e609a0528c199300360894a13ba1a3210667c828492db98dca3e2076cc3735a920a3ca505d382bbcf0c57e16840df040f15088dc2f81fe391c3923bec73e23a9662efc9c229c6a00a26469706673582212204cee9b4a3717c13529599b0f7a5e7759934a1c0d49ec347e3766fd7fb9ebc01664736f6c634300081b0033",
  "linkReferences": {},
  "deployedLinkReferences": {}
}